:020000040800F2
:10000000000002205D120008B1120008B1120008C1
:10001000B1120008B1120008B1120008000000007F
:10002000000000000000000000000000B112000805
:10003000B112000800000000B1120008B11200085F
:10004000B1120008B1120008B1120008B112000884
:10005000B1120008B1120008B1120008B112000874
:10006000B1120008B1120008B1120008B112000864
:10007000B1120008B1120008B1120008B112000854
:10008000B1120008B1120008B1120008B112000844
:10009000B1120008B1120008B1120008B112000834
:1000A000B1120008B1120008B1120008B112000824
:1000B00091050008B1120008B1120008B112000841
:1000C000B1120008B1120008B1120008B112000804
:1000D000B1120008A1050008B5050008B11200081A
:1000E000B11200084D12000800000000B112000813
:1000F000B1120008B1120008B1120008B1120008D4
:10010000B1120008B1120008B1120008B1120008C3
:10011000B1120008B1120008B1120008B1120008B3
:10012000B1120008B1120008B1120008B1120008A3
:10013000B1120008B1120008B1120008B112000893
:1001400000000000000000000000000000000000AF
:10015000B1120008B1120008B1120008B112000873
:10016000B1120008B1120008B1120008B112000863
:10017000B1120008B1120008B1120008000000001E
:10018000B1120008B1120008B1120008B112000843
:10019000B1120008B1120008B1120008B112000833
:1001A000B1120008B1120008B112000800000000EE
:1001B000B1120008B1120008B1120008B112000813
:1001C000B1120008B1120008000000000000000099
:1001D0000000000000000000B11200080000000054
:1001E000000000000000000000000000000000000F
:1001F0000000000000000000B1120008B112000869
:10020000B1120008B112000800000000B11200088D
:10021000B1120008B1120008B1120008B1120008B2
:10022000B112000800000000B11200080000000038
:10023000B1120008B112000800000000B11200085D
:10024000B1120008B1120008B1120008B112000882
:10025000B1120008B1120008B1120008B112000872
:10026000B1120008B1120008B1120008B112000862
:10027000B1120008B1120008B1120008000000001D
:10028000B1120008B1120008B1120008B112000842
:1002900000000000B1120008B112000800000000C8
:1002A00000000000B1120008B1120008B1120008ED
:1002B000B1120008B1120008B1120008B112000812
:0C02C000B1120008B1120008B1120008D1
:1002CC000348044B834202D0034B03B118477047D9
:1002DC00F8000020F8000020000000000548064B44
:1002EC001B1AD90F01EBA301491002D0034B03B128
:1002FC0018477047F8000020F800002000000000AC
:10030C0010B5064C237843B9FFF7DAFF044B13B151
:10031C000448AFF300800123237010BDF8000020C7
:10032C0000000000D42A000808B5054B1BB1054994
:10033C000548AFF30080BDE80840FFF7CFBF00BF12
:10034C0000000000FC000020D42A0008830730B510
:10035C0047D0541E002A3ED0CAB2034601E0013CED
:10036C0039D303F8012B9D07F9D1032C2CD9CDB22D
:10037C0005EB05250F2C05EB054535D9A4F110022D
:10038C0022F00F0C03F1100EE6444FEA121C1A4631
:10039C00C2E90055C2E9025510327245F8D10CF190
:1003AC00010214F00C0F03EB021204F00F0C13D02B
:1003BC00ACF1040323F003030433134442F8045B4D
:1003CC009342FBD10CF003042CB1C9B21C4403F8CA
:1003DC00011BA342FBD130BD64461346002CF4D163
:1003EC00F9E703461446C0E71A46A446E0E700BF07
:1003FC0070B50F4B0F4DAB42A3EB050607D0B610F3
:10040C00002455F8043B01349847A642F9D802F071
:10041C005BFB094D094B5E1BAB424FEAA60606D0AF
:10042C00002455F8043B01349847A642F9D870BD16
:10043C00FC2A0008FC2A0008FC2A0008042B0008EF
:10044C00704700BF704700BF024B13B1024800F069
:10045C0005B8704700000000750400080023014631
:10046C001A46184600F014B838B5074D074C2C1B2B
:10047C00A41005D0013C55F8043D9847002CF9D147
:10048C00BDE8384002F026BB082B0008042B0008FE
:10049C002DE9F8431B4D0646286898460F469146B1
:1004AC00FFF7CEFF184B1C681CB3286865681F2D1E
:1004BC0022DC4EB96B1C0235636044F82570FFF7E3
:1004CC00C1FF0020BDE8F88304EB85010123C1F8CE
:1004DC008890D4F88821AB401A43022EC4F88821A6
:1004EC00C1F80881E6D1D4F88C211A43C4F88C21C8
:1004FC00E0E7064C1C60D8E7FFF7A4FF4FF0FF3095
:10050C00E0E700BF00000020180100201C010020C3
:10051C0010B501F095FF194C2060D0F8E0309847E9
:10052C0002F0BCF9206802F0E7F9206802F06CFADE
:10053C00206802F09BFA206802F020FA104B40F67B
:10054C00C412DA6341F294121A64052002F03AFAEA
:10055C0000F026FB00F06AFD084C206802F0ECF974
:10056C0023685B684FF47A709847206802F0F4F9BE
:10057C0023685B684FF47A709847E9E7AC02002077
:10058C00000400404FF080431A691A6922F00102FE
:10059C001A617047034BDA691A6A42F008021A6250
:1005AC00704700BF00100140034BDA691A6A42F031
:1005BC0008021A62704700BF00440040002800F097
:1005CC00D58238B50446036813F0010F25D0A04A34
:1005DC00136903F03803926A102B15D0182B0FD027
:1005EC006368B3F5803F3FD0002B53D1984B1A680A
:1005FC0022F480321A601A6822F480221A6038E0E1
:10060C0002F00302022AEBD1914B1B6813F4003F5A
:10061C0003D06368002B00F0AB82236813F0020F49
:10062C0000F088808A4A1369926A13F038035AD012
:10063C00182B55D0E368002B00F0A98084490A6878
:10064C0022F0190213430B6000F072FF0546804B39
:10065C001B6813F0040F40F0918000F069FF401B01
:10066C000228F4D903208AE2794A136843F48033D0
:10067C00136063682BB300F05BFF0546744B1B687B
:10068C0013F4003FC9D100F053FF401B6428F5D987
:10069C00032074E2B3F5A02F09D06D4B1A6822F435
:1006AC0080321A601A6822F480221A60E1E7684BE3
:1006BC001A6842F480221A601A6842F480321A6076
:1006CC00D7E700F035FF0546614B1B6813F4003F7C
:1006DC00A3D000F02DFF401B6428F5D903204EE277
:1006EC0012F0030FA6D15A4B1B6813F0040F03D062
:1006FC00E368002B00F03E82554A136823F019037F
:10070C00E1680B43136000F013FF0546504B1B6868
:10071C0013F0040F06D100F00BFF401B0228F5D993
:10072C0003202CE24A4A536823F0FE43216943EA32
:10073C0001635360236813F0100F51D0444A1369BE
:10074C0003F03803926A082B39D0182B33D0E369A5
:10075C00002B69D03E4A136843F08003136000F00D
:10076C00E7FE05463A4B1B6813F4807F53D100F02B
:10077C00DFFE401B0228F5D9032000E2344A5368FF
:10078C0023F0FE43216943EA01635360D2E7304A08
:10079C00136823F00103136000F0CAFE05462C4BCE
:1007AC001B6813F0040FC5D000F0C2FE401B0228DA
:1007BC00F5D90320E3E102F00302012AC7D1244B4F
:1007CC001B6813F4807F03D0E369802B40F0D48145
:1007DC001F4AD36823F07C53216A43EA0163D36038
:1007EC00236813F0080F49D06369002B32D0184AE4
:1007FC00536F43F00103536700F09AFE0546144B08
:10080C005B6F13F0020F39D100F092FE401B0228EF
:10081C00F5D90320B3E10E4AD36823F07C53216A47
:10082C0043EA0163D360DBE7094A136823F08003D2
:10083C00136000F07DFE0546054B1B6813F4807FAA
:10084C00CED000F075FE401B0228F5D9032096E1AE
:10085C00004402589D4A536F23F00103536700F084
:10086C0067FE0546994B5B6F13F0020F06D000F044
:10087C005FFE401B0228F5D9032080E1236813F0AA
:10088C00200F29D0A3699BB1904A136843F480537D
:10089C00136000F04DFE05468C4B1B6813F4005F93
:1008AC001AD100F045FE401B0228F5D9032066E161
:1008BC00864A136823F48053136000F039FE054612
:1008CC00824B1B6813F4005F06D000F031FE401B16
:1008DC000228F5D9032052E1236813F0040F21D12B
:1008EC00636A002B00F04A81784A126902F03802E0
:1008FC00182A00F0F180022B75D0744A136823F08B
:10090C008073136000F014FE0446704B1B6813F0E8
:10091C00007F00F0D88000F00BFE001B0228F4D9F9
:10092C0003202CE16A4A136843F48073136000F0CF
:10093C00FFFD0546664B1B6813F4807F06D100F063
:10094C00F7FD401B6428F5D9032018E1A368012B9F
:10095C000AD00BBB5D4B1A6F22F001021A671A6F9B
:10096C0022F004021A6704E0584A136F43F00103A3
:10097C001367A36833B300F0DBFD0546534B1B6FC5
:10098C0013F0020FACD100F0D3FD401B41F28833C1
:10099C009842F3D90320F2E0052B09D04B4B1A6F88
:1009AC0022F001021A671A6F22F004021A67E0E7BC
:1009BC00464B1A6F42F004021A671A6F42F001029A
:1009CC001A67D6E700F0B4FD0546404B1B6F13F0D9
:1009DC00020F85D000F0ACFD401B41F288339842E9
:1009EC00F3D90320CBE0394A136823F080731360EA
:1009FC0000F09EFD0546354B1B6813F0007F06D0BA
:100A0C0000F096FD401B0228F5D90320B7E02F4BD0
:100A1C00996A304A0A40A16AE06A41EA00110A4325
:100A2C009A62226B013AC2F30802616B01394902E6
:100A3C0089B20A43A16B0139090401F4FE010A438E
:100A4C00E16B0139090601F0FE410A431A63DA6AC7
:100A5C0022F00102DA625A6B6FF3CF02A16C42EA08
:100A6C00C1025A63DA6A22F00C02216C0A43DA6280
:100A7C00DA6A22F00202616C0A43DA62DA6A42F440
:100A8C008032DA62DA6A42F40032DA62DA6A42F40A
:100A9C008022DA62DA6A42F00102DA621A6842F003
:100AAC0080721A6000F044FD0446084B1B6813F07A
:100ABC00007F06D100F03CFD001B0228F5D9032075
:100ACC005DE000205BE0002059E000BF00440258CC
:100ADC00004802580CFCFFFF30498A6A086B012B56
:100AEC004ED002F00303A16A8B424BD1C2F3051224
:100AFC00E36A9A4248D1C0F30802236B013B9A4245
:100B0C0044D1C0F34622636B013B9A4240D1C0F3FF
:100B1C000642A36B013B9A423CD1C0F30660E36BE7
:100B2C00013B984238D11D4B5B6BC3F3CC03A26CD9
:100B3C009A4201D1002022E0184AD36A23F0010323
:100B4C00D36200F0F5FC054600F0F2FCA842FBD0A5
:100B5C00124A536B6FF3CF03A16C43EAC103536387
:100B6C00D36A43F00103D362002008E001207047F0
:100B7C00012004E0012002E0012000E0002038BD4B
:100B8C000120FCE70120FAE70120F8E70120F6E755
:100B9C000120F4E70120F2E70120F0E700440258BD
:100BAC00754B1B6903F03803102B00F0DE80182BFB
:100BBC000FD0002B40F0DB806F4B1B6813F0200F25
:100BCC0000F0D7806C4B1B68C3F3C1036B48D84053
:100BDC00704710B4684B9A6A02F003029C6AC4F323
:100BEC000510D96A01F001015B6BC3F3CC0301FB67
:100BFC0003F307EE903AF8EE677A14F47C7F77D023
:100C0C00012A4AD0022A76D0002A40F091805A4B11
:100C1C001B6813F0200F23D057490A68C2F3C10296
:100C2C00564BD34007EE103AF8EE476A07EE100A1F
:100C3C00B8EE476A86EE867A0B6BC3F3080306EEB2
:100C4C00903AF8EE666A9FED4E6A67EE867A76EE1B
:100C5C00A77AF7EE006A77EEA67A27EE277A38E0C5
:100C6C0007EE100AF8EE476A9FED466A86EE267A82
:100C7C00414B1B6BC3F3080306EE903AF8EE666A21
:100C8C009FED3F6A67EE867A76EEA77AF7EE006AFA
:100C9C0077EEA67A27EE277A1BE007EE100AF8EE1D
:100CAC00476A9FED396A86EE267A334B1B6BC3F38A
:100CBC00080306EE903AF8EE666A9FED316A67EE2D
:100CCC00867A76EEA77AF7EE006A77EEA67A27EEAA
:100CDC00277A294B1B6BC3F34623013307EE903A5B
:100CEC00F8EE677AC7EE276AFCEEE67A17EE900A02
:100CFC005DF8044B704707EE100AF8EE476A9FED5B
:100D0C00236A86EE267A1C4B1B6BC3F3080306EE94
:100D1C00903AF8EE666A9FED1A6A67EE867A76EE7E
:100D2C00A77AF7EE006A77EEA67A27EE277AD0E755
:100D3C0007EE100AF8EE476A9FED136A86EE267AE4
:100D4C000D4B1B6BC3F3080306EE903AF8EE666A84
:100D5C009FED0B6A67EE867A76EEA77AF7EE006A5D
:100D6C0077EEA67A27EE277AB3E709487047094849
:100D7C0070470248704700BF004402580090D003EF
:100D8C00000000390024744C0024744A20BCBE4B73
:100D9C0040787D0100093D00002800F0328170B5DB
:100DAC000D4604469B4B1B6803F00F038B420BD282
:100DBC00984A136823F00F030B431360136803F076
:100DCC000F038B4240F01F81236813F0040F0CD0EB
:100DDC002269914B9B6903F070039A4205D98E49A5
:100DEC008B6923F070031A438A61236813F0080F90
:100DFC000CD06269884BDB6903F070039A4205D909
:100E0C008549CB6923F070031A43CA61236813F038
:100E1C00100F0CD0A269804BDB6903F4E0639A429B
:100E2C0005D97D49CB6923F4E0631A43CA61236871
:100E3C0013F0200F0CD0E269774B1B6A03F07003A0
:100E4C009A4205D974490B6A23F070031A430A625B
:100E5C00236813F0020F0CD0E2686F4B9B6903F010
:100E6C000F039A4205D96C498B6923F00F031A437F
:100E7C008A61236813F0010F41D0674A936923F408
:100E8C007063A1680B4393616368022B0AD0032B38
:100E9C0027D0012B2CD0604A126812F0040F06D117
:100EAC000120ADE0126812F4003F00F0AE805A4908
:100EBC000A6922F0070213430B6100F039FB064666
:100ECC00554B1B6903F038036268B3EBC20F16D0A5
:100EDC0000F02EFB801B41F288339842F0D903209E
:100EEC008EE04D4A126812F0007FE0D1012087E0BD
:100EFC00494A126812F4807FD9D1012080E023681E
:100F0C0013F0020F0CD0E268434B9B6903F00F0304
:100F1C009A4205D240498B6923F00F031A438A6128
:100F2C003C4B1B6803F00F03AB420AD9394A1368D8
:100F3C0023F00F032B431360136803F00F03AB4232
:100F4C0065D1236813F0040F0CD02269324B9B69D6
:100F5C0003F070039A4205D22F498B6923F070037A
:100F6C001A438A61236813F0080F0CD062692A4B6C
:100F7C00DB6903F070039A4205D22749CB6923F051
:100F8C0070031A43CA61236813F0100F0CD0A269C6
:100F9C00214BDB6903F4E0639A4205D21E49CB690D
:100FAC0023F4E0631A43CA61236813F0200F0CD0BA
:100FBC00E269194B1B6A03F070039A4205D2164979
:100FCC000B6A23F070031A430A62FFF7E9FD12491A
:100FDC008B69C3F30323114AD35C03F01F03D8407E
:100FEC008B6903F00F03D35C03F01F0320FA03F3A8
:100FFC000B4A13600B4B18600B4B186800F038F859
:10100C0070BD012070470120FAE70120F8E70120AC
:10101C00F6E700BF0020005200440258EC2A0008FA
:10102C0004000020080000201000002008B5FFF785
:10103C00B7FD0B4A9369C3F303230A49CB5C03F056
:10104C001F0320FA03F3926902F00F02885C00F090
:10105C001F0023FA00F0044A1060044A136008BD14
:10106C0000440258EC2A000804000020080000206C
:10107C0070B5C2B006460023419301222E923793DD
:10108C004FF480332F9303F513432C932EA8FFF7C3
:10109C0095FA054610B35DBB494B1C68CA236362C5
:1010AC0053236362A36823F48073A360E368DBB209
:1010BC0063F4C073E36000234193E36813F0010F02
:1010CC002ED1419A531C41933E4B1B683E49A1FBC8
:1010DC000313B2EB531FF0D10125EEE74FF480025E
:1010EC000023CDE90023684600F0AEFB054610B1A5
:1010FC00284642B070BD354A136F43F40043136762
:10110C002F48334B03600023436063228260092223
:10111C00C26003618361C36101F03EF90546BAE721
:10112C00002DE5D10123E361A36843F48073A36030
:10113C00A36843F48053A3604FF0B043D3F88020EE
:10114C0042F40032C3F880201A6842F400321A606C
:10115C001B4B1868C36813F0400F15D14FF0FF33C9
:10116C00C36000234193C36813F0400F0CD1419A24
:10117C00531C4193134B1B681349A1FB0313B2EB94
:10118C00531FF0D10125EEE7002DB1D100234360B0
:10119C0003600B4B1B68DA6822F08002DA60FF22D6
:1011AC005A62292000F01AFA0F2E01D901259FE767
:1011BC0000223146292000F001FA064B1E6097E709
:1011CC00B002002008000020ABAAAAAA00440258D2
:1011DC00004000581000002030B583B005460023B5
:1011EC00019300F099F92B68CA225A622B6853229A
:1011FC005A622B684FF0FF32DA602C68E36813F008
:10120C00400F0AD1019A531C01930B4B1B680B49DD
:10121C00A1FB0313B2EB531FEFD1002363602A68C9
:10122C0013602A68D36823F08003D3602B68FF22F5
:10123C005A6203B030BD00BF08000020ABAAAAAAB6
:10124C0008B5024801F017F808BD00BFB002002035
:10125C00DFF838D000F05EF900F006F90C480D49C3
:10126C000D4A002302E0D458C4500433C4188C42F5
:10127C00F9D30A4A0A4C002301E013600432A2425B
:10128C00FBD3FFF7B5F8FFF743F9704700000220D6
:10129C0000000020F8000020082B0008F8000020B7
:1012AC00D8020020FEE7000030B59DB0514B012163
:1012BC00196000221A619A61DA611A629A62DA6222
:1012CC001A664D4BC3F808114C4B5B6913F4003F85
:1012DC0012D1BFF34F8FBFF36F8F484BC3F850221F
:1012EC00BFF34F8FBFF36F8F5A6942F400325A61CC
:1012FC00BFF34F8FBFF36F8F404B5B6913F4803F8D
:10130C0027D13E4B0022C3F88420BFF34F8FD3F874
:10131C008040C4F34E3000E01846C4F3C90243F6D3
:10132C00E07303EA401343EA82733449C1F8603234
:10133C001346013A002BF2D1431E0028ECD1BFF327
:10134C004F8F4B6943F480334B61BFF34F8FBFF327
:10135C006F8F2A4AD2F89C3243F00403C2F89C32B5
:10136C004C22002109A8FEF7F1FF2022002101A840
:10137C00FEF7ECFF022000F035F900230093204B20
:10138C009A6922F440429A619B6903F440430093AA
:10139C00009B1B4B9B6913F4005FFAD0012209924E
:1013AC004FF480330A930223129313930521149163
:1013BC00D82115911693179318920425199500248A
:1013CC001A941B9409A8FFF7F9F83F230193032300
:1013DC0002930394082304934023059306934FF43C
:1013EC0080620792089329460DEB0500FFF7D4FCA9
:1013FC001DB030BD004402580080005100ED00E0EB
:10140C0000480258104B1B68104AA2FB03239B0C8C
:10141C0000FB03F3013B4FF0E02253610023936187
:10142C00136943F0010313614FF0E0231B6913F4BC
:10143C00803FF9D04FF0E0231A6922F001021A61C3
:10144C0000229A61704700BF0800002083DE1B4316
:10145C0038B50546002403E06420FFF7D3FF0134C0
:10146C00AC42F9D338BD0000224AD2F8883043F49C
:10147C007003C2F88830204B1B6803F00F03062B57
:10148C0006D81D4A136823F00F0343F007031360BB
:10149C001A4B1A6842F001021A6000221A6119688C
:1014AC00174A0A401A60144B1B6813F0080F06D039
:1014BC00114A136823F00F0343F0070313600F4B1B
:1014CC0000229A61DA611A620E4999620E49D96258
:1014DC000E4919635A639963DA6319645A6419687B
:1014EC0021F4802119601A66094B43F2D2021A606A
:1014FC00704700BF00ED00E000200052004402588D
:10150C007FEDF6EA000202020000FF0180020101F9
:10151C000040005270470000034B1B78034A1168CF
:10152C000B441360704700BF0C000020D402002055
:10153C00014B1868704700BFD4020020002807DB5D
:10154C0000F01F02400901239340024A42F8203068
:10155C00704700BF00E100E0002804DB0901C9B2BC
:10156C00044B1954704700F00F000901C9B2024B2B
:10157C001954704700E400E014ED00E000B500F0F1
:10158C000700C0F1070CBCF1040F28BF4FF0040C8E
:10159C00031D062B0FD9C31E4FF0FF3E0EFA0CF0A5
:1015AC0021EA000199400EFA03FE22EA0E0241EAFA
:1015BC0002005DF804FB0023EEE7000010B50446C2
:1015CC00054BD868C0F30220FFF7D8FF0146204630
:1015DC00FFF7C2FF10BD00BF00ED00E008B5FFF73C
:1015EC00ADFF08BD134BDB6813F0040F07D1114B93
:1015FC00DB6803F0070383421AD00120704710B553
:10160C000C4AD36823F007030343D360FFF790FF22
:10161C000446084B5B6813F4005F07D1FFF788FFA3
:10162C00001BB0F57A7FF4D9012000E0002010BD3A
:10163C000020704700480258404B9B6A03F003039C
:10164C00032B79D070B505460E463C4A136823F03F
:10165C0080631360FFF76CFF0446384B1B6813F074
:10166C00006F06D0FFF764FF031B022BF5D9032094
:10167C0070BD324B9A6A22F47C32296842EA0132FC
:10168C009A626A68013AC2F30802A96801394902F0
:10169C0089B20A43E9680139090401F4FE010A43DD
:1016AC0029690139090601F0FE410A439A63DA6A95
:1016BC0022F0C00269690A43DA62DA6A22F0200277
:1016CC00A9690A43DA62DA6A22F01002DA62DA6B8A
:1016DC006FF3CF02E96942EAC102DA63DA6A42F0D7
:1016EC001002DA62C6B91A46DB6A43F40023D362ED
:1016FC00124A136843F080631360FFF719FF044626
:10170C000E4B1B6813F0006F14D1FFF711FF001B79
:10171C000228F5D90320ABE7012E05D0074AD36A7E
:10172C0043F40013D362E3E7044AD36A43F480130F
:10173C00D362DDE700209BE701207047004402588C
:10174C00404B9B6A03F00303032B79D070B505461D
:10175C000E463C4A136823F080531360FFF7E8FEF3
:10176C000446384B1B6813F0005F06D0FFF7E0FE11
:10177C00031B022BF5D9032070BD324B9A6A22F061
:10178C007C72296842EA01529A626A68013AC2F391
:10179C000802A9680139490289B20A43E96801398A
:1017AC00090401F4FE010A4329690139090601F013
:1017BC00FE410A431A64DA6A22F4406269690A43F8
:1017CC00DA62DA6A22F40072A9690A43DA62DA6A26
:1017DC0022F48072DA625A6C6FF3CF02E96942EA42
:1017EC00C1025A64DA6A42F48072DA62C6B91A46E5
:1017FC00DB6A43F48003D362124A136843F08053CC
:10180C001360FFF795FE04460E4B1B6813F0005F48
:10181C0014D1FFF78DFE001B0228F5D90320ABE78E
:10182C00012E05D0074AD36A43F08073D362E3E7F5
:10183C00044AD36A43F40003D362DDE700209BE73C
:10184C000120704700440258F8B50446036813F0B1
:10185C00006F2FD0436EB3F5001F25D015D8E3B120
:10186C00B3F5801F0ED102210830FFF7E5FE0546C7
:10187C0075BB934A136D23F44013616E0B431365D0
:10188C00002619E00126354616E0B3F5401F01D1BC
:10189C000025EEE7012635460EE0894AD36A43F46B
:1018AC000033D3620025E4E702212830FFF748FF1C
:1018BC000546DDE700263546236813F4807F29D0E2
:1018CC00A36D042B22D8DFE803F005131A0A0A00D3
:1018DC002E46F1E77A4AD36A43F40033D362C5B992
:1018EC00774A136D23F00703A16D0B43136511E0C9
:1018FC00002104F10800FFF79FFE0546EFE70021E9
:10190C0004F12800FFF71CFF0546E8E701263546E1
:10191C0000E02E46236813F4806F2DD0D4F8A43049
:10192C00B3F5800F3DD00DD8C3B1B3F5001F06D170
:10193C00002104F10800FFF77FFE054613E00126A5
:10194C00354619E0B3F5000F0DD0B3F5200F0AD0D2
:10195C00B3F5C00F07D0012635460DE0584AD36ABF
:10196C0043F40033D3621DBB554A936D23F46003DB
:10197C00D4F8A4100B439365236813F4006F37D08D
:10198C00D4F8A830B3F1007F5ED016D80BB3B3F106
:10199C00807F0FD1002104F10800FFF74DFE0546B2
:1019AC001CE0002104F12800FFF7CAFE0546DAE727
:1019BC002E46E1E7012635461AE0B3F1806F0DD0D3
:1019CC00B3F1A06F0AD0B3F1407F07D001263546A2
:1019DC000EE03B4AD36A43F40033D362002D3AD174
:1019EC00374A936D23F0E063D4F8A8100B4393654A
:1019FC00236813F0007F13D0E36C202B35D02FD845
:101A0C0033B1102B29D12E4AD36A43F40033D3625D
:101A1C0095BB2B4AD36C23F03003E16C0B43D3649E
:101A2C00236813F4805F4ED0E36DB3F5005F3FD0B5
:101A3C0027D87BB3B3F5805F20D1002104F10800D7
:101A4C00FFF7FAFD05462AE0002104F12800FFF714
:101A5C0077FE0546C2E72E46CAE701263546DFE784
:101A6C00302BD5D001263546DAE7022104F10800E7
:101A7C00FFF7E2FD0546CBE72E46D1E701263546BA
:101A8C0021E0B3F5405F0AD0B3F5804F07D00126B3
:101A9C00354618E00A4AD36A43F40033D3628DB951
:101AAC00074A136D23F4E043E16D0B4313650AE021
:101ABC00002104F12800FFF743FE0546EFE700BFC5
:101ACC00004402582E46236813F4005F17D0236E8F
:101ADC00B3F5003F4FD042D843B1B3F5803F3BD173
:101AEC00012104F10800FFF7A7FD0546002D49D19F
:101AFC00924A136D23F4E023216E0B431365236884
:101B0C0013F4804F19D0D4F8AC30B3F1005F4AD045
:101B1C003DD843B1B3F1805F36D1012104F1080007
:101B2C00FFF78AFD0546002D44D1844A936D23F0BE
:101B3C00E043D4F8AC100B439365236813F4004FC7
:101B4C0047D0E36EB3F1805F36D0B3F1005F4BD07A
:101B5C00BBB3012635463CE001263546CFE7B3F54D
:101B6C00802FC3D0B3F5A02FC0D0B3F5403FBDD06C
:101B7C0001263546C3E7012104F12800FFF7E0FDFB
:101B8C000546B3E72E46BAE701263546D5E7B3F14D
:101B9C00804FC8D0B3F1A04FC5D0B3F1405FC2D0D5
:101BAC0001263546C9E7012104F12800FFF7C8FDDD
:101BBC000546B8E72E46C0E7604AD36A43F40033C3
:101BCC00D362C5B95D4A136D23F04053E16E0B43EC
:101BDC001365236813F0807F1CD0A36C032B44D8AF
:101BEC00DFE803F0100B3C10012104F10800FFF7B3
:101BFC0023FD0546E5E72E46EBE7504AD36A43F44E
:101C0C000033D362A5BB4D4AD36C23F00303A16C04
:101C1C000B43D364236813F4800F2BD1236813F088
:101C2C00010F00F0A980A36F282B00F2A380DFE83E
:101C3C0003F091A1A1A1A1A1A1A18BA1A1A1A1A1FD
:101C4C00A1A19AA1A1A1A1A1A1A191A1A1A1A1A18F
:101C5C00A1A191A1A1A1A1A1A1A19100022104F195
:101C6C000800FFF7E9FC0546CCE701263546D1E72D
:101C7C002E46CFE7324A136843F480731360FFF7A4
:101C8C0057FC07462E4B1B6813F4807F05D1FFF7DA
:101C9C004FFCC01B6428F5D90325002D4AD1274BD6
:101CAC001B6FD4F8B020534013F4407F0CD0234B5F
:101CBC001A6F22F44072196F41F480311967196F51
:101CCC0021F4803119671A67D4F8B030B3F5807FEE
:101CDC0015D08DBBD4F8B03003F44072B2F5407F10
:101CEC001ED0164A136923F47C53136113490B6FEE
:101CFC00D4F8B020C2F30B0213430B678EE7FFF747
:101D0C0017FC07460D4B1B6F13F0020FE1D1FFF7C9
:101D1C000FFCC01B41F288339842F3D90325D8E756
:101D2C000648026922F47C52064901EA1313134354
:101D3C000361DBE72E4671E72E466FE7004402583D
:101D4C0000480258CFFFFF00012104F10800FFF703
:101D5C0073FC0546E5B9B14A536D23F03803A16F06
:101D6C000B43536508E0012104F12800FFF7E8FC60
:101D7C000546EFE701263546236813F0020F17D00E
:101D8C00636F052B29D8DFE803F00B05210B0B0B38
:101D9C002E46F1E7012104F10800FFF74DFC054642
:101DAC00F5B99E4A536D23F00703616F0B435365DE
:101DBC00236813F0040F26D0D4F89030052B00F2D2
:101DCC00D680DFE803F0150FCD151515012104F1B0
:101DDC002800FFF7B5FC0546E2E701263546E7E7A4
:101DEC002E46E5E7012104F10800FFF725FC054626
:101DFC00002D40F0BF80894A936D23F00703D4F87F
:101E0C0090100B439365236813F0200F1DD0D4F86A
:101E1C008C30B3F1005F00F0C18000F2B0804BB1A8
:101E2C00B3F1805F40F0A880002104F10800FFF7B7
:101E3C0003FC0546002D40F0B880784A536D23F022
:101E4C00E043D4F88C100B435365236813F0400F18
:101E5C001DD0D4F89830B3F5006F00F0BA8000F2C2
:101E6C00A9804BB1B3F5806F40F0A180002104F143
:101E7C000800FFF7E1FB0546002D40F0B180674AF2
:101E8C00936D23F4E053D4F898100B4393652368B7
:101E9C0013F0800F1DD0D4F89C30B3F5804F00F0B8
:101EAC00B38000F2A2804BB1B3F5005F40F09A8092
:101EBC00002104F10800FFF7BFFB0546002D40F0A0
:101ECC00AA80564A936D23F46043D4F89C100B43BC
:101EDC009365236813F0080F0DD0D4F88030B3F558
:101EEC00805F00F09D804D4A536D23F44053D4F82D
:101EFC0080100B435365236813F0100F0DD0D4F8EA
:101F0C009430B3F5807F00F09580444A936D23F4B0
:101F1C004073D4F894100B439365236813F4002F8B
:101F2C0000F09D80D4F8A030B3F5803F00F08C8099
:101F3C00B3F5003F08D0002B40F08D80002104F158
:101F4C000800FFF779FB0546002D40F08780334AE7
:101F5C00936D23F44033D4F8A0100B4393657EE0CB
:101F6C00012104F12800FFF7EBFB054640E70126B1
:101F7C00354648E72E4646E70126354665E7B3F178
:101F8C00804F3FF457AFB3F1A04F3FF453AFB3F1D1
:101F9C00405F3FF44FAF0126354656E7022104F16E
:101FAC002800FFF7CDFB054644E72E464DE70126FA
:101FBC0035466CE7B3F5805F3FF45EAFB3F5A05FD9
:101FCC003FF45AAFB3F5406F3FF456AF0126354698
:101FDC005DE7022104F12800FFF7B2FB05464BE751
:101FEC002E4654E70126354673E7B3F5004F3FF410
:101FFC0065AFB3F5204F3FF461AFB3F5C04F3FF47D
:10200C005DAF0126354664E7022104F12800FFF795
:10201C0097FB054652E72E465BE700BF004402588B
:10202C00022104F12800FFF78BFB00283FF45BAF83
:10203C00012658E7022104F12800FFF781FB002854
:10204C003FF463AF012660E7022104F12800FFF79B
:10205C0077FB054678E70126354600E02E462368D7
:10206C0013F4802F24D0D4F88430B3F5001F14D08F
:10207C00B3F5401F07D0B3F5801F15D17C4AD36A46
:10208C0043F40033D36295B9794A536D23F440136A
:10209C00D4F884100B4353650AE0012104F12800A5
:1020AC00FFF74EFB0546EEE70126354600E02E46CF
:1020BC00236813F4803F06D0236DCBB1B3F5803F7A
:1020CC0024D001263546236813F0005F27D12368FE
:1020DC0013F4003F3DD0E36FB3F5807F2BD027D9AD
:1020EC00B3F5007F2CD0B3F5407F29D0012630E02A
:1020FC005F4AD36A43F40033D36275B95C4AD36C3C
:10210C0023F48033216D0B43D364DCE7022104F10B
:10211C000800FFF791FA0546EFE72E46D3E70221B8
:10212C0004F12800FFF70CFB0028D0D00126CEE7E5
:10213C0033B101260DE04E4AD36A43F40033D36227
:10214C00002D5CD14A4A536D23F44073E16F0B436D
:10215C005365236813F4801F06D0454A136D23F092
:10216C000043216F0B431365236813F4001F06D043
:10217C003F4A136D23F08073A16E0B4313652368E4
:10218C0013F0804F09D03A4B1A6922F400421A61BD
:10219C001A69D4F8B4100A431A612368002B06DAC2
:1021AC00334AD36C23F04053616D0B43D3642368E3
:1021BC0013F4000F07D02E4A536D23F44003D4F8C8
:1021CC0088100B435365636813F0010F19D16368D2
:1021DC0013F0020F1ED1636813F0040F23D1636850
:1021EC0013F0080F28D1636813F0100F2DD163681A
:1021FC0013F0200F32D106B101263046F8BD2E4621
:10220C00A7E7002104F10800FFF716FA0028DED03A
:10221C000646DCE7012104F10800FFF70DFA00285F
:10222C00D9D00646D7E7022104F10800FFF704FADB
:10223C000028D4D00646D2E7002104F12800FFF78D
:10224C007FFA0028CFD00646CDE7012104F1280003
:10225C00FFF776FA0028CAD00646C8E7022104F137
:10226C002800FFF76DFA0028C5D00126C5E700BF8E
:10227C0000440258704710B504464FF0B0434FF479
:10228C000032C3F8882003689A6812F4805F03D088
:10229C00DA6812F4807F0CD123689A6812F4005F1C
:1022AC0003D0DA6812F4007F0BD1012384F82130BB
:1022BC0010BDDA68D2B262F4C072DA60FEF78CFF3D
:1022CC00EAE7DA68D2B262F42072DA60204600F0F3
:1022DC00B5F8EAE738B5044603680A4ADA60FFF74E
:1022EC0027F905462368DB6813F0200F07D1FFF7A9
:1022FC001FF9401BB0F57A7FF4D9032000E00020D1
:10230C0038BD00BF5FFF030070B50368DA6812F0D8
:10231C00400F02D00025284670BD04464FF0FF3216
:10232C00DA60FFF705F9064600252368DB6813F031
:10233C00400FF0D1032DEED0FFF7FAF8831BB3F565
:10234C007A7FF2D9032584F82150EEE710B50446C4
:10235C00104BDA6822F08002DA609B6813F0200FD1
:10236C0006D1FFF7B7FF98B1032084F821000FE0E6
:10237C00084A936823F020039360FFF7ABFF10B17A
:10238C00032084F82100034A936843F020039360F0
:10239C0010BD00BF0040005800284BD038B5044693
:1023AC0090F8213063B1022384F821302368DA6875
:1023BC0012F0100F09D00020012384F8213038BD11
:1023CC0080F82030FFF756FFEDE7CA225A622368E7
:1023DC0053225A622046FFF797FF28B12368FF2249
:1023EC005A620028EBD1E7E722689168124B0B4048
:1023FC00936021688A68636820690343A06903437A
:10240C0013438B60A168E368226843EA01431361BC
:10241C002046FFF79BFF0028E0D12268D36C23F005
:10242C000303D3642168CB6CE26965692A431343C7
:10243C00CB64D3E701207047BFFF8FFF70470000CC
:10244C00004870471400002030B4046821684368C9
:10245C005A00032303FA02F221EA02022260046802
:10246C002268816845684FEA450C01FA0CF10A4371
:10247C0022600468A1684268520003FA02F221EA61
:10248C000202A2600468A268016945684FEA450C23
:10249C0001FA0CF10A43A2600468E2684168490041
:1024AC008B4022EA0303E3600468E368C268416876
:1024BC0049008A401343E36001684B684468012279
:1024CC00A24023EA02034B6001684B6842694068F2
:1024DC00824013434B6030BC704710B44368072BE9
:1024EC0013D80468226A9B000F2101FA03F322EA35
:1024FC00030323620468236A8269416889008A4065
:10250C00134323625DF8044B70470468626A083B0E
:10251C009B000F2101FA03F322EA030363620468B0
:10252C00626A81694368083B9B0001FA03F3134319
:10253C006362E7E739B101684B6940680122824068
:10254C0013434B61704701684B694068012282401C
:10255C0023EA02034B61704770B4754BD3F8E0204B
:10256C00C16A0A43C3F8E020D3F8E820816A0A4321
:10257C00C3F8E820002329E0D210083255F8224095
:10258C00D3F1000C03F007010CF0070C58BFCCF191
:10259C00000189004FF00F0C0CFA01FC24EA0C042A
:1025AC0045F82240056B55F82240866D06FA01F17C
:1025BC00214345F82210046B62680121994022EAFC
:1025CC0001026260026B5168516001330F2B31DCE8
:1025DC0003F1180200EB42029288002AF5D0056B39
:1025EC0029685C000322A24021EA02012960056BE4
:1025FC0029684FF0020C0CFA04FC41EA0C0129602A
:10260C00056BA96821EA0201A960056BA968114351
:10261C00A960056BE96821EA0202EA60056BEA68C9
:10262C000121A1400A43EA60056B1A46002BA3DA8C
:10263C00DA1DA1E703684268DA62036882689A626D
:10264C0000230AE0027E012A1AD0022A1ED0016859
:10265C000A6A42F001020A620133032B61DCC218E0
:10266C00127D002AF8D0032BF6D801A252F823F0E1
:10267C0051260008A5260008D326000801270008CB
:10268C0001688A6942F060028A61E0E701688A6940
:10269C0042F070028A61DAE7027E012A07D0022A30
:1026AC000BD001680A6A42F010020A62D4E7016892
:1026BC008A6942F4C0428A61F3E701688A6942F48C
:1026CC00E0428A61EDE7027E012A07D0022A0BD094
:1026DC0001680A6A42F480720A62BDE70168CA693D
:1026EC0042F06002CA61F3E70168CA6942F0700205
:1026FC00CA61EDE7027E012A07D0022A0BD00168DD
:10270C000A6A42F480520A62A6E70168CA6942F476
:10271C00C042CA61F3E70168CA6942F4E042CA6187
:10272C00EDE70268136843F08103136070BC7047D7
:10273C000044025870B500210F2978DC01F10C031C
:10274C0030F81330002B72D085682C685B000322A4
:10275C0002FA03F324EA03032B608668346801F160
:10276C000C0330F813C04FEA4C0C022505FA0CF59B
:10277C002C4334608568AC6830F813C04FEA4C0CBD
:10278C0002FA0CFC24EA0C04AC608568AC6830F8E6
:10279C0013C04FEA4C0C02FA0CFC44EA0C04AC607B
:1027AC008668F46830F813506D00AA4024EA0202DF
:1027BC00F2608568EC6830F8132052004FF0010C81
:1027CC000CFA02F22243EA60866830F813204FEAD2
:1027DC00D20E0EF1080E56F82E4002F007029200AF
:1027EC000F2505FA02F224EA020246F82E2085682B
:1027FC0030F813204FEAD20E0EF1080E55F82E4089
:10280C0002F007029200066C06FA02F2224345F827
:10281C002E208468626830F813300CFA03FC22EA2C
:10282C000C02626083685A685A60013184E743681D
:10283C005B0807EE903AF8EE677A9FED177A77EE21
:10284C00877A90ED017AB8EE477AC7EE876AFCEE8C
:10285C00E66A0368C3ED036A0268136843F0010378
:10286C0013600268136823F0102313600268136866
:10287C0023F4806313600268136843F02003136031
:10288C000268536823F4405353600268136843F0A2
:10289C000C03136070BD00BFFCBE004D1349CA6829
:1028AC0022F4E0621204120C114B1343CB60114B57
:1028BC001A6842F080521A6093F81C23D2B283F843
:1028CC001C235A6842F020025A6093F8252342F0E8
:1028DC00100283F825235A6842F040025A6093F89C
:1028EC00262342F0200283F82623704700ED00E0F7
:1028FC000003FA0500E100E010B588B004460C4A6C
:10290C00D2F8E03043F04003C2F8E030094B0193B9
:10291C00072302930121039100230693049305934B
:10292C00836901A89847236901A8984708B010BD8E
:10293C00004402580018025800B585B0054B0193AD
:10294C00072302938369002101A8984705B05DF81D
:10295C0004FB00BF0018025800B585B0064B01936C
:10296C000723029300238DF80C308369012101A801
:10297C00984705B05DF804FB0018025800B599B0F3
:10298C000E4B01930E4B0D930123ADF83830ADF87F
:10299C003A30022217920B920C9242F22732029298
:1029AC001D2203928DF81B308DF81A308DF81C30D7
:1029BC00C36D01A8984719B05DF804FB00040040F2
:1029CC00000402580F4AD2F8E83043F00103C2F871
:1029DC00E8300C4BD3F8E83013F0020FF9D0642335
:1029EC0000FB03F3013B4FF08042D36240F68B2394
:1029FC009362D36843F00103D360136843F001037F
:102A0C00136070470044025800B593B0154BD3F8CF
:102A1C00E02042F00102C3F8E020D3F8F02042F0AD
:102A2C001002C3F8F02003F16843A3F59A33009326
:102A3C004FF4E13301930C4B0293022303930023D5
:102A4C000493032305930923ADF818300A23ADF83A
:102A5C001A3007231093436D6846984713B05DF8FE
:102A6C0004FB00BF004402580000025800B593B0AC
:102A7C00124BD3F8E02042F00202C3F8E020D3F866
:102A8C00E82042F40032C3F8E8200D4B00934FF4D9
:102A9C00E13301930B4B0293022203920023049324
:102AAC0003230593ADF81820ADF81A3007231093C3
:102ABC00436D6846984713B05DF804FB0044025818
:102ACC000044004000000258F8B500BFF8BC08BC38
:102ADC009E467047F8B500BFF8BC08BC9E467047D0
:102AEC0000000000000000000102030406070809B2
:082AFC00550400083503000831
:042B04000D030008B5
:102B0800140100200090D0030090D00301000000C1
:102B180010000000111400085D14000800000000F7
:102B28000000000055240008E7240008412500089B
:102B3800000000000000000000000000000000008D
:102B4800000000000000000000000000000000007D
:102B5800000000000000000000000000000000006D
:102B680000000000000000004127000800000000ED
:102B780065250008000000000000000000000000BB
:102B8800000000000000000000000000000000003D
:102B9800000000000000000000000000000000002D
:102BA800000000000000000000000000000000001D
:102BB800000000000000000000000000000000000D
:102BC80000000000000000000000000000000000FD
:102BD80000000000000000000000000000000000ED
:102BE80000000000000000000000000000000000DD
:082BF80000000000B512000806
:040000050800125D80
:00000001FF
