:020000040800F2
:1000000000000220A11E00080D1F00080D1F00089F
:100010000D1F00080D1F00080D1F00080000000044
:100020000000000000000000000000000D1F00089C
:100030000D1F000800000000E1450008651D0008D4
:100040000D1F00080D1F00080D1F00080D1F0008E0
:100050000D1F00080D1F00080D1F00080D1F0008D0
:100060000D1F00080D1F00080D1F00080D1F0008C0
:100070000D1F00080D1F00080D1F00080D1F0008B0
:100080000D1F00080D1F00080D1F00080D1F0008A0
:100090000D1F00080D1F00080D1F00080D1F000890
:1000A0000D1F00080D1F00080D1F00080D1F000880
:1000B000D11D00080D1F00080D1F00080D1F0008AE
:1000C0000D1F00080D1F00080D1F00080D1F000860
:1000D0000D1F0008F51D0008251E0008511E000810
:1000E0000D1F0008492F0008000000000D1F000828
:1000F0000D1F00080D1F00080D1F00080D1F000830
:100100000D1F00080D1F00080D1F00080D1F00081F
:100110000D1F00080D1F00080D1F00080D1F00080F
:100120000D1F00080D1F00080D1F00080D1F0008FF
:100130000D1F00080D1F00080D1F00080D1F0008EF
:1001400000000000000000000000000000000000AF
:100150000D1F00080D1F00080D1F00080D1F0008CF
:100160000D1F00080D1F00080D1F00080D1F0008BF
:100170000D1F00080D1F00080D1F000800000000E3
:100180000D1F00080D1F00080D1F00080D1F00089F
:100190000D1F00080D1F00080D1F00080D1F00088F
:1001A0000D1F00080D1F00080D1F000800000000B3
:1001B0000D1F00080D1F00080D1F00080D1F00086F
:1001C0000D1F00080D1F00080000000000000000C7
:1001D00000000000000000000D1F000800000000EB
:1001E000000000000000000000000000000000000F
:1001F00000000000000000000D1F00080D1F000897
:100200000D1F00080D1F0008000000000D1F000852
:100210000D1F00080D1F00080D1F00080D1F00080E
:100220000D1F0008000000000D1F00080000000066
:100230000D1F00080D1F0008000000000D1F000822
:100240000D1F00080D1F00080D1F00080D1F0008DE
:100250000D1F00080D1F00080D1F00080D1F0008CE
:100260000D1F00080D1F00080D1F00080D1F0008BE
:100270000D1F00080D1F00080D1F000800000000E2
:100280000D1F00080D1F00080D1F00080D1F00089E
:10029000000000000D1F00080D1F000800000000F6
:1002A000000000000D1F00080D1F00080D1F0008B2
:1002B0000D1F00080D1F00080D1F00080D1F00086E
:0C02C0000D1F00080D1F00080D1F000896
:1003000002780B78012A28BF9A4240F0D8806DE924
:10031000044540EA0104CDE902676FF0000C4FEAA2
:1003200044721AB380EA010414F0070F6BD100F095
:10033000070420F0070004F0030521F007014FEA4D
:10034000C505F0E8042314F0040FF1E804670CFA83
:1003500005F462EA040266EA04060BD063EA0403C9
:10036000624667EA0407664604E000BFF0E804233B
:10037000F1E8046782FA4CF582EA0604A4FA8CF4E8
:100380006CBB83FA4CF583EA0705A5FA8CF595B9A1
:1003900050E9022351E9026782FA4CF582EA060429
:1003A000A4FA8CF483FA4CF583EA0705A5FA8CF5D8
:1003B0002543DBD09CB92DBAB5FA85F424F00704A7
:1003C00027FA04F1DDE9026723FA04F303F0FF00E2
:1003D00001F0FF01FDE80445A0EB0100704724BADD
:1003E000B4FA84F424F0070426FA04F1DDE9026784
:1003F00022FA04F202F0FF0001F0FF01FDE80445DB
:10040000A0EB0100704714F0030F3CD110F003047F
:1004100028D150F8082B51F8083B82FA4CF582EAB3
:100420000305A5FA8CF55DB950F8042C51F8043C8D
:1004300082FA4CF582EA0305A5FA8CF5002DE8D086
:100440002DBAB5FA85F424F0070423FA04F122FA50
:1004500004F202F0FF0001F0FF01FDE80445A0EB0B
:10046000010070474FEAC40420F0030050F8082B45
:1004700021F0030151F8083B0CFA04F462EA04028B
:1004800063EA0403C9E710F003041DD0A1EB0401E3
:1004900020F00300E40750F8042B06D012D28B782A
:1004A0005FFAA2F4E41A06D12BB1CB785FFAB2F46A
:1004B000E41A00D133B920465DF8104B7047A2EB27
:1004C0000300704701F1040150F8042BCC0721F020
:1004D000030151F8043B48D824D222F07F4482FA29
:1004E0004CF594EA1325A5FA8CF50AD165B951F8B3
:1004F000043B84EA0204B4EB036F0ED150F8042BE2
:10050000EBE74FEA132355E035F07F454DD10878EE
:10051000FDE80445C0F1000070474FEA126203F0A5
:10052000FF0347E002EA1C4482FA4CF594EA1345C3
:10053000A5FA8CF50AD165B951F8043B84EA0204A6
:10054000B4EB034F0CD150F8042BEBE74FEA134305
:1005500030E015EA1C4528D10B884FEA124229E009
:100560004FEA124203EA1C4324E002F0FF0482FA3D
:100570004CF594EA1365A5FA8CF50AD165B951F8E2
:10058000043B84EA0204B4EB032F09D150F8042B96
:10059000EBE74FEA13630DE015F0FF0F05D10B6891
:1005A0004FEA122223F07F4304E04FF00000FDE801
:1005B0000445704712BA1BBA82FA4CF482EA03046B
:1005C000A4FA8CF5B5FA85F402FA04F203FA04F3FE
:1005D0004FEA1260FDE80445A0EB1360704700BFCE
:1005E000844641EA000313F003036DD1403A41D33E
:1005F00051F8043B40F8043B51F8043B40F8043BFD
:1006000051F8043B40F8043B51F8043B40F8043BEC
:1006100051F8043B40F8043B51F8043B40F8043BDC
:1006200051F8043B40F8043B51F8043B40F8043BCC
:1006300051F8043B40F8043B51F8043B40F8043BBC
:1006400051F8043B40F8043B51F8043B40F8043BAC
:1006500051F8043B40F8043B51F8043B40F8043B9C
:1006600051F8043B40F8043B51F8043B40F8043B8C
:10067000403ABDD2303211D351F8043B40F8043B2C
:1006800051F8043B40F8043B51F8043B40F8043B6C
:1006900051F8043B40F8043B103AEDD20C3205D33C
:1006A00051F8043B40F8043B043AF9D2043208D034
:1006B000D2071CBF11F8013B00F8013B01D30B88A6
:1006C00003806046704700BF082A13D38B078DD084
:1006D00010F003038AD0C3F10403D21ADB071CBF56
:1006E00011F8013B00F8013B80D331F8023B20F8C0
:1006F000023B7BE7043AD9D3013A11F8013B00F8F9
:10070000013BF9D20B7803704B7843708B78837080
:10071000604670470000000000000000000000007C
:1007200000000000000000000000000000000000C9
:1007300000000000000000000000000000000000B9
:1007400030B490F800F020F007016FF0000C10F0CA
:10075000070491F820F040F048804FF000046FF05B
:100760000700D1E9002391F840F000F1080082FA77
:100770004CF2A4FA8CF283FA4CF3A2FA8CF34BBB42
:10078000D1E9022382FA4CF200F10800A4FA8CF2BB
:1007900083FA4CF3A2FA8CF3E3B9D1E9042382FA89
:1007A0004CF200F10800A4FA8CF283FA4CF3A2FA9E
:1007B0008CF37BB9D1E9062301F1200182FA4CF2D6
:1007C00000F10800A4FA8CF283FA4CF3A2FA8CF33D
:1007D000002BC6D0002A04BF04301A4612BAB2FA5F
:1007E00082F200EBD20030BC7047D1E9002304F064
:1007F0000305C4F100004FEAC50514F0040F91F899
:1008000040F00CFA05F562EA05021CBF63EA050335
:1008100062464FF00004AAE700000000000000005C
:1008200001F0FF01102A2BDB10F0070F08D010F8A1
:10083000013B013A8B422DD010F0070F42B3F6D1A5
:10084000F0B441EA012141EA014122F007047FF0BE
:1008500000070023F0E80256083C85EA010586EA15
:10086000010685FA47F5A3FA87F586FA47F6A5FA51
:1008700087F68EB9EED1F0BC01F0FF0102F007025D
:1008800032B110F8013B013A83EA010313B1F8D108
:100890000020704701387047002D06BF35460338E9
:1008A000073815F0010F07D1013015F4807F02BF22
:1008B000013015F4C03F0130F0BC0138704700BF73
:1008C00081F0004102E000BF83F0004330B54FEA01
:1008D00041044FEA430594EA050F08BF90EA020F6E
:1008E0001FBF54EA000C55EA020C7FEA645C7FEA01
:1008F000655C00F0E2804FEA5454D4EB5555B8BF24
:100900006D420CDD2C4480EA020281EA030382EA94
:10091000000083EA010180EA020281EA0303362D26
:1009200088BF30BD11F0004F4FEA01314FF4801CF9
:100930004CEA113102D0404261EB410113F0004F0B
:100940004FEA03334CEA133302D0524263EB4303C2
:1009500094EA050F00F0A780A4F10104D5F1200E60
:100960000DDB02FA0EFC22FA05F2801841F10001BB
:1009700003FA0EF2801843FA05F359410EE0A5F18F
:1009800020050EF1200E012A03FA0EFC28BF4CF0C0
:10099000020C43FA05F3C01851EBE37101F0004576
:1009A00007D54FF0000EDCF1000C7EEB00006EEB83
:1009B0000101B1F5801F1BD3B1F5001F0CD349080D
:1009C0005FEA30004FEA3C0C04F101044FEA445264
:1009D00012F5800F80F09A80BCF1004F08BF5FEAEB
:1009E000500C50F1000041EB045141EA050130BDCB
:1009F0005FEA4C0C404141EB0101013C28BFB1F5DD
:100A0000801FE9D291F0000F04BF01460020B1FA27
:100A100081F308BF2033A3F10B03B3F120020CDAFA
:100A20000C3208DD02F1140CC2F10C0201FA0CF0D8
:100A300021FA02F10CE002F11402D8BFC2F1200C3D
:100A400001FA02F120FA0CFCDCBF41EA0C019040F3
:100A5000E41AA2BF01EB0451294330BD6FEA04043C
:100A60001F3C1CDA0C340EDC04F11404C4F1200227
:100A700020FA04F001FA02F340EA030021FA04F339
:100A800045EA030130BDC4F10C04C4F1200220FA90
:100A900002F001FA04F340EA0300294630BD21FACE
:100AA00004F0294630BD94F0000F83F4801306BF94
:100AB00081F480110134013D4EE77FEA645C18BF88
:100AC0007FEA655C29D094EA050F08BF90EA020F1F
:100AD00005D054EA000C04BF1946104630BD91EA17
:100AE000030F1EBF0021002030BD5FEA545C05D11A
:100AF0004000494128BF41F0004130BD14F5800459
:100B00003CBF01F5801130BD01F0004545F0FE41CC
:100B100041F470014FF0000030BD7FEA645C1ABF01
:100B2000194610467FEA655C1CBF0B46024650EA38
:100B3000013406BF52EA033591EA030F41F4002164
:100B400030BD00BF90F0000F04BF0021704730B5EA
:100B50004FF4806404F132044FF000054FF00001BF
:100B600050E700BF90F0000F04BF0021704730B580
:100B70004FF4806404F1320410F0004548BF404255
:100B80004FF000013EE700BF42004FEAE2014FEAAA
:100B900031014FEA02701FBF12F07F4393F07F4F85
:100BA00081F06051704732F07F4208BF704793F088
:100BB0007F4F04BF41F40021704730B54FF460749B
:100BC00001F0004521F000411CE700BF50EA01029E
:100BD00008BF704730B54FF000050AE050EA010247
:100BE00008BF704730B511F0004502D5404261EBB7
:100BF00041014FF4806404F132045FEA915C3FF4F8
:100C0000D8AE4FF003025FEADC0C18BF03325FEA94
:100C1000DC0C18BF033202EBDC02C2F1200300FA45
:100C200003FC20FA02F001FA03FE40EA0E0021FA6A
:100C300002F11444BDE600BF0348044B834202D0D6
:100C4000034B03B118477047B4080020B4080020D4
:100C5000000000000548064B1B1AD90F01EBA30149
:100C6000491002D0034B03B118477047B408002065
:100C7000B40800200000000010B5064C237843B9EA
:100C8000FFF7DAFF044B13B10448AFF300800123F0
:100C9000237010BDB80800200000000050EB0008D1
:100CA00008B5054B1BB105490548AFF30080BDE809
:100CB0000840FFF7CFBF00BF00000000BC080020C5
:100CC00050EB0008024A0349034800F0C9B800BFCE
:100CD000000000202D190008100000200C4B416876
:100CE000994210B5044601D000F020FEA168094BDE
:100CF000994202D0204600F019FEE168064B994265
:100D000004D02046BDE8104000F010BE10BD00BF6A
:100D1000D40800203C090020A40900202DE9F84354
:100D2000314A324C3249DFF8DC90DFF8DC80314F59
:100D30001160002504232946082204F15C00C4E95F
:100D400003352D4EA560C4E90055C4E90555656617
:100D500000F0F0F804F15800C4E90749C4E9098734
:100D6000E66200F0B5F92946244B6367082204F1D6
:100D7000C400C4E91A55C4E91E552567C4F8CC500F
:100D8000C4F8805000F0D6F804F1680304F1C00004
:100D9000C4F88430C4E92298C4E9247600F098F9B4
:100DA000174BC4F8DC30294604F596700822C4E9D4
:100DB0003455C4E93855C4F8D850C4F83451C4F88F
:100DC000E85000F0B7F804F1D003C4E93D87C4F857
:100DD000F09004F59470C4F8FC60C4F8EC30BDE801
:100DE000F84300F075B900BF0C0A0020D4080020B9
:100DF000C50C0008090F00082D0F000809000100AC
:100E000012000200A50E0008C90E000810B5044625
:100E10000A4800F061F9636B23B9094B094A1B6862
:100E2000626323B1BDE81040044800F057B9FFF7F2
:100E300075FFBDE81040014800F050B91C0A0020C1
:100E40000C0A0020DD0C0008014800F045B900BF85
:100E50001C0A0020014800F041B900BF1C0A002014
:100E60002DE9F8430746884616464FF00009D6E9B3
:100E70000154013D10D4A389012B08D9B4F90E30D7
:100E800001332146384602D0C04749EA0009013DF6
:100E90006B1C04F16804EED13668002EE7D1484699
:100EA000BDE8F88310B50C46B1F90E1000F0BCF89F
:100EB000002803DB236D0344236510BDA38923F4BD
:100EC0008053A38110BD00BF2DE9F0410C46B1F95C
:100ED0000C101F46CB05054616460BD421F4805155
:100EE000A1813B46B4F90E1032462846BDE8F041D8
:100EF00000F0B0B8B4F90E100223002200F07EF822
:100F0000B4F90C10EAE700BF10B50C46B1F90E10A9
:100F100000F074F8B4F90C30421C0EBF23F4805377
:100F200043F480532065A38110BD00BFB1F90E10BA
:100F300000F052B8830730B547D0541E002A3ED087
:100F4000CAB2034601E0013C39D303F8012B9D07E7
:100F5000F9D1032C2CD9CDB205EB05250F2C05EBCF
:100F6000054535D9A4F1100222F00F0C03F1100E43
:100F7000E6444FEA121C1A46C2E90055C2E902557E
:100F800010327245F8D10CF1010214F00C0F03EB92
:100F9000021204F00F0C13D0ACF1040323F003038E
:100FA0000433134442F8045B9342FBD10CF0030476
:100FB0002CB1C9B21C4403F8011BA342FBD130BDC4
:100FC00064461346002CF4D1F9E703461446C0E703
:100FD0001A46A446E0E700BF38B5074D0022044694
:100FE00008462A6001F0DEF8431C00D038BD2B68AB
:100FF000002BFBD0236038BD100A002038B50C460A
:10100000084D8446114620461A4600232B6064464C
:1010100001F0D2F8431C00D038BD2B68002BFBD068
:10102000236038BD100A002038B50C46084D8446B0
:10103000114620461A4600232B60644601F08EF8C4
:10104000431C00D038BD2B68002BFBD0236038BD7B
:10105000100A002038B50C46084D8446114620463B
:101060001A4600232B60644601F088F8431C00D028
:1010700038BD2B68002BFBD0236038BD100A002040
:1010800070B50F4B0F4DAB42A3EB050607D0B61062
:10109000002455F8043B01349847A642F9D80DF0D6
:1010A00057FD094D094B5E1BAB424FEAA60606D021
:1010B000002455F8043B01349847A642F9D870BD86
:1010C00020FC000820FC000820FC000828FC000888
:1010D000704700BF704700BF704700BF704700BF38
:1010E000024B13B1024800F005B870470000000041
:1010F000111C0008002301461A46184600F0AABD3C
:101100002DE9F84306460820894600F095FDDFF8F2
:10111000A4800546304600F0FDFBD8F808305F6833
:1011200027F00307A7F11104A4EB09042C44B4FB36
:10113000F5F4013C05FB04F4A54208DC002130462F
:1011400000F054FDD8F808303B44984205D03046B2
:1011500000F0E6FB0020BDE8F8836142304600F075
:1011600045FD01300FD0114AD8F808303F1B47F039
:1011700001075F60136830461B1B136000F0D0FB53
:101180000120BDE8F8830021304600F02FFDD8F89B
:101190000820831A0F2BDADD43F001035360044B60
:1011A00002491B68C01A0860D1E700BF240A00206A
:1011B000540100206001002000297CD02DE9F0417D
:1011C0000C46804600F0A6FB54F8043C754FA4F191
:1011D000080523F001016818BE684268864222F0C3
:1011E000030200F08380DE07426000EB020C33D480
:1011F00054F8084CDCF804302D1B2144AC6807F18E
:10120000080C644503F0010364D0D5F80CE0C4F881
:101210000CE0CEF80840002B00F0818041F0010383
:101220006B600160B1F5007F22D27868CB080122A3
:10123000490901338A40024357F833107A6007EBBB
:10124000C302083AC5E9021247F83350CD60404660
:10125000BDE8F04100F064BBDCF80430DB072BD5BF
:1012600041F00103B1F5007F44F8043C0160DCD398
:10127000B1F5206F4FEA512353D28B0903F13900A6
:1012800003F13802C300F818FB580838984203D11C
:1012900061E09B68984204D05A6822F003028A42B7
:1012A000F7D8D868C5E902308560DD604046BDE802
:1012B000F04100F035BB7047114407F1080C83681A
:1012C00063453FD0C268DA60936041F001036B6010
:1012D0006950A7E7002B5FD10A44D0E90213CB6025
:1012E000996042F001036B60AA50B0E7DB070A4443
:1012F00007D454F8083CED1A1A44D5E90213CB6020
:10130000996042F001036B60274BBD601B689342FC
:101310009DD8264B40461968FFF7F2FE97E7114427
:10132000CDE7142B08D9542B1DD80B0B03F16F00FC
:1013300003F16E02C300A6E703F15C0003F15B0258
:10134000C300A0E741F00103C7E90455C5E902CC99
:101350006B6069507BE779689210012404FA02F20D
:101360000A437A609EE7B3F5AA7F06D8CB0B03F158
:10137000780003F17702C30085E740F254529342AC
:1013800006D88B0C03F17D0003F17C02C3007AE7E1
:101390004FF47E737E2276E741F001036B600160BB
:1013A00055E700BF6001002058010020540A0020CA
:1013B0002DE9F04F01F10B05162D83B0064623D819
:1013C000102900F2AF8000F0A5FA102518230220A2
:1013D000B74F3B44A3F108025C68944200F01E81C1
:1013E0006368E268A16823F00303CA6023443046BF
:1013F00091605A6842F001025A6000F091FA083494
:10140000204603B0BDE8F08F35F0070500F18A8073
:10141000A94200F2878000F07DFAB5F5FC7FC0F0AC
:101420006E816B0A00F08280042B00F21D81AB09F3
:1014300003F1390003F1380EC3009D4F3B44A3F183
:10144000080C5C68A44507D10DE0002AE16880F231
:10145000DF808C4507D00C46636823F003035A1BDA
:101460000F2AF2DD7046DFF860823C69444500F0E7
:10147000BC80636823F0030CACEB05030F2B00F377
:101480004281002BC7E9048880F22D81BCF5007FE2
:10149000D7F804E080F0C8804FEADC0101314FEA60
:1014A0005C1C012303FA0CF357F83120A2604EEACA
:1014B000030E07EBC103083BE360C7F804E047F8FD
:1014C0003140D46083104FF0010C0CFA03FCF4455A
:1014D00032D81CEA0E0F08D120F003004FEA4C0C62
:1014E0001CEA0E0F00F10400F8D007EBC00AD64644
:1014F0008146DEF80C300BE0596821F003014A1BED
:101500000F2A1C46DB6800F3BB80002A80F2DE80D5
:101510009E45F1D109F1010919F0030F0EF1080EF2
:10152000E7D119E10C233360002469E74FF400731D
:1015300040204FF03F0E80E7BC68636823F003094A
:10154000A94503D3A9EB05030F2B51DC594B1B68AD
:10155000082003F1100804EB0903009300F06CFB72
:10156000554A13680133A844834605D008F1FF3873
:101570008044434203EA08084146304600F036FB07
:10158000B0F1FF3F4C4A824600F0D880009B834276
:1015900000F2D280494B186840440BF1FF311860CB
:1015A000844640F0FC801AEA010F40F0F880D7F83A
:1015B00008A0C84448F00102CAF80420404B19684A
:1015C000814238BF18603F4B1968814238BF1860AC
:1015D000544622F00308A845A8EB050301D30F2BBE
:1015E00006DC304600F09CF99EE7D7F804E069E796
:1015F000621943F0010345F0010565603046BA60A9
:10160000536000F08DF90834204603B0BDE8F08F38
:10161000A2682344D16030468A60EAE6DC68A342CF
:101620007FF4DEAE02301EE7BCF5206F4FEA5C228D
:101630007BD3142A00F2128102F15C03DB005B32DF
:10164000F918FB580839994203D1ECE09B6899429C
:1016500004D05A6822F003026245F7D8D968C4E979
:1016600002318C60DC602DE7142B6AD9542B00F218
:10167000FE802B0B03F16F0003F16E0EC300DCE65E
:10168000D4F808C03046661945F001056560CCF80D
:101690000C30C3F808C042F00103C7E90466C6E98C
:1016A00002887360625000F03BF90834A8E600BF7E
:1016B00060010020540A002054010020240A002068
:1016C000500A00204C0A00206801002021443046C6
:1016D0004A6842F001024A6054F8082FD3609A60C9
:1016E00000F01EF98CE6A4443046DCF8043043F0E8
:1016F0000103CCF8043000F013F9083480E6E80860
:1017000005F1080364E6621943F0010145F00105A3
:1017100065603046C7E90422C2E90288516044F896
:101720000C3000F0FDF808346AE64FEA9C1202F132
:101730003903DB00383283E7BC4228D0BC686268DA
:1017400047E703F15C0003F15B0EC30075E65AF84E
:101750000839534540F0D98010F0030F00F1FF30F5
:10176000F5D17B6823EA0C037B604FEA4C0C9C4567
:101770003FF6E2AEBCF1000F04D1DDE64FEA4C0CBF
:1017800009F104091CEA030FF8D04846ADE6604BA6
:10179000186808EB000C0BF1FF31C3F800C01068AB
:1017A00001306ED0009AAAEB020262441A601AF06D
:1017B0000702CDE9002340D0C2F108029244D04490
:1017C00008EA01005A44121A02EA010B594630464F
:1017D00000F00CFA421C019B6FD0A0EB0A0000EB5A
:1017E0000B081868C7F808A048F001025844BC422A
:1017F000CAF8042018603FF4E1AEB9F10F0F43D9E5
:101800006168A9F10C0222F0070201F00101114305
:1018100061604FF0050CA1180F2AC1E901CC54D822
:10182000DAF80420CAE692104FF0010C0CFA02F22A
:101830004EEA020EC7F804E011E70AEB08020A407C
:10184000ABEB020202EA010B5946304600F0CEF93A
:10185000431C019BC1D1DDF800B0C2E7542A17D860
:101860004FEA1C3202F16F03DB006E32E8E6B3F59B
:10187000AA7F17D8EB0B03F1780003F1770EC300B2
:10188000DBE5C2F800A092E70123CAF80430A8E61D
:10189000B2F5AA7F24D84FEADC3202F17803DB00EC
:1018A0007732CDE640F25452934224D8AB0C03F188
:1018B0007D0003F17C0EC300BFE5009A083A904416
:1018C000A8EB0A084FF0000B8BE7304604F1080143
:1018D0000093FFF771FC009BD7F808A018689FE7FA
:1018E00040F254539A420CD84FEA9C4202F17D03D5
:1018F000DB007C32A4E64FF47E737F204FF07E0E37
:101900009BE54FF47E737E229AE67B682DE700BF4D
:10191000240A00200148FFF7DFBB00BF140A0020A3
:101920000148FFF7DBBB00BF140A002070B5002997
:101930003FD006460C4610B1436B002B3CD0636E83
:10194000B4F90C20DD0732D4900538D52146304655
:1019500000F04CF8E36A054633B1E1693046984738
:101960000028B8BF4FF0FF35A3891A0639D4216B80
:1019700041B104F14003994202D03046FFF71CFC0C
:1019800000232363616C21B13046FFF715FC00236F
:101990006364FFF759FA636E0022DB07A2811CD54E
:1019A000A06DFFF797FBFFF755FA284670BD002A98
:1019B000CCD10025284670BDFFF728FABFE7A06DFF
:1019C000FFF78AFBB4F90C30002BBFD1636ED90747
:1019D000EFD4A06DFFF782FBEBE7A06DFFF77EFB76
:1019E000DEE721693046FFF7E7FBC0E7B1F90C20DD
:1019F0002DE9F04116070C4680464ED4496842F462
:101A000000630029A38163DDA56A002D42D0002177
:101A100012F48052D8F80060C8F80010E16964D16F
:101A200001234046A847451C02466ED0B4F90C304D
:101A3000A56AE169580705D56368D21A236B0BB113
:101A4000E36BD21A00234046A847431C4FD1D8F875
:101A50000010B4F90C301D2940D8314ACA40D707CC
:101A60003CD52269226023F40062A281DD044FF09C
:101A70000002626001D5002945D0216BC8F80060E2
:101A800041B104F14003994202D04046FFF794FB74
:101A9000002323630020BDE8F0810E69002EF9D0F9
:101AA0000D680E6092070CBF4B690023AD1B8B6065
:101AB0000BE02B463246E169676A4046B847B0F111
:101AC000000CA5EB0C05664406DD002DF1DCE1E71A
:101AD000E16B002998DCDDE7B4F90C3043F04003FA
:101AE000A3814FF0FF30BDE8F081226DA2E7B4F989
:101AF0000C302269226023F40062A281DB044FF0E3
:101B000000026260B9D52065B7E7D8F80030002B35
:101B10008CD01D2B01D0162BDED1C8F80060B9E7A0
:101B20000100402038B50C46054608B1436B03B3AD
:101B3000B4F90C0088B1636EDB0701D481050FD5C1
:101B400028462146FFF752FF636EDA07054602D4A6
:101B5000A3899B0508D5284638BD0546284638BDCB
:101B6000A06DFFF7B9FAEBE7A06DFFF7B7FA2846CB
:101B700038BDFFF74BF9DBE750B338B5174B1D689D
:101B800004460DB16B6BBBB1B4F90C0088B1636E48
:101B9000DB0701D4810513D528462146FFF726FF30
:101BA000636EDA07054602D4A3899B050CD5284647
:101BB00038BD0546284638BD2846FFF727F9E3E734
:101BC000A06DFFF789FAE7E7A06DFFF787FAEEE768
:101BD000034A04490448FFF743B900BF0C00002042
:101BE00000000020251B00081000002038B5074D1C
:101BF0000022044608462A6000F0E0FA431C00D0A8
:101C000038BD2B68002BFBD0236038BD100A0020A4
:101C100038B5074D074C2C1BA41005D0013C55F8D6
:101C2000043D9847002CF9D1BDE838400CF096BF30
:101C30002CFC000828FC0008082802D14FF4805032
:101C4000704708B500F046F8162303604FF0FF30E8
:101C500008BD00BF2DE9F8431B4D0646286898468D
:101C60000F469146FFF738FA184B1C681CB32868DA
:101C700065681F2D22DC4EB96B1C0235636044F889
:101C80002570FFF72BFA0020BDE8F88304EB8501EF
:101C90000123C1F88890D4F88821AB401A43022E62
:101CA000C4F88821C1F80881E6D1D4F88C211A4300
:101CB000C4F88C21E0E7064C1C60D8E7FFF70EFA69
:101CC0004FF0FF30E0E700BF50010020200A002065
:101CD000580A0020014B1868704700BF0C00002014
:101CE00008B502F05DFC1C4C2060D0F888309847A5
:101CF0002368DB6A98472368D3F88C3098472068BC
:101D000004F0A6F9154802F090F803F071FF20687E
:101D100004F008F9206804F0D7F9206804F002FA0A
:101D2000206804F041F902F0BFFE052004F06EF9CE
:101D30000B4805F0A5FA09E0D969186A9047064BE7
:101D40001B6800229A61064805F09AFA024B1B684C
:101D50009A69002AF0D1F9E7FC0C0020080C002059
:101D600068EB000818490B684A68013342F1000229
:101D70000B604A600A2B72F1000209D30B46002067
:101D80000021C3E90001114B1A6813690133136183
:101D90000E4B1B681A69632A04D900221A619A68DB
:101DA00001329A609A683C2A07D01A685968013251
:101DB00041F100011A605960704700229A60DA68A8
:101DC0000132DA60F1E700BFE80B0020FC0C0020D4
:101DD00008B54FF080431B6913F0010F06D14FF097
:101DE0008042136923F00103136108BD02F0C2FEB3
:101DF000F5E7000008B5084BDB6913F0200F05D1AB
:101E0000054A136A43F00803136208BD034A0449F4
:101E1000014802F04FFBF3E7001001406805002085
:101E2000F00B002008B5084BDB6913F0200F05D13B
:101E3000054A136A43F00803136208BD03490248C8
:101E400002F019F8F4E700BF00440040080C00203D
:101E500008B5084BDB6913F0200F05D1054A136A5A
:101E600043F00803136208BD0349024802F003F877
:101E7000F4E700BF00480040080C0020BFF34F8F7C
:101E80000549CA6802F4E062044B1343CB60BFF318
:101E90004F8F00BFFDE700BF00ED00E00400FA0532
:101EA00008B5DFF864D000F003FA104B104A03E0E5
:101EB00052F8041B43F8041B0E498B42F8D30E4B17
:101EC00002E0002243F8042B0C4A9342F9D30C4B56
:101ED00002E0002243F8042B0A4A9342F9D3FFF7A9
:101EE000CFF800F08FF9FFF7FBFEFEE700000020BF
:101EF0002CFC0008B4080020B80800203C0E00208C
:101F00000000002400E100240000022008B50B4876
:101F100005F0B6F902E0053B012BFCD8084B196827
:101F2000002909DD074805F0ABF9054A1368013BB4
:101F300013604FF0FF33EFE7FFF7A0FF98EB0008C7
:101F4000F4050020D0EB000830B59DB0504B0121C6
:101F5000196000221A619A61DA611A629A62DA6281
:101F60001A664C4BC3F808114B4B5B6913F4003FE6
:101F700012D1BFF34F8FBFF36F8F474BC3F850227F
:101F8000BFF34F8FBFF36F8F5A6942F400325A612B
:101F9000BFF34F8FBFF36F8F3F4B5B6913F4803FED
:101FA00027D13D4B0022C3F88420BFF34F8FD3F8D5
:101FB0008040C4F34E3000E01846C4F3C90243F633
:101FC000E07303EA401343EA82733349C1F8603295
:101FD0001346013A002BF2D1431E0028ECD1BFF387
:101FE0004F8F4B6943F480334B61BFF34F8FBFF387
:101FF0006F8F294AD2F89C3243F00403C2F89C3216
:102000004C22002109A8FEF795FF2022002101A8FB
:10201000FEF790FF022000F04DF9002300931F4BC4
:102020009A6922F440429A619B6903F44043009309
:10203000009B1A4B9B6913F4005FFAD001220992AE
:102040004FF480330A9302231293139305211491C2
:10205000D8211591169317931892042519950024E9
:102060001A941B9409A800F04FF93F23019303230E
:102070000293039408230493402305930694079442
:10208000089329460DEB050000F02CFD1DB030BD76
:10209000004402580080005100ED00E00048025862
:1020A0000A4B1B680A4AA2FB03239B09013B4FF022
:1020B000E0225361074B302183F823100023936102
:1020C000136943F007031361704700BFFC0500204C
:1020D000D34D621000ED00E0104B1B68104AA2FBCC
:1020E00003239B0C00FB03F3013B4FF0E022536101
:1020F00000239361136943F0010313614FF0E02360
:102100001B6913F4803FF9D04FF0E0231A6922F0E5
:1021100001021A6100229A61704700BFFC0500208D
:1021200083DE1B4338B50546002404E04FF47A7083
:10213000FFF7D2FF0134AC42F8D338BD012070471D
:1021400008B5FFF7C7FD162303604FF0FF3008BD49
:1021500008B54FF0FF31FFF7F3FFFEE770B50C460F
:102160001646002506E0AFF30080214601F8010B7A
:1021700001350C46B542F6DB304670BD10464FF0D7
:10218000000C0AE0064BDB6913F0800FFAD011F85F
:102190000C20034B9A620CF1010C8445F2DB704772
:1021A000001001404FF0FF3070474FF400534B6078
:1021B00000207047012070470020704710B503468B
:1021C0000C4A0D490D48006840B10C4800680344B2
:1021D000521A934206D8094A136010BD0748084CAA
:1021E0000460F2E7FFF776FD0C2303604FF0FF3049
:1021F000F3E700BF0000022000080000000D0020EF
:10220000400E0020224AD2F8883043F47003C2F80E
:102210008830204B1B6803F00F03062B06D81D4A9D
:10222000136823F00F0343F0070313601A4B1A6877
:1022300042F001021A6000221A611968174A0A4026
:102240001A60144B1B6813F0080F06D0114A13686C
:1022500023F00F0343F0070313600F4B00229A6132
:10226000DA611A620E4999620E49D9620E49196300
:102270005A639963DA6319645A64196821F48021F6
:1022800019601A66094B43F2D2021A60704700BF08
:1022900000ED00E000200052004402587FEDF6EA15
:1022A000000202020000FF01800201010040005212
:1022B00070470000134BDB6813F0040F07D1114B7C
:1022C000DB6803F0070383421AD00120704710B582
:1022D0000C4AD36823F007030343D36000F048FEA1
:1022E0000446084B5B6813F4005F07D100F040FE22
:1022F000001BB0F57A7FF4D9012000E0002010BD6A
:102300000020704700480258002800F0D58238B5F8
:102310000446036813F0010F25D0A04A136903F0A7
:102320003803926A102B15D0182B0FD06368B3F5C1
:10233000803F3FD0002B53D1984B1A6822F4803253
:102340001A601A6822F480221A6038E002F0030250
:10235000022AEBD1914B1B6813F4003F03D0636852
:10236000002B00F0AB82236813F0020F00F088808E
:102370008A4A1369926A13F038035AD0182B55D041
:10238000E368002B00F0A98084490A6822F0190252
:1023900013430B6000F0ECFD0546804B1B6813F007
:1023A000040F40F0918000F0E3FD401B0228F4D9B7
:1023B00003208AE2794A136843F480331360636828
:1023C0002BB300F0D5FD0546744B1B6813F4003F9A
:1023D000C9D100F0CDFD401B6428F5D9032074E27B
:1023E000B3F5A02F09D06D4B1A6822F480321A6021
:1023F0001A6822F480221A60E1E7684B1A6842F4F6
:1024000080221A601A6842F480321A60D7E700F01E
:10241000AFFD0546614B1B6813F4003FA3D000F0ED
:10242000A7FD401B6428F5D903204EE212F0030FEC
:10243000A6D15A4B1B6813F0040F03D0E368002B9E
:1024400000F03E82554A136823F01903E1680B43FC
:10245000136000F08DFD0546504B1B6813F0040F10
:1024600006D100F085FD401B0228F5D903202CE29F
:102470004A4A536823F0FE43216943EA01635360EB
:10248000236813F0100F51D0444A136903F0380346
:10249000926A082B39D0182B33D0E369002B69D00E
:1024A0003E4A136843F08003136000F061FD054667
:1024B0003A4B1B6813F4807F53D100F059FD401B49
:1024C0000228F5D9032000E2344A536823F0FE4382
:1024D000216943EA01635360D2E7304A136823F06D
:1024E0000103136000F044FD05462C4B1B6813F0FC
:1024F000040FC5D000F03CFD401B0228F5D9032095
:10250000E3E102F00302012AC7D1244B1B6813F454
:10251000807F03D0E369802B40F0D4811F4AD368C9
:1025200023F07C53216A43EA0163D360236813F0EC
:10253000080F49D06369002B32D0184A536F43F01B
:102540000103536700F014FD0546144B5B6F13F055
:10255000020F39D100F00CFD401B0228F5D90320F1
:10256000B3E10E4AD36823F07C53216A43EA016346
:10257000D360DBE7094A136823F08003136000F09F
:10258000F7FC0546054B1B6813F4807FCED000F0A6
:10259000EFFC401B0228F5D9032096E100440258C5
:1025A0009D4A536F23F00103536700F0E1FC054699
:1025B000994B5B6F13F0020F06D000F0D9FC401B63
:1025C0000228F5D9032080E1236813F0200F29D0D9
:1025D000A3699BB1904A136843F48053136000F0E1
:1025E000C7FC05468C4B1B6813F4005F1AD100F042
:1025F000BFFC401B0228F5D9032066E1864A136818
:1026000023F48053136000F0B3FC0546824B1B6833
:1026100013F4005F06D000F0ABFC401B0228F5D994
:10262000032052E1236813F0040F21D1636A002BC9
:1026300000F04A81784A126902F03802182A00F044
:10264000F180022B75D0744A136823F080731360F5
:1026500000F08EFC0446704B1B6813F0007F00F006
:10266000D88000F085FC001B0228F4D903202CE15F
:102670006A4A136843F48073136000F079FC0546DE
:10268000664B1B6813F4807F06D100F071FC401B81
:102690006428F5D9032018E1A368012B0AD00BBBED
:1026A0005D4B1A6F22F001021A671A6F22F00402C2
:1026B0001A6704E0584A136F43F001031367A368D5
:1026C00033B300F055FC0546534B1B6F13F0020F5C
:1026D000ACD100F04DFC401B41F288339842F3D955
:1026E0000320F2E0052B09D04B4B1A6F22F00102B8
:1026F0001A671A6F22F004021A67E0E7464B1A6F56
:1027000042F004021A671A6F42F001021A67D6E714
:1027100000F02EFC0546404B1B6F13F0020F85D0D6
:1027200000F026FC401B41F288339842F3D9032085
:10273000CBE0394A136823F08073136000F018FC73
:102740000546354B1B6813F0007F06D000F010FCE7
:10275000401B0228F5D90320B7E02F4B996A304A75
:102760000A40A16AE06A41EA00110A439A62226BB8
:10277000013AC2F30802616B0139490289B20A4386
:10278000A16B0139090401F4FE010A43E16B01392F
:10279000090601F0FE410A431A63DA6A22F00102D7
:1027A000DA625A6B6FF3CF02A16C42EAC1025A633C
:1027B000DA6A22F00C02216C0A43DA62DA6A22F049
:1027C0000202616C0A43DA62DA6A42F48032DA6247
:1027D000DA6A42F40032DA62DA6A42F48022DA62B9
:1027E000DA6A42F00102DA621A6842F080721A6014
:1027F00000F0BEFB0446084B1B6813F0007F06D1B7
:1028000000F0B6FB001B0228F5D903205DE0002094
:102810005BE0002059E000BF004402580048025825
:102820000CFCFFFF30498A6A086B012B4ED002F086
:102830000303A16A8B424BD1C2F30512E36A9A42A9
:1028400048D1C0F30802236B013B9A4244D1C0F344
:102850004622636B013B9A4240D1C0F30642A36B10
:10286000013B9A423CD1C0F30660E36B013B9842C6
:1028700038D11D4B5B6BC3F3CC03A26C9A4201D1E0
:10288000002022E0184AD36A23F00103D36200F04B
:102890006FFB054600F06CFBA842FBD0124A536B5D
:1028A0006FF3CF03A16C43EAC1035363D36A43F0D0
:1028B0000103D362002008E001207047012004E0FA
:1028C000012002E0012000E0002038BD0120FCE7EB
:1028D0000120FAE70120F8E70120F6E70120F4E7FC
:1028E0000120F2E70120F0E700440258754B1B6914
:1028F00003F03803102B00F0DE80182B0FD0002BD4
:1029000040F0DB806F4B1B6813F0200F00F0D78086
:102910006C4B1B68C3F3C1036B48D840704710B4BD
:10292000684B9A6A02F003029C6AC4F30510D96AE4
:1029300001F001015B6BC3F3CC0301FB03F307EE72
:10294000903AF8EE677A14F47C7F77D0012A4AD067
:10295000022A76D0002A40F091805A4B1B6813F06F
:10296000200F23D057490A68C2F3C102564BD34007
:1029700007EE103AF8EE476A07EE100AB8EE476A1B
:1029800086EE867A0B6BC3F3080306EE903AF8EEF8
:10299000666A9FED4E6A67EE867A76EEA77AF7EE64
:1029A000006A77EEA67A27EE277A38E007EE100A5B
:1029B000F8EE476A9FED466A86EE267A414B1B6B1E
:1029C000C3F3080306EE903AF8EE666A9FED3F6A9D
:1029D00067EE867A76EEA77AF7EE006A77EEA67A49
:1029E00027EE277A1BE007EE100AF8EE476A9FED04
:1029F000396A86EE267A334B1B6BC3F3080306EE67
:102A0000903AF8EE666A9FED316A67EE867A76EE66
:102A1000A77AF7EE006A77EEA67A27EE277A294B97
:102A20001B6BC3F34623013307EE903AF8EE677A47
:102A3000C7EE276AFCEEE67A17EE900A5DF8044BC3
:102A4000704707EE100AF8EE476A9FED236A86EE9C
:102A5000267A1C4B1B6BC3F3080306EE903AF8EE84
:102A6000666A9FED1A6A67EE867A76EEA77AF7EEC7
:102A7000006A77EEA67A27EE277AD0E707EE100AEB
:102A8000F8EE476A9FED136A86EE267A0D4B1B6BB4
:102A9000C3F3080306EE903AF8EE666A9FED0B6A00
:102AA00067EE867A76EEA77AF7EE006A77EEA67A78
:102AB00027EE277AB3E7094870470948704702486C
:102AC000704700BF004402580090D0030000003956
:102AD0000024744C0024744A20BCBE4B40787D0115
:102AE00000093D00002800F0328170B50D46044613
:102AF0009B4B1B6803F00F038B420BD2984A136861
:102B000023F00F030B431360136803F00F038B4292
:102B100040F01F81236813F0040F0CD02269914B01
:102B20009B6903F070039A4205D98E498B6923F0A3
:102B300070031A438A61236813F0080F0CD062698E
:102B4000884BDB6903F070039A4205D98549CB694C
:102B500023F070031A43CA61236813F0100F0CD0DE
:102B6000A269804BDB6903F4E0639A4205D97D4991
:102B7000CB6923F4E0631A43CA61236813F0200F82
:102B80000CD0E269774B1B6A03F070039A4205D9B7
:102B900074490B6A23F070031A430A62236813F026
:102BA000020F0CD0E2686F4B9B6903F00F039A424F
:102BB00005D96C498B6923F00F031A438A61236896
:102BC00013F0010F41D0674A936923F47063A16841
:102BD0000B4393616368022B0AD0032B27D0012B90
:102BE0002CD0604A126812F0040F06D10120ADE02B
:102BF000126812F4003F00F0AE805A490A6922F0D0
:102C0000070213430B6100F0B3F90646554B1B69ED
:102C100003F038036268B3EBC20F16D000F0A8F9D6
:102C2000801B41F288339842F0D903208EE04D4A50
:102C3000126812F0007FE0D1012087E0494A126853
:102C400012F4807FD9D1012080E0236813F0020FB5
:102C50000CD0E268434B9B6903F00F039A4205D204
:102C600040498B6923F00F031A438A613C4B1B6870
:102C700003F00F03AB420AD9394A136823F00F035C
:102C80002B431360136803F00F03AB4265D1236835
:102C900013F0040F0CD02269324B9B6903F07003D0
:102CA0009A4205D22F498B6923F070031A438A6137
:102CB000236813F0080F0CD062692A4BDB6903F01C
:102CC00070039A4205D22749CB6923F070031A4357
:102CD000CA61236813F0100F0CD0A269214BDB6985
:102CE00003F4E0639A4205D21E49CB6923F4E06302
:102CF0001A43CA61236813F0200F0CD0E269194B04
:102D00001B6A03F070039A4205D216490B6A23F03E
:102D100070031A430A62FFF7E9FD12498B69C3F396
:102D20000323114AD35C03F01F03D8408B6903F0DF
:102D30000F03D35C03F01F0320FA03F30B4A136065
:102D40000B4B18600B4B186800F016F870BD012093
:102D500070470120FAE70120F8E70120F6E700BFFD
:102D6000002000520044025858F80008F8050020DE
:102D7000FC0500200406002070B5C2B00646002302
:102D8000419301222E9237934FF480332F9303F512
:102D900013432C932EA8FFF7B7FA054610B35DBB7B
:102DA000494B1C68CA23636253236362A36823F4FC
:102DB0008073A360E368DBB263F4C073E360002355
:102DC0004193E36813F0010F2ED1419A531C4193B4
:102DD0003E4B1B683E49A1FB0313B2EB531FF0D1DE
:102DE0000125EEE74FF480020023CDE90023684679
:102DF00000F020FA054610B1284642B070BD354AB1
:102E0000136F43F4004313672F48334B03600023D1
:102E10004360632282600922C26003618361C361EF
:102E200000F0B0FF0546BAE7002DE5D10123E361CC
:102E3000A36843F48073A360A36843F48053A36042
:102E40004FF0B043D3F8802042F40032C3F8802022
:102E50001A6842F400321A601B4B1868C36813F0FA
:102E6000400F15D14FF0FF33C36000234193C36877
:102E700013F0400F0CD1419A531C4193134B1B6824
:102E80001349A1FB0313B2EB531FF0D10125EEE769
:102E9000002DB1D10023436003600B4B1B68DA683F
:102EA00022F08002DA60FF225A62292000F0B6F890
:102EB0000F2E01D901259FE700223146292000F07D
:102EC0009DF8064B1E6097E7040D0020FC050020CE
:102ED000ABAAAAAA004402580040005804060020E9
:102EE00030B583B005460023019300F035F82B6818
:102EF000CA225A622B6853225A622B684FF0FF3263
:102F0000DA602C68E36813F0400F0AD1019A531C71
:102F100001930B4B1B680B49A1FB0313B2EB531F2F
:102F2000EFD1002363602A6813602A68D36823F016
:102F30008003D3602B68FF225A6203B030BD00BF0C
:102F4000FC050020ABAAAAAA08B5024800F089FE39
:102F500008BD00BF040D0020034B1B78034A116815
:102F60000B441360704700BF00060020280D0020AE
:102F7000014B1868704700BF280D0020002807DBB0
:102F800000F01F02400901239340024A42F820301A
:102F9000704700BF00E100E0002804DB0901C9B26E
:102FA000044B1954704700F00F000901C9B2024BDD
:102FB0001954704700E400E014ED00E000B500F0A3
:102FC0000700C0F1070CBCF1040F28BF4FF0040C40
:102FD000031D062B0FD9C31E4FF0FF3E0EFA0CF057
:102FE00021EA000199400EFA03FE22EA0E0241EAAC
:102FF00002005DF804FB0023EEE7000010B5044674
:10300000054BD868C0F30220FFF7D8FF01462046E1
:10301000FFF7C2FF10BD00BF00ED00E008B5FFF7ED
:10302000ADFF08BD404B9B6A03F00303032B79D02F
:1030300070B505460E463C4A136823F08063136062
:10304000FFF796FF0446384B1B6813F0006F06D05D
:10305000FFF78EFF031B022BF5D9032070BD324B07
:103060009A6A22F47C32296842EA01329A626A68DA
:10307000013AC2F30802A9680139490289B20A4338
:10308000E9680139090401F4FE010A43296901399B
:10309000090601F0FE410A439A63DA6A22F0C0028F
:1030A00069690A43DA62DA6A22F02002A9690A43EE
:1030B000DA62DA6A22F01002DA62DA6B6FF3CF02B8
:1030C000E96942EAC102DA63DA6A42F01002DA62BE
:1030D000C6B91A46DB6A43F40023D362124A136866
:1030E00043F080631360FFF743FF04460E4B1B68F9
:1030F00013F0006F14D1FFF73BFF001B0228F5D936
:103100000320ABE7012E05D0074AD36A43F400132E
:10311000D362E3E7044AD36A43F48013D362DDE762
:1031200000209BE70120704700440258404B9B6AF7
:1031300003F00303032B79D070B505460E463C4AD5
:10314000136823F080531360FFF712FF0446384BD7
:103150001B6813F0005F06D0FFF70AFF031B022B6A
:10316000F5D9032070BD324B9A6A22F07C7229682F
:1031700042EA01529A626A68013AC2F30802A968F7
:103180000139490289B20A43E9680139090401F4A5
:10319000FE010A4329690139090601F0FE410A438B
:1031A0001A64DA6A22F4406269690A43DA62DA6A06
:1031B00022F40072A9690A43DA62DA6A22F48072A0
:1031C000DA625A6C6FF3CF02E96942EAC1025A64CB
:1031D000DA6A42F48072DA62C6B91A46DB6A43F4EC
:1031E0008003D362124A136843F080531360FFF7E1
:1031F000BFFE04460E4B1B6813F0005F14D1FFF7AF
:10320000B7FE001B0228F5D90320ABE7012E05D03D
:10321000074AD36A43F08073D362E3E7044AD36A70
:1032200043F40003D362DDE700209BE701207047F1
:1032300000440258F8B50446036813F0006F2FD01D
:10324000436EB3F5001F25D015D8E3B1B3F5801F49
:103250000ED102210830FFF7E5FE054675BB934A03
:10326000136D23F44013616E0B431365002619E0C0
:103270000126354616E0B3F5401F01D10025EEE7E3
:10328000012635460EE0894AD36A43F40033D362FF
:103290000025E4E702212830FFF748FF0546DDE777
:1032A00000263546236813F4807F29D0A36D042BB4
:1032B00022D8DFE803F005131A0A0A002E46F1E7C8
:1032C0007A4AD36A43F40033D362C5B9774A136D9F
:1032D00023F00703A16D0B43136511E0002104F1F6
:1032E0000800FFF79FFE0546EFE7002104F12800E4
:1032F000FFF71CFF0546E8E70126354600E02E46AD
:10330000236813F4806F2DD0D4F8A430B3F5800F68
:103310003DD00DD8C3B1B3F5001F06D1002104F193
:103320000800FFF77FFE054613E00126354619E049
:10333000B3F5000F0DD0B3F5200F0AD0B3F5C00FD1
:1033400007D0012635460DE0584AD36A43F40033CE
:10335000D3621DBB554A936D23F46003D4F8A410C7
:103360000B439365236813F4006F37D0D4F8A8306B
:10337000B3F1007F5ED016D80BB3B3F1807F0FD1CD
:10338000002104F10800FFF74DFE05461CE0002176
:1033900004F12800FFF7CAFE0546DAE72E46E1E70A
:1033A000012635461AE0B3F1806F0DD0B3F1A06F5E
:1033B0000AD0B3F1407F07D0012635460EE03B4AE4
:1033C000D36A43F40033D362002D3AD1374A936D68
:1033D00023F0E063D4F8A8100B439365236813F03F
:1033E000007F13D0E36C202B35D02FD833B1102BB6
:1033F00029D12E4AD36A43F40033D36295BB2B4ABA
:10340000D36C23F03003E16C0B43D364236813F4D3
:10341000805F4ED0E36DB3F5005F3FD027D87BB31C
:10342000B3F5805F20D1002104F10800FFF7FAFD19
:1034300005462AE0002104F12800FFF777FE054643
:10344000C2E72E46CAE701263546DFE7302BD5D046
:1034500001263546DAE7022104F10800FFF7E2FD14
:103460000546CBE72E46D1E70126354621E0B3F5E8
:10347000405F0AD0B3F5804F07D00126354618E0EB
:103480000A4AD36A43F40033D3628DB9074A136DF5
:1034900023F4E043E16D0B4313650AE0002104F1DE
:1034A0002800FFF743FE0546EFE700BF004402583F
:1034B0002E46236813F4005F17D0236EB3F5003F48
:1034C0004FD042D843B1B3F5803F3BD1012104F145
:1034D0000800FFF7A7FD0546002D49D1924A136D5C
:1034E00023F4E023216E0B431365236813F4804F0C
:1034F00019D0D4F8AC30B3F1005F4AD03DD843B115
:10350000B3F1805F36D1012104F10800FFF78AFD95
:103510000546002D44D1844A936D23F0E043D4F84E
:10352000AC100B439365236813F4004F47D0E36E50
:10353000B3F1805F36D0B3F1005F4BD0BBB301264F
:1035400035463CE001263546CFE7B3F5802FC3D0A2
:10355000B3F5A02FC0D0B3F5403FBDD0012635460E
:10356000C3E7012104F12800FFF7E0FD0546B3E7BA
:103570002E46BAE701263546D5E7B3F1804FC8D0CD
:10358000B3F1A04FC5D0B3F1405FC2D0012635469C
:10359000C9E7012104F12800FFF7C8FD0546B8E797
:1035A0002E46C0E7604AD36A43F40033D362C5B9FC
:1035B0005D4A136D23F04053E16E0B43136523689E
:1035C00013F0807F1CD0A36C032B44D8DFE803F0FA
:1035D000100B3C10012104F10800FFF723FD054604
:1035E000E5E72E46EBE7504AD36A43F40033D36253
:1035F000A5BB4D4AD36C23F00303A16C0B43D364EA
:10360000236813F4800F2BD1236813F0010F00F00F
:10361000A980A36F282B00F2A380DFE803F091A11B
:10362000A1A1A1A1A1A18BA1A1A1A1A1A1A19AA1A7
:10363000A1A1A1A1A1A191A1A1A1A1A1A1A191A19A
:10364000A1A1A1A1A1A19100022104F10800FFF70D
:10365000E9FC0546CCE701263546D1E72E46CFE703
:10366000324A136843F480731360FFF781FC074606
:103670002E4B1B6813F4807F05D1FFF779FCC01B2C
:103680006428F5D90325002D4AD1274B1B6FD4F8A8
:10369000B020534013F4407F0CD0234B1A6F22F418
:1036A0004072196F41F480311967196F21F480312C
:1036B00019671A67D4F8B030B3F5807F15D08DBB89
:1036C000D4F8B03003F44072B2F5407F1ED0164AF1
:1036D000136923F47C53136113490B6FD4F8B020A2
:1036E000C2F30B0213430B678EE7FFF741FC07465B
:1036F0000D4B1B6F13F0020FE1D1FFF739FCC01B1C
:1037000041F288339842F3D90325D8E70648026985
:1037100022F47C52064901EA131313430361DBE7E9
:103720002E4671E72E466FE70044025800480258C3
:10373000CFFFFF00012104F10800FFF773FC0546ED
:10374000E5B9B14A536D23F03803A16F0B435365BC
:1037500008E0012104F12800FFF7E8FC0546EFE747
:1037600001263546236813F0020F17D0636F052B2F
:1037700029D8DFE803F00B05210B0B0B2E46F1E7F0
:10378000012104F10800FFF74DFC0546F5B99E4AFA
:10379000536D23F00703616F0B435365236813F0E8
:1037A000040F26D0D4F89030052B00F2D680DFE845
:1037B00003F0150FCD151515012104F12800FFF7B1
:1037C000B5FC0546E2E701263546E7E72E46E5E784
:1037D000012104F10800FFF725FC0546002D40F00B
:1037E000BF80894A936D23F00703D4F890100B43F0
:1037F0009365236813F0200F1DD0D4F88C30B3F1FB
:10380000005F00F0C18000F2B0804BB1B3F1805F87
:1038100040F0A880002104F10800FFF703FC0546F2
:10382000002D40F0B880784A536D23F0E043D4F87F
:103830008C100B435365236813F0400F1DD0D4F850
:103840009830B3F5006F00F0BA8000F2A9804BB158
:10385000B3F5806F40F0A180002104F10800FFF76C
:10386000E1FB0546002D40F0B180674A936D23F4DB
:10387000E053D4F898100B439365236813F0800F3E
:103880001DD0D4F89C30B3F5804F00F0B38000F227
:10389000A2804BB1B3F5005F40F09A80002104F1A3
:1038A0000800FFF7BFFB0546002D40F0AA80564AEE
:1038B000936D23F46043D4F89C100B439365236805
:1038C00013F0080F0DD0D4F88030B3F5805F00F00E
:1038D0009D804D4A536D23F44053D4F880100B4320
:1038E0005365236813F0100F0DD0D4F89430B3F55E
:1038F000807F00F09580444A936D23F44073D4F8A0
:1039000094100B439365236813F4002F00F09D80FF
:10391000D4F8A030B3F5803F00F08C80B3F5003FC1
:1039200008D0002B40F08D80002104F10800FFF743
:1039300079FB0546002D40F08780334A936D23F4D0
:103940004033D4F8A0100B4393657EE0012104F1CD
:103950002800FFF7EBFB054640E70126354648E720
:103960002E4646E70126354665E7B3F1804F3FF422
:1039700057AFB3F1A04F3FF453AFB3F1405F3FF403
:103980004FAF0126354656E7022104F12800FFF724
:10399000CDFB054644E72E464DE7012635466CE74C
:1039A000B3F5805F3FF45EAFB3F5A05F3FF45AAF6D
:1039B000B3F5406F3FF456AF012635465DE702216F
:1039C00004F12800FFF7B2FB05464BE72E4654E70B
:1039D0000126354673E7B3F5004F3FF465AFB3F505
:1039E000204F3FF461AFB3F5C04F3FF45DAF012608
:1039F000354664E7022104F12800FFF797FB0546EE
:103A000052E72E465BE700BF00440258022104F152
:103A10002800FFF78BFB00283FF45BAF012658E737
:103A2000022104F12800FFF781FB00283FF463AF77
:103A3000012660E7022104F12800FFF777FB054625
:103A400078E70126354600E02E46236813F4802FE0
:103A500024D0D4F88430B3F5001F14D0B3F5401F40
:103A600007D0B3F5801F15D17C4AD36A43F40033E5
:103A7000D36295B9794A536D23F44013D4F8841076
:103A80000B4353650AE0012104F12800FFF74EFBC8
:103A90000546EEE70126354600E02E46236813F47E
:103AA000803F06D0236DCBB1B3F5803F24D00126F3
:103AB0003546236813F0005F27D1236813F4003FD5
:103AC0003DD0E36FB3F5807F2BD027D9B3F5007FCE
:103AD0002CD0B3F5407F29D0012630E05F4AD36A6D
:103AE00043F40033D36275B95C4AD36C23F480335A
:103AF000216D0B43D364DCE7022104F10800FFF7DA
:103B000091FA0546EFE72E46D3E7022104F128009B
:103B1000FFF70CFB0028D0D00126CEE733B10126F9
:103B20000DE04E4AD36A43F40033D362002D5CD1DA
:103B30004A4A536D23F44073E16F0B435365236886
:103B400013F4801F06D0454A136D23F00043216F04
:103B50000B431365236813F4001F06D03F4A136D0F
:103B600023F08073A16E0B431365236813F0804F1D
:103B700009D03A4B1A6922F400421A611A69D4F842
:103B8000B4100A431A612368002B06DA334AD36C57
:103B900023F04053616D0B43D364236813F4000F8B
:103BA00007D02E4A536D23F44003D4F888100B43FA
:103BB0005365636813F0010F19D1636813F0020FA6
:103BC0001ED1636813F0040F23D1636813F0080F4C
:103BD00028D1636813F0100F2DD1636813F0200F04
:103BE00032D106B101263046F8BD2E46A7E70021A6
:103BF00004F10800FFF716FA0028DED00646DCE7DD
:103C0000012104F10800FFF70DFA0028D9D006467B
:103C1000D7E7022104F10800FFF704FA0028D4D006
:103C20000646D2E7002104F12800FFF77FFA0028BA
:103C3000CFD00646CDE7012104F12800FFF776FA40
:103C40000028CAD00646C8E7022104F12800FFF781
:103C50006DFA0028C5D00126C5E700BF0044025810
:103C6000704710B504464FF0B0434FF40032C3F82C
:103C7000882003689A6812F4805F03D0DA6812F42F
:103C8000807F0CD123689A6812F4005F03D0DA6851
:103C900012F4007F0BD1012384F8213010BDDA68C3
:103CA000D2B262F4C072DA60FFF71AF9EAE7DA68B2
:103CB000D2B262F42072DA60204600F0B5F8EAE78A
:103CC00038B5044603680A4ADA60FFF751F9054639
:103CD0002368DB6813F0200F07D1FFF749F9401B79
:103CE000B0F57A7FF4D9032000E0002038BD00BF92
:103CF0005FFF030070B50368DA6812F0400F02D06E
:103D00000025284670BD04464FF0FF32DA60FFF709
:103D10002FF9064600252368DB6813F0400FF0D129
:103D2000032DEED0FFF724F9831BB3F57A7FF2D988
:103D3000032584F82150EEE710B50446104BDA68ED
:103D400022F08002DA609B6813F0200F06D1FFF7A3
:103D5000B7FF98B1032084F821000FE0084A936868
:103D600023F020039360FFF7ABFF10B1032084F82A
:103D70002100034A936843F02003936010BD00BF05
:103D80000040005800284BD038B5044690F8213048
:103D900063B1022384F821302368DA6812F0100F2F
:103DA00009D00020012384F8213038BD80F820306C
:103DB000FFF756FFEDE7CA225A62236853225A6280
:103DC0002046FFF797FF28B12368FF225A62002898
:103DD000EBD1E7E722689168124B0B4093602168B2
:103DE0008A68636820690343A069034313438B60B7
:103DF000A168E368226843EA014313612046FFF7A4
:103E00009BFF0028E0D12268D36C23F00303D36426
:103E10002168CB6CE26965692A431343CB64D3E71D
:103E200001207047BFFF8FFF704770B50446002523
:103E3000056045608560057345738573C5730574BA
:103E400045748574C5740575C0F81550C0F81950CF
:103E5000C0F81D50C0F82150C0F8255064263246E5
:103E600029462930FDF766F83246294604F18D00CF
:103E7000FDF760F870BD0B46426AD2B20A73732A2E
:103E800012D0652A48D02C2A17D0C97B39B3362ADC
:103E90001CD8312A21D3A2F1310105291DD8DFE830
:103EA00001F01A3832352C2F0121597300229A73F0
:103EB000D9739A745A74002070474A7C887C1144E4
:103EC000487501325A7400229A747047702A04D1DE
:103ED0007021197401E0012119740021D973597BF3
:103EE00051B1597C987C01EB810103EB4101014404
:103EF00081F8292001309874704705211974ECE786
:103F000006211974E9E703211974E6E704211974FD
:103F1000E3E702211974E0E770B54A7C897C9818C0
:103F2000417500245C730120987319750244DA749A
:103F30005C749C7403F1290564263246294603F11A
:103F40008D00FCF74DFB324621462846FCF7F2FF78
:103F5000002070BDC37C8B4221D310B58646431828
:103F60005C7D00221046A24218D201EB81030EEBC9
:103F70004303134493F88D30A3F1300C5FFA8CFCAB
:103F8000BCF1090F09D800EB800003EB40039BB2A2
:103F9000303B98B20132D2B2E5E7184610BD00209E
:103FA0007047000030B50D4C01EB41054FF4346C07
:103FB0000CFB00FC0CEBC50504EB050E62558EF8FE
:103FC00011008EF812108EF8103001238EF8133085
:103FD0008EF814308EF8153030BD00BF000000247C
:103FE0002DE9F04180460F4616461D46002407E0A5
:103FF000E1193346C9B24046FFF7D4FF0134E4B2B9
:104000002A5D002AF4D1BDE8F08108B470B59BB0F8
:1040100004460D4616461FAA52F8041B009201A83A
:1040200003F0A0F901AB324629462046FFF7D8FF3E
:104030001BB0BDE8704001B0704700002DE9F041B1
:104040000F46164605467FE004EB44024FF4346306
:1040500005FB03F303EBC203444A1344597C9A7CE7
:104060000131434803F00CF904E022462946404858
:1040700003F006F904EB44024FF4346305FB03F349
:1040800003EBC203394A13441B7D012B25D037496A
:1040900004EB44024FF4346305FB03F303EBC20368
:1040A00001EB0308C85C03F0FFF8002388F8133025
:1040B0000134632C44DC04EB44024FF4346305FB0D
:1040C00003F303EBC203294A1344DB7C012BEFD13A
:1040D000012EB9D0002ECDD1C7E704EB44024FF436
:1040E000346305FB03F303EBC203204A13441B7C38
:1040F000062B21D8DFE803F004080C1014181C006C
:104100001C4803F0BDF8C2E71B4803F0B9F8BEE74E
:104110001A4803F0B5F8BAE7194803F0B1F8B6E762
:10412000184803F0ADF8B2E7174803F0A9F8AEE776
:10413000164803F0A5F8AAE70E4803F0A1F8A6E791
:10414000134803F09DF80135132D01DC3C46B0E720
:10415000104803F095F8104803F092F80F4B1B68D5
:104160009868FDF709FDBDE8F08100BF000000245C
:1041700010EC00085CF100081CEC000824EC0008BE
:104180002CEC000834EC00083CEC000844EC00087F
:104190004CEC000850EC000854EC00080C00002027
:1041A00030B589B00D9D642404FB05F50C9CE41A20
:1041B00095FBF4F505EB850E4FEA8E0E124B83FB53
:1041C0000E434FEAEE7ECEEB631E002306E02D2465
:1041D00003F1200CEC440CF8184C0133132B08DCD1
:1041E0007345F4DA232403F1200CEC440CF8184C4A
:1041F000F3E700238DF81C30019502AB0093034BCD
:10420000FFF703FF09B030BD1F85EB515CEC0008E0
:104210002DE9F04180460C4617461E464C49204683
:10422000FCF76EF8F8B14B492046FCF769F800B38B
:1042300049492046FCF764F858B348492046FCF742
:104240005FF80546002834D045492046FCF758F869
:10425000002842D1434B1B68002B39D031463846E9
:104260009847002003E0404803F074F80020BDE8C0
:10427000F0813E4803F06EF83A4B5B6823B10021B1
:10428000084698470020F2E7394802F0F9FF00207D
:10429000EDE7384803F05EF8324B9B6823B100210C
:1042A000084698470020E2E7334802F0E9FF002083
:1042B000DDE7324803F04EF803E0314802F0E0FF5A
:1042C0000135304B53F825100029F6D10020CEE7F8
:1042D0002D4802F0D5FF0020C9E72C492046FCF705
:1042E0000FF888B12A492046FCF70AF8E0B12949BD
:1042F0002046FCF705F838BB1A4B5B69FBB1314629
:10430000384698470020B2E7234803F023F8154BBE
:104310001B6923B10021084698470020A7E71F48E2
:1043200002F0AEFF0020A2E71D4803F013F80123BE
:1043300088F803301B4802F0A3FF002097E71A48D3
:1043400002F09EFF002092E74FF0FF308FE700BFA2
:1043500068EC000880EC0008D8EC000838ED000894
:104360005CED00082C0D002070EC000888EC0008C3
:1043700098EC0008E4EC0008F4EC000840ED0008BC
:1043800054ED00080806002060ED00089CED0008D0
:10439000F8ED000814EE0008A4ED0008B8ED0008E0
:1043A00000EE00080CEE00081CEE00082DE9F047B6
:1043B00094B080460E463949043003F035F80024A5
:1043C00009E014AB03EB840343F8500C0134334988
:1043D000002003F029F8132CCCBF0023012308B1DF
:1043E000002BEED1002C4BD0DDF80090012C10DD1D
:1043F0000DF1040A0025132D23DC294B53F82570F9
:10440000002F40D039464846FBF77AFF20B10135EE
:10441000F1E74FF0000AEDE73946224802F030FF9D
:10442000534622461E4951F825104046FFF7F0FE3C
:10443000002825DA1A4B53F825101B4802F020FFFC
:104440001EE0002505EB850306EB830856F8237074
:10445000DFB139464846FBF753FF08B10135F1E7B4
:104460003946124802F00CFF012388F80430C8F8DE
:1044700008A0C8F80C400E4A536843F080535360BC
:1044800014B0BDE8F0870025DCE7B9F1000FF7D0E4
:104490004946054802F0F4FEF2E700BFECF50008DB
:1044A000080600205CEE000874EE000894EE000898
:1044B00000ED00E0C36913F0200F00D1704770B524
:1044C00004460E461546214802F0DAFEE36913F071
:1044D000200F2AD0606AC3B20A2B18BF0D2B10D050
:1044E0007F2B18BF082B21D17378F3B1013B737078
:1044F000174802F0C5FE174B1B689868FDF73CFB98
:1045000013E07378334400241C710A2002F0CCFEBF
:1045100029463046FFF74AFF74700F4802F0B0FE9C
:104520000C4B1B689868FDF727FB70BD7278122A48
:10453000FBD8511C7170B1180B71C0B202F0B4FEFF
:10454000044B1B689868FDF717FBEEE75CF1000869
:10455000CCEE00080C000020C0EE00080D4AD16827
:1045600021F4E0610904090C0B4B0B43D3600B4BA6
:104570004FF080511960202159604020586083F825
:104580001C13102083F82503302083F8260382F8BB
:104590002210704700ED00E00004FA0500E100E0A1
:1045A0000048704758060020002300E0013303EB69
:1045B000830200EB820150F822206AB10A79002AB6
:1045C000F4D0064B1B680A699A61CA681A628A6845
:1045D000DA6100230B717047704700BFFC0C0020AC
:1045E00008B50248FFF7E0FF08BD00BF68050020DE
:1045F000002304E0DA1D32E070BC704701330F2B5A
:104600005EDCC218127A002AF8D070B405682968F6
:104610005C000322A24021EA0201296005682968A2
:104620004FF0020C0CFA04FC41EA0C012960056809
:10463000A96821EA0201A9600568A9681143A96077
:104640000568E96821EA0202EA600568EA68012172
:10465000A1400A43EA6005681A46002BCADBD21063
:10466000083255F82240D3F1000C03F007010CF09A
:10467000070C58BFCCF1000189004FF00F0C0CFA69
:1046800001FC24EA0C0445F82240056855F8224054
:10469000866A06FA01F1214345F82210046862682F
:1046A0000121994022EA010262600268516851606A
:1046B00001330F2BA0DCC218127A002AF8D0A5E72C
:1046C000704710B44368072B13D80468226A9B0014
:1046D0000F2101FA03F322EA030323620468236A29
:1046E000826A416889008A40134323625DF8044B63
:1046F00070470468626A083B9B000F2101FA03F3CC
:1047000022EA030363620468626A816A4368083BC1
:104710009B0001FA03F313436362E7E739B10168D1
:104720004B6940680122824013434B617047016826
:104730004B6940680122824023EA02034B617047C3
:1047400003681A69416801238B401A4203D0012390
:1047500080F82C307047002380F82C307047000020
:1047600070B4002329E0D210083255F82240D3F16A
:10477000000C03F007010CF0070C58BFCCF100014E
:1047800089004FF00F0C0CFA01FC24EA0C0445F8E8
:104790002240056B55F82240866D06FA01F121434F
:1047A00045F82210046B62680121994022EA010257
:1047B0006260026B5168516001330F2B31DC03F1F1
:1047C000180200EB42029288002AF5D0056B296896
:1047D0005C000322A24021EA02012960056B2968DE
:1047E0004FF0020C0CFA04FC41EA0C012960056B45
:1047F000A96821EA0201A960056BA9681143A960B3
:10480000056BE96821EA0202EA60056BEA680121AA
:10481000A1400A43EA60056B1A46002BA3DADA1DB1
:10482000A1E703684268DA62036882689A6200233B
:104830000FE0027E012A1FD0022A23D001688A6974
:1048400042F400628A6101680A6A42F001020A6267
:104850000133032B70DCC218127D002AF8D0032B21
:10486000F6D801A252F823F0334800089148000816
:10487000C94800080149000801688A6942F06002DD
:104880008A61DBE701688A6942F070028A61D5E7D4
:10489000027E012A0CD0022A10D001688A6942F4F3
:1048A00000628A6101680A6A42F010020A62CFE778
:1048B00001688A6942F4C0428A61EEE701688A6948
:1048C00042F4E0428A61E8E7027E012A0CD0022A23
:1048D00010D00168CA6942F40062CA6101680A6ABC
:1048E00042F480720A62B3E70168CA6942F060026A
:1048F000CA61EEE70168CA6942F07002CA61E8E77E
:10490000027E012A0CD0022A10D00168CA6942F442
:104910000062CA6101680A6A42F480520A6297E73B
:104920000168CA6942F4C042CA61EEE70168CA6917
:1049300042F4E042CA61E8E70268136843F080038A
:1049400013600268136843F00103136070BC704782
:1049500070B500210F2978DC01F10C0330F8133019
:10496000002B72D085682C685B00032202FA03F3E7
:1049700024EA03032B608668346801F10C0330F8E5
:1049800013C04FEA4C0C022505FA0CF52C43346099
:104990008568AC6830F813C04FEA4C0C02FA0CFC86
:1049A00024EA0C04AC608568AC6830F813C04FEAA8
:1049B0004C0C02FA0CFC44EA0C04AC608668F46807
:1049C00030F813506D00AA4024EA0202F2608568B4
:1049D000EC6830F8132052004FF0010C0CFA02F290
:1049E0002243EA60866830F813204FEAD20E0EF1B7
:1049F000080E56F82E4002F0070292000F2505FA25
:104A000002F224EA020246F82E20856830F81320CC
:104A10004FEAD20E0EF1080E55F82E4002F00702B2
:104A20009200066C06FA02F2224345F82E208468B2
:104A3000626830F813300CFA03FC22EA0C02626060
:104A400083685A685A60013184E74268154B03EB6A
:104A50005203B3FBF2F30268D3600268136843F0B9
:104A6000010313600268136823F0102313600268C7
:104A7000136823F4806313600268136843F0200313
:104A800013600268936843F480539360026853682C
:104A900023F4405353600268136843F00C0313601F
:104AA00070BD00BF80DF1710F0B52DED028B85B013
:104AB000284C2368A16862689FED278A274F4FF42E
:104AC0007A7502958A1A01925B1A0093A023B0EEC0
:104AD000480A4FF42F720C21384600F06DF8E36855
:104AE000616922691E4E02958A1A01925B1A00932F
:104AF0007623B0EE480A4FF42F720C21304600F0B6
:104B00005BF82368A168626802958A1A01925B1AB1
:104B100000930023B0EE480A1A461946114800F0E7
:104B20004BF8E3686169226902958A1A01925B1A5F
:104B300000930023B0EE480A1A4619460A4800F0CE
:104B40003BF80A4B3B600A4B336005B0BDEC028B6F
:104B5000F0BD00BF3007002000000000EC0D002079
:104B6000B40D00207C0D0020440D0020594C00089D
:104B7000414D000838B50A4D2B680A492846984728
:104B8000094C23680949204698472B6A08498A68D6
:104B90001344084A1364236A49690B44D36338BD3C
:104BA000EC0D00207C0D0020B40D0020440D0020F1
:104BB000300700200004004010B4019C4462029CB5
:104BC0008462039CC4614361C162426380ED0C0A4C
:104BD0005DF8044B704710B481614C424460C36877
:104BE0005B1AC360C2699A422BDAC2608368E31A17
:104BF0000361C26A02FB04F207EE102AD0ED0C6AD0
:104C0000D0ED037AF8EEE77A67EEA67AB8EEC77AC7
:104C100037EE277A426B02FB03F307EE903AF8EE89
:104C2000E77A77EE877AFDEEE77A17EE903AC0EDF5
:104C3000087A426A934209DD026284605DF8044B9F
:104C4000704752429A42D1DDC260CFE7826A524237
:104C50009342F2DA0262F0E738B504460D460121CC
:104C60003548FFF777F90146A0616269121A626060
:104C7000E3681344E360E069834248DDE060A368D1
:104C8000D31A2361606B00FB03F307EE103A2B4845
:104C9000D0ED007AB8EEE76BB8EEC77B9FED225BF4
:104CA00027EE057B9FED225B06EE057BBDEEC77B05
:104CB000E36A03FB02F307EE903A94ED0C6AD4ED3D
:104CC000036AF8EEE66A66EE866AF8EEE77A77EE51
:104CD000A67AF8EEC76A76EEA77AFDEEE77A17EEC7
:104CE000903AC4ED087A80ED007A626A934213DD4F
:104CF0002262002000F098F801462846FFF76BFF7B
:104D0000236A2A6A134423626368A36038BD404261
:104D10008342B4DAE060B2E7A26A52429342E8DA30
:104D20002262E6E7AFF300809A9999999999B93F81
:104D3000CDCCCCCCCCCCEC3F080C0020280E0020F5
:104D400038B504460D4602213548FFF703F9014600
:104D5000A0616269121A6260E3681344E360E0696B
:104D6000834248DDE060A368D31A2361606B00FBD7
:104D700003F307EE103A2B48D0ED007AB8EEE76B5C
:104D8000B8EEC77B9FED225B27EE057B9FED225B94
:104D900006EE057BBDEEC77BE36A03FB02F307EE7D
:104DA000903A94ED0C6AD4ED036AF8EEE66A66EE8A
:104DB000866AF8EEE77A77EEA67AF8EEC76A76EEBC
:104DC000A77AFDEEE77A17EE903AC4ED087A80ED07
:104DD000007A626A934213DD2262012000F024F817
:104DE00001462846FFF7F7FE236A2A6A1344236226
:104DF0006368A36038BD40428342B4DAE060B2E742
:104E0000A26A52429342E8DA2262E6E7AFF30080F8
:104E10009A9999999999B93FCDCCCCCCCCCCEC3F0F
:104E2000080C0020240E002010B101280AD0704781
:104E3000094B1868081A094A106000EB400010601E
:104E400019607047044B5868081A054A106000EB57
:104E50004000106059607047340E0020300E002072
:104E60002C0E002070B505460E46002404E02B5D94
:104E7000303B46F8243001342846FBF761FCA04261
:104E8000F5D870BD012814BF002301230A46B1FAEA
:104E900081F149090B4207D0A64B40F6FC029A600B
:104EA00040F6D8625A617047022814BF4FF0000CD8
:104EB0004FF0010C11EA0C0F07D09E4B40F6FC029C
:104EC0009A6040F622325A6170472DE9F04F03286C
:104ED00014BF4FF0000E4FF0010E11EA0E0F08D074
:104EE000944B40F6FC029A6040F26C725A61BDE845
:104EF000F08F042814BF00240124214207D08D4BD9
:104F00004FF448629A6040F6D8625A61EFE705288C
:104F100014BF00250125294207D0864B4FF4486273
:104F20009A6040F622325A61E1E7062814BF002653
:104F30000126314207D07F4B4FF448629A6040F21D
:104F40006C725A61D3E7072814BF00270127394242
:104F500007D0784B4FF47A629A6040F6D8625A6173
:104F6000C5E7082814BF4FF000084FF0010811EA08
:104F7000080F07D06F4B4FF47A629A6040F62232E6
:104F80005A61B4E7092814BF00200120014207D06C
:104F9000684B4FF47A629A6040F26C725A61A6E7ED
:104FA000022A14BF4FF000094FF0010913EA090F5C
:104FB00008D1012A14BF4FF0000B4FF0010B1CEA7F
:104FC0000B0F07D05B4B40F6C4129A6040F6B83224
:104FD0005A618CE7042A14BF4FF0000A4FF0010A0F
:104FE00013EA0A0F02D114EA0B0F07D0514B4FF40A
:104FF0002F629A6040F6D8625A6178E7052A14BF9A
:10500000002101210B4202D115EA0B0F07D0494BB9
:1050100040F654329A6040F6E4425A6167E7032A48
:1050200014BF4FF0000B4FF0010B1CEA0B0F02D125
:105030001EEA090F04D03F4B4FF416625A6156E73F
:105040001CEA0A0F02D114EA090F07D0394B40F6C7
:1050500054329A6040F6E4425A6148E71CEA010F74
:1050600002D115EA090F07D0324B4FF42F629A6034
:1050700040F622325A613AE7062A14BF0023012380
:105080001CEA030F02D116EA090F07D0294B40F69C
:1050900054329A604FF416625A6128E71EEA010FF3
:1050A0007FF425AF15EA0B0F7FF421AF1EEA030F43
:1050B0007FF41DAF16EA0B0F7FF419AF0C4202D13B
:1050C00015EA0A0F07D01B4B4FF448629A6040F66E
:1050D00048525A610BE7072A14BF4FF0000E4FF0F9
:1050E000010E14EA0E0F7FF402AF17EA0A0F7FF4E5
:1050F000FEAE082A14BF4FF0000C4FF0010C14EA6A
:105100000C0F02D118EA0A0F07D00A4B4FF4616264
:105110009A6040F648525A61E9E61D4201D10E42BA
:105120000AD0044B4FF448629A604FF416625A61F9
:10513000DDE600BF3007002015EA0E0F7FF4D7AE82
:105140000F427FF4D4AE15EA0C0F7FF4D0AE18EA0C
:10515000010F7FF4CCAE092A14BF002201221542B0
:1051600001D1084207D01C4B4FF461629A604FF4A2
:1051700016625A61BBE616EA0C0F02D118EA030F59
:1051800007D0154B4FF461629A604FF416625A6172
:10519000ADE6164201D1184207D00F4B4FF46162C1
:1051A0009A6040F26C725A61A1E617EA0C0F7FF424
:1051B0009EAE18EA0E0F7FF49AAE18EA020F03D1E2
:1051C00010EA0C0F3FF493AE034B4FF47A629A60EF
:1051D0004FF416625A618AE6300700200138082829
:1051E0004DD8DFE800F0050D151D252D353D450096
:1051F000234B1968234A51615A68234B5A617047FF
:105200001F4B99681F4A5161DA681F4B5A617047FA
:105210001B4B19691B4A51615A691B4B5A617047F4
:10522000174B9969174A5161DA69174B5A617047F0
:10523000134B196A134A51615A6A134B5A617047EA
:105240000F4B996A0F4A5161DA6A0F4B5A617047E6
:105250000B4B196B0B4A51615A6B0B4B5A617047E0
:10526000074B996B074A5161DA6B074B5A617047DC
:10527000034B196C034A51615A6C034B5A617047D6
:10528000E8060020EC0D0020B40D0020BFF34F8F86
:105290000549CA6802F4E062044B1343CB60BFF3D4
:1052A0004F8F00BFFDE700BF00ED00E00400FA05EE
:1052B00008B5FFF7EBFF000010B582B00C682E496F
:1052C0002046FBF71DF868B12C492046FBF718F87B
:1052D000002839D02A492046FBF712F80446002856
:1052E00044D02FE0274B93ED0C7AB7EEC77A8DEDC3
:1052F000007B5A6BD96A244801F0C2FF234B93ED1F
:105300000C7AB7EEC77A8DED007B5A6BD96A2048CC
:1053100001F0B6FF1F4B93ED0C7AB7EEC77A8DED17
:10532000007B5A6BD96A1C4801F0AAFF1B4B93ED16
:105330000C7AB7EEC77A8DED007B5A6BD96A1848A4
:1053400001F09EFF02B010BD164CA3686268216890
:10535000154801F095FF63692269E168134801F07F
:105360008FFFEFE7124801F08BFF0134114B53F828
:1053700024100029F6D1E5E77CEB000880EB00085B
:1053800080EF0008EC0D0020D0EE0008B40D0020E6
:10539000ECEE00087C0D002008EF0008440D002012
:1053A00028EF00083007002048EF000864EF0008ED
:1053B00054ED00080806002008B5034801F060FF1E
:1053C000024801F05DFF08BD0CEE000850EC00083B
:1053D00000B583B002468B6801934B6800930B685D
:1053E0000349044801F04CFF03B05DF804FB00BF23
:1053F00014EE000884EF000870B504460D460E68F0
:105400001A493046FAF77CFF98B9012C09DD032CC4
:105410000BDC0A220021686801F024FF144B98601D
:1054200070BD144801F02CFFFAE7134801F028FF83
:10543000F6E712493046FAF763FF98B9012C09DD07
:10544000032C0BDC0A220021686801F00BFF084BDB
:105450005861E5E70A4801F013FFE1E7094801F068
:105460000FFFDDE7084801F00BFFD9E7B0EF0008B8
:1054700030070020B4EF0008E4EF000848F6000809
:1054800014F0000844F0000874F0000808B561B199
:105490000B4600280DDD02280FDC0A2200211868C7
:1054A00001F0E0FEFFF79AFE08BD064801F0E8FEB5
:1054B000FAE7054801F0E4FEF6E7044801F0E0FEF3
:1054C000F2E700BFA0F00008D4F0000804F10008E3
:1054D00030B585B0002938D00D46002839DD0328C5
:1054E0003BDC0C68B5492046FAF70AFF002838D0A3
:1054F000B3492046FAF704FF002842D0B1492046BC
:10550000FAF7FEFE002865D0AF492046FAF7F8FE0C
:10551000002800F09A80AD492046FAF7F1FE0028F5
:1055200000F0C580AA492046FAF7EAFE002800F0FC
:105530000881A8492046FAF7E3FE0546002800F056
:105540005B81A54801F09CFE19E0A44801F098FE9B
:1055500015E0A34801F094FE11E0A24801F090FE8E
:105560000DE002210520FFF78DFC9F4B1B689B6A15
:105570004FF47A70984700210220FFF783FC05B0B2
:1055800030BD01210220FFF77DFC974C23689B6A08
:105590004FF4FA60984700210120FFF773FC23685D
:1055A0009B6A4FF47A60984705210120FFF76AFC57
:1055B00023689B6A4FF4FA60984700210520FFF7A3
:1055C00061FC23689B6A42F210709847874801F09B
:1055D00057FED4E701210520FFF754FC824C2368D5
:1055E0009B6A4FF4FA60984700210120FFF74AFCBC
:1055F00023689B6A41F27070984704210120FFF7ED
:1056000041FC23689B6A4FF4FA609847002104200C
:10561000FFF738FC23689B6A41F2707098470521B8
:105620000420FFF72FFC23689B6A4FF4FA60984729
:1056300000210520FFF726FC23689B6A41F65830BD
:1056400098476B4801F01CFE99E701210520FFF700
:1056500019FC654C23689B6A4FF4FA609847002157
:105660000120FFF70FFC23689B6A41F27070984796
:1056700000210520FFF706FC23689B6A4FF4FA60BF
:10568000984709210520FFF7FDFB23689B6A4FF42B
:10569000FA60984700210920FFF7F4FB23689B6A12
:1056A00041F658309847534801F0EAFD67E7012179
:1056B0000520FFF7E7FB4C4C23689B6A4FF4FA6028
:1056C000984700210120FFF7DDFB23689B6A4FF418
:1056D0007A60984702210120FFF7D4FB23689B6A78
:1056E0004FF4FA60984700210220FFF7CBFB2368B4
:1056F0009B6A4FF47A60984706210220FFF7C2FBAD
:1057000023689B6A4FF4FA60984700210620FFF750
:10571000B9FB23689B6A4FF47A60984709210620F9
:10572000FFF7B0FB23689B6A4FF4FA6098470021AB
:105730000920FFF7A7FB23689B6A41F6583098477A
:105740001DE700240094019402940394694668685C
:10575000FFF788FB01990098FFF794FB224D2B6817
:105760009B6A4FF4FA60984721460198FFF78AFB3D
:105770002B689B6A4FF4FA60984702990198FFF7EB
:1057800081FB2B689B6A4FF4FA6098472146029888
:10579000FFF778FB2B689B6A4FF4FA6098470399F0
:1057A0000298FFF76FFB2B689B6A4FF4FA609847EB
:1057B00021460398FFF766FBE1E600BFC0F1000851
:1057C000C4F10008F0F100081CF2000848F20008DB
:1057D0004CF2000850F2000854F2000830F10008C2
:1057E00064F1000894F10008FC0C0020C8F10008E6
:1057F000F4F1000820F2000804210520FFF742FB25
:10580000484C23689B6A4FF4FA60984700210420B3
:10581000FFF738FB23689B6A4FF4FA609847022130
:105820000420FFF72FFB3F4C23689B6A4FF4FA607C
:10583000984700210220FFF725FB23689B6A4FF45D
:10584000FA60984706210220FFF71CFB23689B6A39
:105850004FF4FA60984700210620FFF713FB2368F6
:105860009B6A4FF4FA60984708210620FFF70AFB6D
:1058700023689B6A4FF4FA60984700210820FFF7DD
:1058800001FB23689B6A4FF4FA60984704210820C3
:10589000FFF7F8FA23689B6A4FF4FA6098470021F3
:1058A0000420FFF7EFFA23689B6A4FF4FA609847E9
:1058B0000135022DB3DD02210420FFF7E3FA23684E
:1058C0009B6A4FF4FA60984700210220FFF7DAFA4A
:1058D00023689B6A4FF4FA60984706210220FFF77D
:1058E000D1FA23689B6A4FF4FA609847002106209A
:1058F000FFF7C8FA23689B6A4FF4FA6098470921BA
:105900000620FFF7BFFA23689B6A4FF4FA609847B6
:1059100000210920FFF7B6FA23689B6A41F6583048
:1059200098472CE6FC0C002070B52DED028B84B05E
:1059300061B30C4600282DDD04282FDC0A2203A9C0
:10594000A06801F08FFC064603A9A06801F09CFB4B
:10595000B0EE408A25688E492846FAF7D1FC002827
:1059600035D165688B492846FAF7CAFCD0B98A4B0D
:10597000DE62B7EEC88A8DED008B626821688748C9
:1059800001F07EFC04B0BDEC028B70BD844801F0D8
:1059900077FCF7E7834801F073FCF3E7824801F0F6
:1059A0006FFCEFE781492846FAF7AAFC10B97A4B59
:1059B0005E63DEE77E492846FAF7A2FC18B9764B0B
:1059C00083ED0C8AD5E77B4801F05AFCD1E77A4990
:1059D0002846FAF795FCE8B965686E492846FAF753
:1059E0008FFC10B9754BDE62C3E770492846FAF7A1
:1059F00087FC10B9714B5E63BBE76D492846FAF727
:105A00007FFC18B96D4B83ED0C8AB2E76C4801F04E
:105A100037FCAEE76B492846FAF772FCE8B96568CF
:105A20005C492846FAF76CFC10B9674BDE62A0E7C8
:105A30005E492846FAF764FC10B9634B5E6398E749
:105A40005B492846FAF75CFC18B95F4B83ED0C8A7A
:105A50008FE75E4801F014FC8BE75D492846FAF7B2
:105A60004FFCE8B965684B492846FAF749FC10B97C
:105A7000584BDE627DE74D492846FAF741FC10B9E4
:105A8000544B5E6375E74A492846FAF739FC18B962
:105A9000504B83ED0C8A6CE74F4801F0F1FB68E74F
:105AA0004E492846FAF72CFC002834D1656839495C
:105AB0002846FAF725FC20B9374BDE623F4BDE6201
:105AC00057E73A492846FAF71BFC20B9324B5E6388
:105AD0003A4B5E634DE736492846FAF711FC30B978
:105AE0002D4B83ED0C8A354B83ED0C8A41E73C4905
:105AF0002846FAF705FC50B927490023CB622F4A04
:105B0000D3624B63536300230B63136331E7354860
