:020000040800F2
:1000000000000220D91A0008D51A0008D51A0008E5
:10001000D51A0008D51A0008D51A000800000000FB
:10002000000000000000000000000000D51A0008D9
:10003000D51A000800000000F5400008F919000872
:10004000D51A0008D51A0008D51A0008D51A0008D4
:10005000D51A0008D51A0008D51A0008D51A0008C4
:10006000D51A0008D51A0008D51A0008D51A0008B4
:10007000D51A0008D51A0008D51A0008D51A0008A4
:10008000D51A0008D51A0008D51A0008D51A000894
:10009000D51A0008D51A0008D51A0008D51A000884
:1000A000D51A0008D51A0008D51A0008D51A000874
:1000B000651A0008D51A0008D51A0008D51A0008D4
:1000C000D51A0008D51A0008D51A0008D51A000854
:1000D000D51A0008751A0008A91A0008D51A0008D0
:1000E000D51A0008452B000800000000D51A0008AA
:1000F000D51A0008D51A0008D51A0008D51A000824
:10010000D51A0008D51A0008D51A0008D51A000813
:10011000D51A0008D51A0008D51A0008D51A000803
:10012000D51A0008D51A0008D51A0008D51A0008F3
:10013000D51A0008D51A0008D51A0008D51A0008E3
:1001400000000000000000000000000000000000AF
:10015000D51A0008D51A0008D51A0008D51A0008C3
:10016000D51A0008D51A0008D51A0008D51A0008B3
:10017000D51A0008D51A0008D51A0008000000009A
:10018000D51A0008D51A0008D51A0008D51A000893
:10019000D51A0008D51A0008D51A0008D51A000883
:1001A000D51A0008D51A0008D51A0008000000006A
:1001B000D51A0008D51A0008D51A0008D51A000863
:1001C000D51A0008D51A0008000000000000000041
:1001D0000000000000000000D51A00080000000028
:1001E000000000000000000000000000000000000F
:1001F0000000000000000000D51A0008D51A000811
:10020000D51A0008D51A000800000000D51A000809
:10021000D51A0008D51A0008D51A0008D51A000802
:10022000D51A000800000000D51A000800000000E0
:10023000D51A0008D51A000800000000D51A0008D9
:10024000D51A0008D51A0008D51A0008D51A0008D2
:10025000D51A0008D51A0008D51A0008D51A0008C2
:10026000D51A0008D51A0008D51A0008D51A0008B2
:10027000D51A0008D51A0008D51A00080000000099
:10028000D51A0008D51A0008D51A0008D51A000892
:1002900000000000D51A0008D51A00080000000070
:1002A00000000000D51A0008D51A0008D51A000869
:1002B000D51A0008D51A0008D51A0008D51A000862
:0C02C000D51A0008D51A0008D51A00084D
:1003000002780B78012A28BF9A4240F0D8806DE924
:10031000044540EA0104CDE902676FF0000C4FEAA2
:1003200044721AB380EA010414F0070F6BD100F095
:10033000070420F0070004F0030521F007014FEA4D
:10034000C505F0E8042314F0040FF1E804670CFA83
:1003500005F462EA040266EA04060BD063EA0403C9
:10036000624667EA0407664604E000BFF0E804233B
:10037000F1E8046782FA4CF582EA0604A4FA8CF4E8
:100380006CBB83FA4CF583EA0705A5FA8CF595B9A1
:1003900050E9022351E9026782FA4CF582EA060429
:1003A000A4FA8CF483FA4CF583EA0705A5FA8CF5D8
:1003B0002543DBD09CB92DBAB5FA85F424F00704A7
:1003C00027FA04F1DDE9026723FA04F303F0FF00E2
:1003D00001F0FF01FDE80445A0EB0100704724BADD
:1003E000B4FA84F424F0070426FA04F1DDE9026784
:1003F00022FA04F202F0FF0001F0FF01FDE80445DB
:10040000A0EB0100704714F0030F3CD110F003047F
:1004100028D150F8082B51F8083B82FA4CF582EAB3
:100420000305A5FA8CF55DB950F8042C51F8043C8D
:1004300082FA4CF582EA0305A5FA8CF5002DE8D086
:100440002DBAB5FA85F424F0070423FA04F122FA50
:1004500004F202F0FF0001F0FF01FDE80445A0EB0B
:10046000010070474FEAC40420F0030050F8082B45
:1004700021F0030151F8083B0CFA04F462EA04028B
:1004800063EA0403C9E710F003041DD0A1EB0401E3
:1004900020F00300E40750F8042B06D012D28B782A
:1004A0005FFAA2F4E41A06D12BB1CB785FFAB2F46A
:1004B000E41A00D133B920465DF8104B7047A2EB27
:1004C0000300704701F1040150F8042BCC0721F020
:1004D000030151F8043B48D824D222F07F4482FA29
:1004E0004CF594EA1325A5FA8CF50AD165B951F8B3
:1004F000043B84EA0204B4EB036F0ED150F8042BE2
:10050000EBE74FEA132355E035F07F454DD10878EE
:10051000FDE80445C0F1000070474FEA126203F0A5
:10052000FF0347E002EA1C4482FA4CF594EA1345C3
:10053000A5FA8CF50AD165B951F8043B84EA0204A6
:10054000B4EB034F0CD150F8042BEBE74FEA134305
:1005500030E015EA1C4528D10B884FEA124229E009
:100560004FEA124203EA1C4324E002F0FF0482FA3D
:100570004CF594EA1365A5FA8CF50AD165B951F8E2
:10058000043B84EA0204B4EB032F09D150F8042B96
:10059000EBE74FEA13630DE015F0FF0F05D10B6891
:1005A0004FEA122223F07F4304E04FF00000FDE801
:1005B0000445704712BA1BBA82FA4CF482EA03046B
:1005C000A4FA8CF5B5FA85F402FA04F203FA04F3FE
:1005D0004FEA1260FDE80445A0EB1360704700BFCE
:1005E000844641EA000313F003036DD1403A41D33E
:1005F00051F8043B40F8043B51F8043B40F8043BFD
:1006000051F8043B40F8043B51F8043B40F8043BEC
:1006100051F8043B40F8043B51F8043B40F8043BDC
:1006200051F8043B40F8043B51F8043B40F8043BCC
:1006300051F8043B40F8043B51F8043B40F8043BBC
:1006400051F8043B40F8043B51F8043B40F8043BAC
:1006500051F8043B40F8043B51F8043B40F8043B9C
:1006600051F8043B40F8043B51F8043B40F8043B8C
:10067000403ABDD2303211D351F8043B40F8043B2C
:1006800051F8043B40F8043B51F8043B40F8043B6C
:1006900051F8043B40F8043B103AEDD20C3205D33C
:1006A00051F8043B40F8043B043AF9D2043208D034
:1006B000D2071CBF11F8013B00F8013B01D30B88A6
:1006C00003806046704700BF082A13D38B078DD084
:1006D00010F003038AD0C3F10403D21ADB071CBF56
:1006E00011F8013B00F8013B80D331F8023B20F8C0
:1006F000023B7BE7043AD9D3013A11F8013B00F8F9
:10070000013BF9D20B7803704B7843708B78837080
:10071000604670470000000000000000000000007C
:1007200000000000000000000000000000000000C9
:1007300000000000000000000000000000000000B9
:1007400030B490F800F020F007016FF0000C10F0CA
:10075000070491F820F040F048804FF000046FF05B
:100760000700D1E9002391F840F000F1080082FA77
:100770004CF2A4FA8CF283FA4CF3A2FA8CF34BBB42
:10078000D1E9022382FA4CF200F10800A4FA8CF2BB
:1007900083FA4CF3A2FA8CF3E3B9D1E9042382FA89
:1007A0004CF200F10800A4FA8CF283FA4CF3A2FA9E
:1007B0008CF37BB9D1E9062301F1200182FA4CF2D6
:1007C00000F10800A4FA8CF283FA4CF3A2FA8CF33D
:1007D000002BC6D0002A04BF04301A4612BAB2FA5F
:1007E00082F200EBD20030BC7047D1E9002304F064
:1007F0000305C4F100004FEAC50514F0040F91F899
:1008000040F00CFA05F562EA05021CBF63EA050335
:1008100062464FF00004AAE700000000000000005C
:1008200001F0FF01102A2BDB10F0070F08D010F8A1
:10083000013B013A8B422DD010F0070F42B3F6D1A5
:10084000F0B441EA012141EA014122F007047FF0BE
:1008500000070023F0E80256083C85EA010586EA15
:10086000010685FA47F5A3FA87F586FA47F6A5FA51
:1008700087F68EB9EED1F0BC01F0FF0102F007025D
:1008800032B110F8013B013A83EA010313B1F8D108
:100890000020704701387047002D06BF35460338E9
:1008A000073815F0010F07D1013015F4807F02BF22
:1008B000013015F4C03F0130F0BC0138704700BF73
:1008C0000348044B834202D0034B03B118477047DF
:1008D0000408002004080020000000000548064B22
:1008E0001B1AD90F01EBA301491002D0034B03B12E
:1008F000184770470408002004080020000000008A
:1009000010B5064C237843B9FFF7DAFF044B13B157
:100910000448AFF300800123237010BD08080020B5
:1009200000000000A4B7000808B5054B1BB105493D
:100930000548AFF30080BDE80840FFF7CFBF00BF18
:10094000000000000C080020A4B70008024A034978
:10095000034800F0C9B800BF00000020B51500082A
:10096000100000200C4B4168994210B5044601D09C
:1009700000F020FEA168094B994202D0204600F009
:1009800019FEE168064B994204D02046BDE81040AC
:1009900000F010BE10BD00BF240800208C0800200D
:1009A000F40800202DE9F843314A324C3249DFF88F
:1009B000DC90DFF8DC80314F1160002504232946EC
:1009C000082204F15C00C4E903352D4EA560C4E99A
:1009D0000055C4E90555656600F0F0F804F15800CB
:1009E000C4E90749C4E90987E66200F0B5F9294678
:1009F000244B6367082204F1C400C4E91A55C4E912
:100A00001E552567C4F8CC50C4F8805000F0D6F8C5
:100A100004F1680304F1C000C4F88430C4E92298EA
:100A2000C4E9247600F098F9174BC4F8DC30294665
:100A300004F596700822C4E93455C4E93855C4F861
:100A4000D850C4F83451C4F8E85000F0B7F804F1B5
:100A5000D003C4E93D87C4F8F09004F59470C4F85D
:100A6000FC60C4F8EC30BDE8F84300F075B900BF95
:100A70005C090020240800204D090008910B0008A3
:100A8000B50B000809000100120002002D0B000840
:100A9000510B000810B504460A4800F061F9636B79
:100AA00023B9094B094A1B68626323B1BDE81040B2
:100AB000044800F057B9FFF775FFBDE81040014842
:100AC00000F050B96C0900205C090020650900089D
:100AD000014800F045B900BF6C090020014800F052
:100AE00041B900BF6C0900202DE9F843074688464C
:100AF00016464FF00009D6E90154013D10D4A389F0
:100B0000012B08D9B4F90E3001332146384602D002
:100B1000C04749EA0009013D6B1C04F16804EED1AD
:100B20003668002EE7D14846BDE8F88310B50C467C
:100B3000B1F90E1000F0BCF8002803DB236D03446C
:100B4000236510BDA38923F48053A38110BD00BF8A
:100B50002DE9F0410C46B1F90C101F46CB050546B6
:100B600016460BD421F48051A1813B46B4F90E10F6
:100B700032462846BDE8F04100F0B0B8B4F90E1096
:100B80000223002200F07EF8B4F90C10EAE700BF5F
:100B900010B50C46B1F90E1000F074F8B4F90C3031
:100BA000421C0EBF23F4805343F480532065A3817D
:100BB00010BD00BFB1F90E1000F052B8830730B578
:100BC00047D0541E002A3ED0CAB2034601E0013C81
:100BD00039D303F8012B9D07F9D1032C2CD9CDB2C1
:100BE00005EB05250F2C05EB054535D9A4F11002C1
:100BF00022F00F0C03F1100EE6444FEA121C1A46C5
:100C0000C2E90055C2E9025510327245F8D10CF123
:100C1000010214F00C0F03EB021204F00F0C13D0BE
:100C2000ACF1040323F003030433134442F8045BE0
:100C30009342FBD10CF003042CB1C9B21C4403F85D
:100C4000011BA342FBD130BD64461346002CF4D1F6
:100C5000F9E703461446C0E71A46A446E0E700BF9A
:100C600038B5074D0022044608462A6001F098F87E
:100C7000431C00D038BD2B68002BFBD0236038BD4F
:100C80006009002038B50C46084D844611462046C0
:100C90001A4600232B60644601F08CF8431C00D0F8
:100CA00038BD2B68002BFBD0236038BD60090020C5
:100CB00038B50C46084D8446114620461A46002396
:100CC0002B60644601F048F8431C00D038BD2B6807
:100CD000002BFBD0236038BD6009002038B50C46DE
:100CE000084D8446114620461A4600232B60644670
:100CF00001F042F8431C00D038BD2B68002BFBD01C
:100D0000236038BD6009002070B50F4B0F4DAB421A
:100D1000A3EB050607D0B610002455F8043B0134B8
:100D20009847A642F9D80AF03DFD094D094B5E1BD4
:100D3000AB424FEAA60606D0002455F8043B013426
:100D40009847A642F9D870BD34C0000834C00008E6
:100D500034C000083CC00008704700BF704700BFA7
:100D6000704700BF704700BF024B13B1024800F04C
:100D700005B87047000000009918000800230146DC
:100D80001A46184600F0AABD2DE9F8430646082089
:100D9000894600F095FDDFF8A4800546304600F056
:100DA000FDFBD8F808305F6827F00307A7F11104AE
:100DB000A4EB09042C44B4FBF5F4013C05FB04F45A
:100DC000A54208DC0021304600F054FDD8F8083078
:100DD0003B44984205D0304600F0E6FB0020BDE8D9
:100DE000F8836142304600F045FD01300FD0114AD2
:100DF000D8F808303F1B47F001075F6013683046A2
:100E00001B1B136000F0D0FB0120BDE8F88300211C
:100E1000304600F02FFDD8F80820831A0F2BDADDBA
:100E200043F001035360044B02491B68C01A086079
:100E3000D1E700BF740900205401002060010020A8
:100E400000297CD02DE9F0410C46804600F0A6FB3D
:100E500054F8043C754FA4F1080523F0010168180B
:100E6000BE684268864222F0030200F08380DE07FB
:100E7000426000EB020C33D454F8084CDCF8043028
:100E80002D1B2144AC6807F1080C644503F00103F5
:100E900064D0D5F80CE0C4F80CE0CEF80840002B84
:100EA00000F0818041F001036B600160B1F5007FCB
:100EB00022D27868CB080122490901338A400243D3
:100EC00057F833107A6007EBC302083AC5E90212FB
:100ED00047F83350CD604046BDE8F04100F064BBB8
:100EE000DCF80430DB072BD541F00103B1F5007FBE
:100EF00044F8043C0160DCD3B1F5206F4FEA512384
:100F000053D28B0903F1390003F13802C300F818FA
:100F1000FB580838984203D161E09B68984204D09E
:100F20005A6822F003028A42F7D8D868C5E902302D
:100F30008560DD604046BDE8F04100F035BB70479C
:100F4000114407F1080C836863453FD0C268DA603A
:100F5000936041F001036B606950A7E7002B5FD1FC
:100F60000A44D0E90213CB60996042F001036B6040
:100F7000AA50B0E7DB070A4407D454F8083CED1A3E
:100F80001A44D5E90213CB60996042F001036B600B
:100F9000274BBD601B6893429DD8264B404619687D
:100FA000FFF7F2FE97E71144CDE7142B08D9542B35
:100FB0001DD80B0B03F16F0003F16E02C300A6E70F
:100FC00003F15C0003F15B02C300A0E741F0010301
:100FD000C7E90455C5E902CC6B6069507BE77968C5
:100FE0009210012404FA02F20A437A609EE7B3F5F4
:100FF000AA7F06D8CB0B03F1780003F17702C30078
:1010000085E740F25452934206D88B0C03F17D00E1
:1010100003F17C02C3007AE74FF47E737E2276E709
:1010200041F001036B60016055E700BF60010020E3
:1010300058010020A40900202DE9F04F01F10B0513
:10104000162D83B0064623D8102900F2AF8000F099
:10105000A5FA102518230220B74F3B44A3F108023C
:101060005C68944200F01E816368E268A16823F026
:101070000303CA602344304691605A6842F001027B
:101080005A6000F091FA0834204603B0BDE8F08FB2
:1010900035F0070500F18A80A94200F2878000F050
:1010A0007DFAB5F5FC7FC0F06E816B0A00F082809E
:1010B000042B00F21D81AB0903F1390003F1380E56
:1010C000C3009D4F3B44A3F1080C5C68A44507D1C5
:1010D0000DE0002AE16880F2DF808C4507D00C46E5
:1010E000636823F003035A1B0F2AF2DD7046DFF812
:1010F00060823C69444500F0BC80636823F0030CC7
:10110000ACEB05030F2B00F34281002BC7E90488E9
:1011100080F22D81BCF5007FD7F804E080F0C88014
:101120004FEADC0101314FEA5C1C012303FA0CF3A6
:1011300057F83120A2604EEA030E07EBC103083BCB
:10114000E360C7F804E047F83140D46083104FF003
:10115000010C0CFA03FCF44532D81CEA0E0F08D13E
:1011600020F003004FEA4C0C1CEA0E0F00F10400C3
:10117000F8D007EBC00AD6468146DEF80C300BE00B
:10118000596821F003014A1B0F2A1C46DB6800F353
:10119000BB80002A80F2DE809E45F1D109F1010971
:1011A00019F0030F0EF1080EE7D119E10C2333609B
:1011B000002469E74FF4007340204FF03F0E80E7B2
:1011C000BC68636823F00309A94503D3A9EB0503B1
:1011D0000F2B51DC594B1B68082003F1100804EB5E
:1011E0000903009300F06CFB554A13680133A844CF
:1011F000834605D008F1FF388044434203EA0808DB
:101200004146304600F036FBB0F1FF3F4C4A824683
:1012100000F0D880009B834200F2D280494B1868CE
:1012200040440BF1FF311860844640F0FC801AEA1C
:10123000010F40F0F880D7F808A0C84448F0010238
:10124000CAF80420404B1968814238BF18603F4BF0
:101250001968814238BF1860544622F00308A84537
:10126000A8EB050301D30F2B06DC304600F09CF9F8
:101270009EE7D7F804E069E7621943F0010345F0FF
:10128000010565603046BA60536000F08DF908349E
:10129000204603B0BDE8F08FA2682344D1603046F9
:1012A0008A60EAE6DC68A3427FF4DEAE02301EE725
:1012B000BCF5206F4FEA5C227BD3142A00F2128126
:1012C00002F15C03DB005B32F918FB5808399942E4
:1012D00003D1ECE09B68994204D05A6822F00302E3
:1012E0006245F7D8D968C4E902318C60DC602DE72B
:1012F000142B6AD9542B00F2FE802B0B03F16F00E4
:1013000003F16E0EC300DCE6D4F808C0304666195F
:1013100045F001056560CCF80C30C3F808C042F018
:101320000103C7E90466C6E902887360625000F0F1
:101330003BF90834A8E600BF60010020A4090020A2
:101340005401002074090020A00900209C090020FD
:1013500068010020214430464A6842F001024A6098
:1013600054F8082FD3609A6000F01EF98CE6A4446C
:101370003046DCF8043043F00103CCF8043000F0D0
:1013800013F9083480E6E80805F1080364E66219F9
:1013900043F0010145F0010565603046C7E90422CC
:1013A000C2E90288516044F80C3000F0FDF80834BE
:1013B0006AE64FEA9C1202F13903DB00383283E718
:1013C000BC4228D0BC68626847E703F15C0003F1C7
:1013D0005B0EC30075E65AF80839534540F0D980D2
:1013E00010F0030F00F1FF30F5D17B6823EA0C0306
:1013F0007B604FEA4C0C9C453FF6E2AEBCF1000F1F
:1014000004D1DDE64FEA4C0C09F104091CEA030F94
:10141000F8D04846ADE6604B186808EB000C0BF1BD
:10142000FF31C3F800C0106801306ED0009AAAEBFB
:10143000020262441A601AF00702CDE9002340D08C
:10144000C2F108029244D04408EA01005A44121A38
:1014500002EA010B5946304600F00CFA421C019B8F
:101460006FD0A0EB0A0000EB0B081868C7F808A0C3
:1014700048F001025844BC42CAF8042018603FF406
:10148000E1AEB9F10F0F43D96168A9F10C0222F066
:10149000070201F00101114361604FF0050CA11832
:1014A0000F2AC1E901CC54D8DAF80420CAE6921018
:1014B0004FF0010C0CFA02F24EEA020EC7F804E0FB
:1014C00011E70AEB08020A40ABEB020202EA010B49
:1014D0005946304600F0CEF9431C019BC1D1DDF8DE
:1014E00000B0C2E7542A17D84FEA1C3202F16F034A
:1014F000DB006E32E8E6B3F5AA7F17D8EB0B03F1F9
:10150000780003F1770EC300DBE5C2F800A092E794
:101510000123CAF80430A8E6B2F5AA7F24D84FEA1E
:10152000DC3202F17803DB007732CDE640F2545230
:10153000934224D8AB0C03F17D0003F17C0EC30071
:10154000BFE5009A083A9044A8EB0A084FF0000B58
:101550008BE7304604F108010093FFF771FC009B14
:10156000D7F808A018689FE740F254539A420CD865
:101570004FEA9C4202F17D03DB007C32A4E64FF48B
:101580007E737F204FF07E0E9BE54FF47E737E22AC
:101590009AE67B682DE700BF740900200148FFF739
:1015A000DFBB00BF640900200148FFF7DBBB00BFC1
:1015B0006409002070B500293FD006460C4610B1E2
:1015C000436B002B3CD0636EB4F90C20DD0732D4A2
:1015D000900538D52146304600F04CF8E36A0546C0
:1015E00033B1E169304698470028B8BF4FF0FF3566
:1015F000A3891A0639D4216B41B104F14003994201
:1016000002D03046FFF71CFC00232363616C21B13C
:101610003046FFF715FC00236364FFF759FA636E49
:101620000022DB07A2811CD5A06DFFF797FBFFF717
:1016300055FA284670BD002ACCD10025284670BD39
:10164000FFF728FABFE7A06DFFF78AFBB4F90C306B
:10165000002BBFD1636ED907EFD4A06DFFF782FBDB
:10166000EBE7A06DFFF77EFBDEE721693046FFF771
:10167000E7FBC0E7B1F90C202DE9F04116070C4655
:1016800080464ED4496842F400630029A38163DD9B
:10169000A56A002D42D0002112F48052D8F80060D3
:1016A000C8F80010E16964D101234046A847451CF1
:1016B00002466ED0B4F90C30A56AE169580705D529
:1016C0006368D21A236B0BB1E36BD21A0023404636
:1016D000A847431C4FD1D8F80010B4F90C301D298D
:1016E00040D8314ACA40D7073CD52269226023F44A
:1016F0000062A281DD044FF00002626001D5002982
:1017000045D0216BC8F8006041B104F14003994213
:1017100002D04046FFF794FB002323630020BDE87E
:10172000F0810E69002EF9D00D680E6092070CBF93
:101730004B690023AD1B8B600BE02B463246E16901
:10174000676A4046B847B0F1000CA5EB0C0566444B
:1017500006DD002DF1DCE1E7E16B002998DCDDE737
:10176000B4F90C3043F04003A3814FF0FF30BDE8E3
:10177000F081226DA2E7B4F90C302269226023F4D3
:101780000062A281DB044FF000026260B9D52065DF
:10179000B7E7D8F80030002B8CD01D2B01D0162BCA
:1017A000DED1C8F80060B9E70100402038B50C462A
:1017B000054608B1436B03B3B4F90C0088B1636EFE
:1017C000DB0701D481050FD528462146FFF752FFDC
:1017D000636EDA07054602D4A3899B0508D528461F
:1017E00038BD0546284638BDA06DFFF7B9FAEBE7CE
:1017F000A06DFFF7B7FA284638BDFFF74BF9DBE7D6
:1018000050B338B5174B1D6804460DB16B6BBBB1B7
:10181000B4F90C0088B1636EDB0701D4810513D5E0
:1018200028462146FFF726FF636EDA07054602D4F5
:10183000A3899B050CD5284638BD0546284638BDEA
:101840002846FFF727F9E3E7A06DFFF789FAE7E7F6
:10185000A06DFFF787FAEEE7034A04490448FFF753
:1018600043B900BF0C00002000000020AD170008A5
:101870001000002038B5074D0022044608462A60B3
:1018800000F09AFA431C00D038BD2B68002BFBD027
:10189000236038BD6009002038B5074D074C2C1B6C
:1018A000A41005D0013C55F8043D9847002CF9D10F
:1018B000BDE8384009F07CBF40C000083CC00008CB
:1018C000082802D14FF48050704708B500F046F860
:1018D000162303604FF0FF3008BD00BF2DE9F84329
:1018E0001B4D0646286898460F469146FFF738FA82
:1018F000184B1C681CB3286865681F2D22DC4EB984
:101900006B1C0235636044F82570FFF72BFA00204A
:10191000BDE8F88304EB85010123C1F88890D4F871
:101920008821AB401A43022EC4F88821C1F80881EF
:10193000E6D1D4F88C211A43C4F88C21E0E7064C98
:101940001C60D8E7FFF70EFA4FF0FF30E0E700BF6A
:101950005001002070090020A8090020014B1868E0
:10196000704700BF0C00002008B502F0A5FB1E4C1C
:101970002060C36F984723681B6A98472368D3F891
:101980008030984702F078FE184B186802F04BF848
:10199000206802F0D7FF206803F05EF8206803F0AB
:1019A0008DF8206803F010F8114B41F28832DA63A9
:1019B0001A6402F0F3FD052003F02CF80D4803F043
:1019C000ABF80AE0D2F888009847074B1B68002262
:1019D000C3F88420074803F09FF8034B1A68D2F835
:1019E0008430002BEED1F8E7480B0020440B002098
:1019F00000040040C0B7000818490B684A6801336A
:101A000042F100020B604A600A2B72F1000209D316
:101A10000B4600200021C3E90001114B1A6813692D
:101A2000013313610E4B1B681A69632A04D9002223
:101A30001A619A6801329A609A683C2A07D01A683B
:101A40005968013241F100011A6059607047002263
:101A50009A60DA680132DA60F1E700BF380B0020E3
:101A6000480B00204FF080431A691A6922F00102E6
:101A70001A61704708B5094BDB6913F0200F05D1D7
:101A8000064A136A43F00803136208BD044A054B73
:101A90001968024802F09CF9F2E700BF001001400B
:101AA00068050020400B002008B5084BDB6913F0E7
:101AB000200F05D1054AD36943F00803D36108BD5F
:101AC000034B1968014801F0D4FFF3E700440040DC
:101AD000440B0020FEE7000008B5DFF864D000F0FA
:101AE000E5F9104B104A03E052F8041B43F8041BBD
:101AF0000E498B42F8D30E4B02E0002243F8042B30
:101B00000C4A9342F9D30C4B02E0002243F8042B19
:101B10000A4A9342F9D3FFF7F7F800F071F9FFF79B
:101B200023FFFEE70000002040C00008040800205A
:101B300008080020CC0B00200000002400E1002455
:101B40000000022030B59DB0514B012119600022E8
:101B50001A619A61DA611A629A62DA621A664D4B08
:101B6000C3F808114C4B5B6913F4003F12D1BFF36B
:101B70004F8FBFF36F8F484BC3F85022BFF34F8F87
:101B8000BFF36F8F5A6942F400325A61BFF34F8F2F
:101B9000BFF36F8F404B5B6913F4803F27D13E4BFF
:101BA0000022C3F88420BFF34F8FD3F88040C4F3E2
:101BB0004E3000E01846C4F3C90243F6E07303EA6E
:101BC000401343EA82733449C1F860321346013A44
:101BD000002BF2D1431E0028ECD1BFF34F8F4B698D
:101BE00043F480334B61BFF34F8FBFF36F8F2A4AAB
:101BF000D2F89C3243F00403C2F89C324C220021FC
:101C000009A8FEF7DBFF2022002101A8FEF7D6FF7E
:101C1000022000F04DF900230093204B9A6922F432
:101C200040429A619B6903F440430093009B1B4B25
:101C30009B6913F4005FFAD0012209924FF48033BC
:101C40000A93022312931393052114914FF49B716D
:101C500015911693179318920425199500241A9438
:101C60001B9409A800F04EF93F230193032302932C
:101C70000394082304934023059306940794089340
:101C800029460DEB050000F02BFD1DB030BD00BF57
:101C9000004402580080005100ED00E00048025866
:101CA000094B1B68094AA2FB03239B09013B4FF028
:101CB000E02253610023064981F8233093611369C0
:101CC00043F0070313617047AC050020D34D621049
:101CD00000ED00E0104B1B68104AA2FB03239B0C95
:101CE00000FB03F3013B4FF0E022536100239361BB
:101CF000136943F0010313614FF0E0231B6913F4F0
:101D0000803FF9D04FF0E0231A6922F001021A61F6
:101D100000229A61704700BFAC05002083DE1B43A0
:101D200038B50546002404E04FF47A70FFF7D2FF7F
:101D30000134AC42F8D338BD0120704708B5FFF735
:101D40000DFE162303604FF0FF3008BD08B54FF0BD
:101D5000FF31FFF7F3FFFEE770B50C46164600258E
:101D600006E0AFF30080214601F8010B01350C4677
:101D7000B542F6DB304670BD10464FF0000C0AE06D
:101D8000064BDB6913F0800FFAD011F80C20034BDF
:101D90009A620CF1010C8445F2DB7047001001409F
:101DA0004FF0FF3070474FF400534B6000207047F6
:101DB000012070470020704710B503460C4A0D49BA
:101DC0000D48006840B10C4800680344521A934221
:101DD00006D8094A136010BD0748084C0460F2E7B2
:101DE000FFF7BCFD0C2303604FF0FF30F3E700BFAB
:101DF00000000220000800004C0B0020D00B002047
:101E0000224AD2F8883043F47003C2F88830204B5D
:101E10001B6803F00F03062B06D81D4A136823F036
:101E20000F0343F0070313601A4B1A6842F00102D4
:101E30001A6000221A611968174A0A401A60144B86
:101E40001B6813F0080F06D0114A136823F00F0324
:101E500043F0070313600F4B00229A61DA611A62A4
:101E60000E4999620E49D9620E4919635A63996302
:101E7000DA6319645A64196821F4802119601A66BA
:101E8000094B43F2D2021A60704700BF00ED00E038
:101E900000200052004402587FEDF6EA00020202E0
:101EA0000000FF0180020101004000527047000065
:101EB000134BDB6813F0040F07D1114BDB6803F001
:101EC000070383421AD00120704710B50C4AD3682B
:101ED00023F007030343D36000F048FE0446084B99
:101EE0005B6813F4005F07D100F040FE001BB0F503
:101EF0007A7FF4D9012000E0002010BD0020704757
:101F000000480258002800F0D58238B5044603681E
:101F100013F0010F25D0A04A136903F03803926A29
:101F2000102B15D0182B0FD06368B3F5803F3FD02E
:101F3000002B53D1984B1A6822F480321A601A6829
:101F400022F480221A6038E002F00302022AEBD168
:101F5000914B1B6813F4003F03D06368002B00F023
:101F6000AB82236813F0020F00F088808A4A13695D
:101F7000926A13F038035AD0182B55D0E368002B1F
:101F800000F0A98084490A6822F0190213430B600B
:101F900000F0ECFD0546804B1B6813F0040F40F089
:101FA000918000F0E3FD401B0228F4D903208AE26F
:101FB000794A136843F48033136063682BB300F0ED
:101FC000D5FD0546744B1B6813F4003FC9D100F0E2
:101FD000CDFD401B6428F5D9032074E2B3F5A02F92
:101FE00009D06D4B1A6822F480321A601A6822F404
:101FF00080221A60E1E7684B1A6842F480221A6076
:102000001A6842F480321A60D7E700F0AFFD054647
:10201000614B1B6813F4003FA3D000F0A7FD401BE9
:102020006428F5D903204EE212F0030FA6D15A4BD3
:102030001B6813F0040F03D0E368002B00F03E820E
:10204000554A136823F01903E1680B43136000F04D
:102050008DFD0546504B1B6813F0040F06D100F0B0
:1020600085FD401B0228F5D903202CE24A4A53681B
:1020700023F0FE43216943EA01635360236813F0B0
:10208000100F51D0444A136903F03803926A082BA9
:1020900039D0182B33D0E369002B69D03E4A13683E
:1020A00043F08003136000F061FD05463A4B1B6866
:1020B00013F4807F53D100F059FD401B0228F5D95D
:1020C000032000E2344A536823F0FE43216943EAC7
:1020D00001635360D2E7304A136823F001031360B1
:1020E00000F044FD05462C4B1B6813F0040FC5D0CF
:1020F00000F03CFD401B0228F5D90320E3E102F08B
:102100000302012AC7D1244B1B6813F4807F03D03C
:10211000E369802B40F0D4811F4AD36823F07C53BD
:10212000216A43EA0163D360236813F0080F49D0A2
:102130006369002B32D0184A536F43F00103536791
:1021400000F014FD0546144B5B6F13F0020F39D1FC
:1021500000F00CFD401B0228F5D90320B3E10E4A24
:10216000D36823F07C53216A43EA0163D360DBE741
:10217000094A136823F08003136000F0F7FC05465A
:10218000054B1B6813F4807FCED000F0EFFC401BA2
:102190000228F5D9032096E1004402589D4A536F66
:1021A00023F00103536700F0E1FC0546994B5B6F98
:1021B00013F0020F06D000F0D9FC401B0228F5D91D
:1021C000032080E1236813F0200F29D0A3699BB17D
:1021D000904A136843F48053136000F0C7FC05462F
:1021E0008C4B1B6813F4005F1AD100F0BFFC401B3E
:1021F0000228F5D9032066E1864A136823F4805348
:10220000136000F0B3FC0546824B1B6813F4005FBB
:1022100006D000F0ABFC401B0228F5D9032052E1A8
:10222000236813F0040F21D1636A002B00F04A8168
:10223000784A126902F03802182A00F0F180022B65
:1022400075D0744A136823F08073136000F08EFC1D
:102250000446704B1B6813F0007F00F0D88000F03C
:1022600085FC001B0228F4D903202CE16A4A13687C
:1022700043F48073136000F079FC0546664B1B68DD
:1022800013F4807F06D100F071FC401B6428F5D95F
:10229000032018E1A368012B0AD00BBB5D4B1A6F1A
:1022A00022F001021A671A6F22F004021A6704E092
:1022B000584A136F43F001031367A36833B300F068
:1022C00055FC0546534B1B6F13F0020FACD100F0C9
:1022D0004DFC401B41F288339842F3D90320F2E0D1
:1022E000052B09D04B4B1A6F22F001021A671A6FA7
:1022F00022F004021A67E0E7464B1A6F42F004022C
:102300001A671A6F42F001021A67D6E700F02EFC36
:102310000546404B1B6F13F0020F85D000F026FCE2
:10232000401B41F288339842F3D90320CBE0394A6D
:10233000136823F08073136000F018FC0546354BDA
:102340001B6813F0007F06D000F010FC401B022831
:10235000F5D90320B7E02F4B996A304A0A40A16AA9
:10236000E06A41EA00110A439A62226B013AC2F321
:102370000802616B0139490289B20A43A16B013934
:10238000090401F4FE010A43E16B0139090601F079
:10239000FE410A431A63DA6A22F00102DA625A6BDA
:1023A0006FF3CF02A16C42EAC1025A63DA6A22F0EB
:1023B0000C02216C0A43DA62DA6A22F00202616CD2
:1023C0000A43DA62DA6A42F48032DA62DA6A42F4A2
:1023D0000032DA62DA6A42F48022DA62DA6A42F0C1
:1023E0000102DA621A6842F080721A6000F0BEFBE5
:1023F0000446084B1B6813F0007F06D100F0B6FBC3
:10240000001B0228F5D903205DE000205BE00020DE
:1024100059E000BF00440258004802580CFCFFFF7E
:1024200030498A6A086B012B4ED002F00303A16A7F
:102430008B424BD1C2F30512E36A9A4248D1C0F3F2
:102440000802236B013B9A4244D1C0F34622636BDE
:10245000013B9A4240D1C0F30642A36B013B9A4232
:102460003CD1C0F30660E36B013B984238D11D4B71
:102470005B6BC3F3CC03A26C9A4201D1002022E033
:10248000184AD36A23F00103D36200F06FFB0546BC
:1024900000F06CFBA842FBD0124A536B6FF3CF03E2
:1024A000A16C43EAC1035363D36A43F00103D362CF
:1024B000002008E001207047012004E0012002E034
:1024C000012000E0002038BD0120FCE70120FAE7F0
:1024D0000120F8E70120F6E70120F4E70120F2E708
:1024E0000120F0E700440258754B1B6903F03803E4
:1024F000102B00F0DE80182B0FD0002B40F0DB807B
:102500006F4B1B6813F0200F00F0D7806C4B1B68DB
:10251000C3F3C1036B48D840704710B4684B9A6A44
:1025200002F003029C6AC4F30510D96A01F00101AC
:102530005B6BC3F3CC0301FB03F307EE903AF8EEB9
:10254000677A14F47C7F77D0012A4AD0022A76D0A9
:10255000002A40F091805A4B1B6813F0200F23D0C3
:1025600057490A68C2F3C102564BD34007EE103AEE
:10257000F8EE476A07EE100AB8EE476A86EE867AEA
:102580000B6BC3F3080306EE903AF8EE666A9FED14
:102590004E6A67EE867A76EEA77AF7EE006A77EEF5
:1025A000A67A27EE277A38E007EE100AF8EE476A97
:1025B0009FED466A86EE267A414B1B6BC3F30803F8
:1025C00006EE903AF8EE666A9FED3F6A67EE867A0D
:1025D00076EEA77AF7EE006A77EEA67A27EE277AEC
:1025E0001BE007EE100AF8EE476A9FED396A86EEA7
:1025F000267A334B1B6BC3F3080306EE903AF8EED2
:10260000666A9FED316A67EE867A76EEA77AF7EE14
:10261000006A77EEA67A27EE277A294B1B6BC3F365
:102620004623013307EE903AF8EE677AC7EE276A41
:10263000FCEEE67A17EE900A5DF8044B704707EE61
:10264000100AF8EE476A9FED236A86EE267A1C4B45
:102650001B6BC3F3080306EE903AF8EE666A9FED33
:102660001A6A67EE867A76EEA77AF7EE006A77EE58
:10267000A67A27EE277AD0E707EE100AF8EE476A27
:102680009FED136A86EE267A0D4B1B6BC3F308038E
:1026900006EE903AF8EE666A9FED0B6A67EE867A70
:1026A00076EEA77AF7EE006A77EEA67A27EE277A1B
:1026B000B3E709487047094870470248704700BFB0
:1026C000004402580090D003000000390024744CEC
:1026D0000024744A20BCBE4B40787D0100093D00B7
:1026E000002800F0328170B50D4604469B4B1B68F4
:1026F00003F00F038B420BD2984A136823F00F03A9
:102700000B431360136803F00F038B4240F01F81EB
:10271000236813F0040F0CD02269914B9B6903F0DE
:1027200070039A4205D98E498B6923F070031A43CE
:102730008A61236813F0080F0CD06269884BDB694B
:1027400003F070039A4205D98549CB6923F07003E1
:102750001A43CA61236813F0100F0CD0A269804B92
:10276000DB6903F4E0639A4205D97D49CB6923F420
:10277000E0631A43CA61236813F0200F0CD0E269AA
:10278000774B1B6A03F070039A4205D974490B6AB0
:1027900023F070031A430A62236813F0020F0CD06F
:1027A000E2686F4B9B6903F00F039A4205D96C49AD
:1027B0008B6923F00F031A438A61236813F0010F1A
:1027C00041D0674A936923F47063A1680B43936116
:1027D0006368022B0AD0032B27D0012B2CD0604A30
:1027E000126812F0040F06D10120ADE0126812F455
:1027F000003F00F0AE805A490A6922F007021343F5
:102800000B6100F0B3F90646554B1B6903F0380322
:102810006268B3EBC20F16D000F0A8F9801B41F23A
:1028200088339842F0D903208EE04D4A126812F0A6
:10283000007FE0D1012087E0494A126812F4807FCE
:10284000D9D1012080E0236813F0020F0CD0E26898
:10285000434B9B6903F00F039A4205D240498B69B1
:1028600023F00F031A438A613C4B1B6803F00F03EC
:10287000AB420AD9394A136823F00F032B43136084
:10288000136803F00F03AB4265D1236813F0040F04
:102890000CD02269324B9B6903F070039A4205D237
:1028A0002F498B6923F070031A438A61236813F060
:1028B000080F0CD062692A4BDB6903F070039A425F
:1028C00005D22749CB6923F070031A43CA612368F4
:1028D00013F0100F0CD0A269214BDB6903F4E06305
:1028E0009A4205D21E49CB6923F4E0631A43CA61B8
:1028F000236813F0200F0CD0E269194B1B6A03F018
:1029000070039A4205D216490B6A23F070031A43EA
:102910000A62FFF7E9FD12498B69C3F30323114AE9
:10292000D35C03F01F03D8408B6903F00F03D35C23
:1029300003F01F0320FA03F30B4A13600B4B1860DC
:102940000B4B186800F016F870BD0120704701208D
:10295000FAE70120F8E70120F6E700BF0020005267
:1029600000440258B8BD0008A8050020AC050020AE
:10297000B405002070B5C2B0064600234193012281
:102980002E9237934FF480332F9303F513432C93F8
:102990002EA8FFF7B7FA054610B35DBB494B1C687C
:1029A000CA23636253236362A36823F48073A36022
:1029B000E368DBB263F4C073E36000234193E36830
:1029C00013F0010F2ED1419A531C41933E4B1B68CB
:1029D0003E49A1FB0313B2EB531FF0D10125EEE7F3
:1029E0004FF480020023CDE90023684600F020FA6E
:1029F000054610B1284642B070BD354A136F43F406
:102A0000004313672F48334B036000234360632266
:102A100082600922C26003618361C36100F0B0FF7C
:102A20000546BAE7002DE5D10123E361A36843F42D
:102A30008073A360A36843F48053A3604FF0B04356
:102A4000D3F8802042F40032C3F880201A6842F4A0
:102A500000321A601B4B1868C36813F0400F15D181
:102A60004FF0FF33C36000234193C36813F0400F5E
:102A70000CD1419A531C4193134B1B681349A1FB82
:102A80000313B2EB531FF0D10125EEE7002DB1D1B6
:102A90000023436003600B4B1B68DA6822F080025E
:102AA000DA60FF225A62292000F0B6F80F2E01D911
:102AB00001259FE700223146292000F09DF8064BB2
:102AC0001E6097E7500B0020AC050020ABAAAAAA15
:102AD0000044025800400058B405002030B583B0CF
:102AE00005460023019300F035F82B68CA225A628C
:102AF0002B6853225A622B684FF0FF32DA602C6841
:102B0000E36813F0400F0AD1019A531C01930B4B59
:102B10001B680B49A1FB0313B2EB531FEFD100233A
:102B200063602A6813602A68D36823F08003D36047
:102B30002B68FF225A6203B030BD00BFAC050020F5
:102B4000ABAAAAAA08B5024800F089FE08BD00BFDA
:102B5000500B0020034B1B78034A11680B44136091
:102B6000704700BFB0050020740B0020014B1868AF
:102B7000704700BF740B0020002807DB00F01F0225
:102B8000400901239340024A42F82030704700BFB9
:102B900000E100E0002804DB0901C9B2044B19542C
:102BA000704700F00F000901C9B2024B1954704779
:102BB00000E400E014ED00E000B500F00700C0F113
:102BC000070CBCF1040F28BF4FF0040C031D062BAB
:102BD0000FD9C31E4FF0FF3E0EFA0CF021EA0001A0
:102BE00099400EFA03FE22EA0E0241EA02005DF865
:102BF00004FB0023EEE7000010B50446054BD8683F
:102C0000C0F30220FFF7D8FF01462046FFF7C2FFBE
:102C100010BD00BF00ED00E008B5FFF7ADFF08BD37
:102C2000404B9B6A03F00303032B79D070B5054634
:102C30000E463C4A136823F080631360FFF796FF4B
:102C40000446384B1B6813F0006F06D0FFF78EFF69
:102C5000031B022BF5D9032070BD324B9A6A22F474
:102C60007C32296842EA01329A626A68013AC2F308
:102C70000802A9680139490289B20A43E9680139A1
:102C8000090401F4FE010A4329690139090601F02A
:102C9000FE410A439A63DA6A22F0C00269690A4374
:102CA000DA62DA6A22F02002A9690A43DA62DA6A91
:102CB00022F01002DA62DA6B6FF3CF02E96942EABE
:102CC000C102DA63DA6A42F01002DA62C6B91A4661
:102CD000DB6A43F40023D362124A136843F0806333
:102CE0001360FFF743FF04460E4B1B6813F0006FA1
:102CF00014D1FFF73BFF001B0228F5D90320ABE7F7
:102D0000012E05D0074AD36A43F40013D362E3E7E8
:102D1000044AD36A43F48013D362DDE700209BE7C3
:102D20000120704700440258404B9B6A03F00303A4
:102D3000032B79D070B505460E463C4A136823F044
:102D400080531360FFF712FF0446384B1B6813F0E3
:102D5000005F06D0FFF70AFF031B022BF5D9032003
:102D600070BD324B9A6A22F07C72296842EA0152A5
:102D70009A626A68013AC2F30802A96801394902F5
:102D800089B20A43E9680139090401F4FE010A43E2
:102D900029690139090601F0FE410A431A64DA6A19
:102DA00022F4406269690A43DA62DA6A22F4007244
:102DB000A9690A43DA62DA6A22F48072DA625A6C2A
:102DC0006FF3CF02E96942EAC1025A64DA6A42F457
:102DD0008072DA62C6B91A46DB6A43F48003D362B2
:102DE000124A136843F080531360FFF7BFFE044696
:102DF0000E4B1B6813F0005F14D1FFF7B7FE001BEA
:102E00000228F5D90320ABE7012E05D0074AD36A83
:102E100043F08073D362E3E7044AD36A43F40003C8
:102E2000D362DDE700209BE7012070470044025891
:102E3000F8B50446036813F0006F2FD0436EB3F566
:102E4000001F25D015D8E3B1B3F5801F0ED10221A4
:102E50000830FFF7E5FE054675BB934A136D23F472
:102E60004013616E0B431365002619E001263546B9
:102E700016E0B3F5401F01D10025EEE701263546E7
:102E80000EE0894AD36A43F40033D3620025E4E7B5
:102E900002212830FFF748FF0546DDE700263546CA
:102EA000236813F4807F29D0A36D042B22D8DFE898
:102EB00003F005131A0A0A002E46F1E77A4AD36A8C
:102EC00043F40033D362C5B9774A136D23F0070387
:102ED000A16D0B43136511E0002104F10800FFF719
:102EE0009FFE0546EFE7002104F12800FFF71CFFD5
:102EF0000546E8E70126354600E02E46236813F430
:102F0000806F2DD0D4F8A430B3F5800F3DD00DD80C
:102F1000C3B1B3F5001F06D1002104F10800FFF78B
:102F20007FFE054613E00126354619E0B3F5000F94
:102F30000DD0B3F5200F0AD0B3F5C00F07D001268E
:102F400035460DE0584AD36A43F40033D3621DBBC3
:102F5000554A936D23F46003D4F8A4100B43936592
:102F6000236813F4006F37D0D4F8A830B3F1007F92
:102F70005ED016D80BB3B3F1807F0FD1002104F1DE
:102F80000800FFF74DFE05461CE0002104F1280073
:102F9000FFF7CAFE0546DAE72E46E1E70126354689
:102FA0001AE0B3F1806F0DD0B3F1A06F0AD0B3F186
:102FB000407F07D0012635460EE03B4AD36A43F4F2
:102FC0000033D362002D3AD1374A936D23F0E0638A
:102FD000D4F8A8100B439365236813F0007F13D037
:102FE000E36C202B35D02FD833B1102B29D12E4AAA
:102FF000D36A43F40033D36295BB2B4AD36C23F0DE
:103000003003E16C0B43D364236813F4805F4ED02C
:10301000E36DB3F5005F3FD027D87BB3B3F5805F96
:1030200020D1002104F10800FFF7FAFD05462AE04F
:10303000002104F12800FFF777FE0546C2E72E467F
:10304000CAE701263546DFE7302BD5D001263546C5
:10305000DAE7022104F10800FFF7E2FD0546CBE7BD
:103060002E46D1E70126354621E0B3F5405F0AD070
:10307000B3F5804F07D00126354618E00A4AD36AD7
:1030800043F40033D3628DB9074A136D23F4E04350
:10309000E16D0B4313650AE0002104F12800FFF7FE
:1030A00043FE0546EFE700BF004402582E46236862
:1030B00013F4005F17D0236EB3F5003F4FD042D812
:1030C00043B1B3F5803F3BD1012104F10800FFF784
:1030D000A7FD0546002D49D1924A136D23F4E02344
:1030E000216E0B431365236813F4804F19D0D4F875
:1030F000AC30B3F1005F4AD03DD843B1B3F1805F4B
:1031000036D1012104F10800FFF78AFD0546002DA4
:1031100044D1844A936D23F0E043D4F8AC100B43C0
:103120009365236813F4004F47D0E36EB3F1805FDB
:1031300036D0B3F1005F4BD0BBB3012635463CE03F
:1031400001263546CFE7B3F5802FC3D0B3F5A02FC6
:10315000C0D0B3F5403FBDD001263546C3E70121BD
:1031600004F12800FFF7E0FD0546B3E72E46BAE775
:1031700001263546D5E7B3F1804FC8D0B3F1A04F53
:10318000C5D0B3F1405FC2D001263546C9E7012161
:1031900004F12800FFF7C8FD0546B8E72E46C0E752
:1031A000604AD36A43F40033D362C5B95D4A136DF4
:1031B00023F04053E16E0B431365236813F0807FC7
:1031C0001CD0A36C032B44D8DFE803F0100B3C1099
:1031D000012104F10800FFF723FD0546E5E72E462F
:1031E000EBE7504AD36A43F40033D362A5BB4D4AA0
:1031F000D36C23F00303A16C0B43D364236813F453
:10320000800F2BD1236813F0010F00F0A980A36F6A
:10321000282B00F2A380DFE803F091A1A1A1A1A1D6
:10322000A1A18BA1A1A1A1A1A1A19AA1A1A1A1A1AB
:10323000A1A191A1A1A1A1A1A1A191A1A1A1A1A19E
:10324000A1A19100022104F10800FFF7E9FC054665
:10325000CCE701263546D1E72E46CFE7324A136840
:1032600043F480731360FFF781FC07462E4B1B6805
:1032700013F4807F05D1FFF779FCC01B6428F5D9D2
:103280000325002D4AD1274B1B6FD4F8B0205340A3
:1032900013F4407F0CD0234B1A6F22F44072196F45
:1032A00041F480311967196F21F4803119671A6769
:1032B000D4F8B030B3F5807F15D08DBBD4F8B030E2
:1032C00003F44072B2F5407F1ED0164A136923F40E
:1032D0007C53136113490B6FD4F8B020C2F30B0277
:1032E00013430B678EE7FFF741FC07460D4B1B6F3F
:1032F00013F0020FE1D1FFF739FCC01B41F2883314
:103300009842F3D90325D8E70648026922F47C5293
:10331000064901EA131313430361DBE72E4671E705
:103320002E466FE70044025800480258CFFFFF00C6
:10333000012104F10800FFF773FC0546E5B9B14A25
:10334000536D23F03803A16F0B43536508E001214F
:1033500004F12800FFF7E8FC0546EFE701263546B3
:10336000236813F0020F17D0636F052B29D8DFE80D
:1033700003F00B05210B0B0B2E46F1E7012104F1A5
:103380000800FFF74DFC0546F5B99E4A536D23F042
:103390000703616F0B435365236813F0040F26D0B6
:1033A000D4F89030052B00F2D680DFE803F0150F3B
:1033B000CD151515012104F12800FFF7B5FC0546D0
:1033C000E2E701263546E7E72E46E5E7012104F16D
:1033D0000800FFF725FC0546002D40F0BF80894A14
:1033E000936D23F00703D4F890100B439365236883
:1033F00013F0200F1DD0D4F88C30B3F1005F00F033
:10340000C18000F2B0804BB1B3F1805F40F0A88082
:10341000002104F10800FFF703FC0546002D40F0F1
:10342000B880784A536D23F0E043D4F88C100B43F6
:103430005365236813F0400F1DD0D4F89830B3F5CE
:10344000006F00F0BA8000F2A9804BB1B3F5806F35
:1034500040F0A180002104F10800FFF7E1FB0546E0
:10346000002D40F0B180674A936D23F4E053D4F807
:1034700098100B439365236813F0800F1DD0D4F888
:103480009C30B3F5804F00F0B38000F2A2804BB1C6
:10349000B3F5005F40F09A80002104F10800FFF7C7
:1034A000BFFB0546002D40F0AA80564A936D23F4D9
:1034B0006043D4F89C100B439365236813F0080F06
:1034C0000DD0D4F88030B3F5805F00F09D804D4A78
:1034D000536D23F44053D4F880100B435365236895
:1034E00013F0100F0DD0D4F89430B3F5807F00F0B6
:1034F0009580444A936D23F44073D4F894100B43A1
:103500009365236813F4002F00F09D80D4F8A03059
:10351000B3F5803F00F08C80B3F5003F08D0002B5E
:1035200040F08D80002104F10800FFF779FB05468B
:10353000002D40F08780334A936D23F44033D4F854
:10354000A0100B4393657EE0012104F12800FFF7F2
:10355000EBFB054640E70126354648E72E4646E7A1
:103560000126354665E7B3F1804F3FF457AFB3F11D
:10357000A04F3FF453AFB3F1405F3FF44FAF01268C
:10358000354656E7022104F12800FFF7CDFB05463A
:1035900044E72E464DE7012635466CE7B3F5805FDC
:1035A0003FF45EAFB3F5A05F3FF45AAFB3F5406FA1
:1035B0003FF456AF012635465DE7022104F12800AD
:1035C000FFF7B2FB05464BE72E4654E7012635468A
:1035D00073E7B3F5004F3FF465AFB3F5204F3FF409
:1035E00061AFB3F5C04F3FF45DAF0126354664E7E8
:1035F000022104F12800FFF797FB054652E72E460B
:103600005BE700BF00440258022104F12800FFF7E5
:103610008BFB00283FF45BAF012658E7022104F141
:103620002800FFF781FB00283FF463AF012660E725
:10363000022104F12800FFF777FB054678E7012611
:10364000354600E02E46236813F4802F24D0D4F8AA
:103650008430B3F5001F14D0B3F5401F07D0B3F585
:10366000801F15D17C4AD36A43F40033D36295B9E5
:10367000794A536D23F44013D4F884100B435365F7
:103680000AE0012104F12800FFF74EFB0546EEE7B2
:103690000126354600E02E46236813F4803F06D00D
:1036A000236DCBB1B3F5803F24D001263546236886
:1036B00013F0005F27D1236813F4003F3DD0E36F80
:1036C000B3F5807F2BD027D9B3F5007F2CD0B3F58D
:1036D000407F29D0012630E05F4AD36A43F40033AB
:1036E000D36275B95C4AD36C23F48033216D0B43EC
:1036F000D364DCE7022104F10800FFF791FA0546E4
:10370000EFE72E46D3E7022104F12800FFF70CFB78
:103710000028D0D00126CEE733B101260DE04E4A75
:10372000D36A43F40033D362002D5CD14A4A536D0F
:1037300023F44073E16F0B435365236813F4801F38
:1037400006D0454A136D23F00043216F0B431365E8
:10375000236813F4001F06D03F4A136D23F08073D3
:10376000A16E0B431365236813F0804F09D03A4BC9
:103770001A6922F400421A611A69D4F8B4100A4393
:103780001A612368002B06DA334AD36C23F04053C6
:10379000616D0B43D364236813F4000F07D02E4AE6
:1037A000536D23F44003D4F888100B4353656368CA
:1037B00013F0010F19D1636813F0020F1ED1636873
:1037C00013F0040F23D1636813F0080F28D1636846
:1037D00013F0100F2DD1636813F0200F32D106B112
:1037E00001263046F8BD2E46A7E7002104F1080067
:1037F000FFF716FA0028DED00646DCE7012104F1C7
:103800000800FFF70DFA0028D9D00646D7E70221B5
:1038100004F10800FFF704FA0028D4D00646D2E7E6
:10382000002104F12800FFF77FFA0028CFD00646D8
:10383000CDE7012104F12800FFF776FA0028CAD06D
:103840000646C8E7022104F12800FFF76DFA0028B8
:10385000C5D00126C5E700BF00440258704710B527
:1038600004464FF0B0434FF40032C3F88820036899
:103870009A6812F4805F03D0DA6812F4807F0CD16A
:1038800023689A6812F4005F03D0DA6812F4007FAC
:103890000BD1012384F8213010BDDA68D2B262F472
:1038A000C072DA60FFF71AF9EAE7DA68D2B262F4B6
:1038B0002072DA60204600F0B5F8EAE738B5044631
:1038C00003680A4ADA60FFF751F905462368DB68A6
:1038D00013F0200F07D1FFF749F9401BB0F57A7FAD
:1038E000F4D9032000E0002038BD00BF5FFF0300D3
:1038F00070B50368DA6812F0400F02D00025284640
:1039000070BD04464FF0FF32DA60FFF72FF906462C
:1039100000252368DB6813F0400FF0D1032DEED0B3
:10392000FFF724F9831BB3F57A7FF2D9032584F8D6
:103930002150EEE710B50446104BDA6822F0800201
:10394000DA609B6813F0200F06D1FFF7B7FF98B13C
:10395000032084F821000FE0084A936823F0200335
:103960009360FFF7ABFF10B1032084F82100034AF6
:10397000936843F02003936010BD00BF00400058DF
:1039800000284BD038B5044690F8213063B10223AB
:1039900084F821302368DA6812F0100F09D0002073
:1039A000012384F8213038BD80F82030FFF756FF1E
:1039B000EDE7CA225A62236853225A622046FFF773
:1039C00097FF28B12368FF225A620028EBD1E7E76E
:1039D00022689168124B0B40936021688A68636883
:1039E00020690343A069034313438B60A168E36824
:1039F000226843EA014313612046FFF79BFF00283A
:103A0000E0D12268D36C23F00303D3642168CB6C2C
:103A1000E26965692A431343CB64D3E70120704709
:103A2000BFFF8FFF704770B50446002505604560F5
:103A30008560057345738573C57305744574857416
:103A4000C5740575C0F81550C0F81950C0F81D5060
:103A5000C0F82150C0F82550642632462946293046
:103A6000FDF7ACF83246294604F18D00FDF7A6F8C3
:103A700070BDF8B50C46436ADBB20B73732B12D0E2
:103A8000652B19D02C2B33D0CA7B002A46D0362B7D
:103A900037D8312B3CD3313B052B39D8DFE803F045
:103AA000365A54574E5101224A7300238B73CA73FE
:103AB0008B744B740020F8BD4B7C8A7C19444A758A
:103AC000002565730121A17322750B44E3746574AD
:103AD000A57404F1290664273A46314604F18D00A5
:103AE000FCF77EFD3A4629463046FDF767F8E1E7E8
:103AF0004B7C897CE2185175013363740023A374F5
:103B0000D9E7702B04D170230B7401E001230B74EF
:103B1000A3680BB1204698470023E373637B002B17
:103B2000C9D0637CA27C217B03EB830304EB4303BA
:103B3000134483F829100132A274BCE705230B74E7
:103B4000E6E706230B74E3E703230B74E0E70423A3
:103B50000B74DDE702230B74DAE7C37C8B4221D3BD
:103B600010B5864643185C7D00221046A24218D24A
:103B700001EB81030EEB4303134493F88D30A3F163
:103B8000300C5FFA8CFCBCF1090F09D800EB800007
:103B900003EB40039BB2303B98B20132D2B2E5E76F
:103BA000184610BD0020704770B506460C464049C7
:103BB0002046FCF7A5FBE8B13E492046FCF7A0FBF8
:103BC000E8B13D492046FCF79BFB38B33B49204612
:103BD000FCF796FB054600282FD039492046FCF714
:103BE0008FFB00283DD1374B1B68002B34D0984702
:103BF000002003E0344800F0F9FF002070BD334896
:103C000000F0F4FF2F4B5B681BB1002098470020A9
:103C1000F4E72F4800F080FF0020EFE72D4800F088
:103C2000E5FF284B9B681BB1002098470020E5E783
:103C3000294800F071FF0020E0E7284800F0D6FF97
:103C400003E0274800F068FF0135264B53F82510A4
:103C50000029F6D10020D1E7234800F05DFF0020C5
:103C6000CCE722492046FCF74BFB70B120492046A7
:103C7000FCF746FBC0B91F4800F0B8FF0123F375FD
:103C80001D4800F049FF0020B8E71C4800F0AEFFD7
:103C90000C4B5B691BB1002098470020AEE7184829
:103CA00000F03AFF0020A9E74FF0FF30A6E700BF81
:103CB000D8B70008F0B7000848B80008A8B800084E
:103CC000CCB80008780B0020E0B70008F8B700086F
:103CD00008B8000854B8000864B80008B0B8000874
:103CE000C4B80008B8050020D0B800080CB9000816
:103CF00068B9000870B900087CB9000814B9000858
:103D000028B900082DE9F84381460F462A4C214680
:103D1000033000F08FFF06462146002000F08AFFA6
:103D200080460024132C1FDC244B53F82450002D14
:103D300038D029463046FCF7E3FA08B10134F1E700
:103D400029461F4800F0E8FE42461C4B53F8241059
:103D50004846FFF729FF002822DA184B53F82410B1
:103D6000184800F0D9FE1BE0002400E001342301D4
:103D700007EB0419FD58BDB129463046FCF7C0FADF
:103D80000028F3D12946104800F0C6FE012389F827
:103D90000430C9F808800D4A536843F080535360DB
:103DA000BDE8F8830024E2E7002EF9D0314605484B
:103DB00000F0B2FEF4E700BF84B90008B8050020A7
:103DC00088B90008A0B90008C0B9000800ED00E0FB
:103DD000C36913F0200F00D1704770B504460E463A
:103DE0001546214800F098FEE36913F0200F2AD011
:103DF000606AC3B20A2B18BF0D2B10D07F2B18BFDF
:103E0000082B21D17378F3B1013B7370174800F090
:103E100083FE174B1B689868FDF7F2FC13E073787C
:103E200033440024DC700A2000F08AFE2946304624
:103E3000FFF768FF74700F4800F06EFE0C4B1B68B4
:103E40009868FDF7DDFC70BD7278122AFBD8511C12
:103E50007170B118CB70C0B200F072FE044B1B68D9
:103E60009868FDF7CDFCEEE7A0B80008F8B90008A7
:103E70000C000020ECB9000830B50D4C01EB4105F9
:103E80004FF4346C0CFB00FC0CEBC50504EB050E89
:103E900062558EF811008EF812108EF81030012342
:103EA0008EF813308EF814308EF8153030BD00BF08
:103EB000000000242DE9F04180460F4616461D46BD
:103EC000002407E0E1193346C9B24046FFF7D4FFAA
:103ED0000134E4B22A5D002AF4D1BDE8F08108B4CF
:103EE00070B59BB004460D4616461FAA52F8041B37
:103EF000009201A800F082FE01AB3246294620461E
:103F0000FFF7D8FF1BB0BDE8704001B0704700005C
:103F10002DE9F0410F46164605467FE004EB4402CA
:103F20004FF4346305FB03F303EBC203444A134429
:103F3000597C9A7C0131434800F0EEFD04E02246B2
:103F40002946404800F0E8FD04EB44024FF4346396
:103F500005FB03F303EBC203394A13441B7D012B1A
:103F600025D0374904EB44024FF4346305FB03F3D7
:103F700003EBC20301EB0308C85C00F0E1FD002382
:103F800088F813300134632C44DC04EB44024FF412
:103F9000346305FB03F303EBC203294A1344DB7CC0
:103FA000012BEFD1012EB9D0002ECDD1C7E704EB04
:103FB00044024FF4346305FB03F303EBC203204ACE
:103FC00013441B7C062B21D8DFE803F004080C10F7
:103FD00014181C001C4800F09FFDC2E71B4800F0AD
:103FE0009BFDBEE71A4800F097FDBAE7194800F0BC
:103FF00093FDB6E7184800F08FFDB2E7174800F0D0
:104000008BFDAEE7164800F087FDAAE70E4800F0EA
:1040100083FDA6E7134800F07FFD0135132D01DC79
:104020003C46B0E7104800F077FD104800F074FD02
:104030000F4B1B689868FDF7E3FBBDE8F08100BFFC
:1040400000000024FCB90008A0B8000808BA000865
:1040500010BA000818BA000820BA000828BA0008E8
:1040600030BA000838BA00083CBA000840BA000864
:104070000C0000200D4AD16821F4E0610904090C0C
:104080000B4B0B43D3600B4B4FF080511960202139
:1040900059604020586083F81C13102183F82513C1
:1040A00083F82613302382F82230704700ED00E0B9
:1040B0000004FA0500E100E000487047080600200F
:1040C000002200E00132130100EB0211C3586BB172
:1040D0000B79002BF6D0064B1B68CA68C3F8842006
:1040E0008A68C3F8882000230B717047704700BFAF
:1040F000480B002008B50248FFF7E2FF08BD00BFEB
:104100006805002030B40468216843685A0003231E
:1041100003FA02F221EA0202226004682268C168FE
:1041200045684FEA450C01FA0CF10A432260046825
:10413000A1684268520003FA02F221EA0202A26078
:104140000468A268416945684FEA450C01FA0CF120
:104150000A43A2600468E268416849008B4022EA91
:104160000303E3600468E3680269416849008A4028
:104170001343E36001684B6844680122A24023EACC
:1041800002034B6001684B688269406882401343B8
:104190004B6030BC704710B44368072B13D80468D9
:1041A000226A9B000F2101FA03F322EA0303236230
:1041B0000468236AC269416889008A401343236204
:1041C0005DF8044B70470468626A083B9B000F214E
:1041D00001FA03F322EA030363620468626AC169B5
:1041E0004368083B9B0001FA03F313436362E7E76C
:1041F00039B101684B6940680122824013434B6129
:10420000704701684B6940680122824023EA02033B
:104210004B61704703681A69416801238B401A4259
:1042200003D0012380F820307047002380F820302D
:104230007047000070B4824BD3F8E020C16A0A4393
:10424000C3F8E020D3F8E820816A0A43C3F8E820E5
:10425000002329E0D210083255F82240D3F1000C97
:1042600003F007010CF0070C58BFCCF100018900E6
:104270004FF00F0C0CFA01FC24EA0C0445F8224024
:10428000056B55F82240866D06FA01F1214345F889
:104290002210046B62680121994022EA01026260E7
:1042A000026B5168516001330F2B31DC03F11802AE
:1042B00000EB42029288002AF5D0056B29685C0069
:1042C0000322A24021EA02012960056B29684FF010
:1042D000020C0CFA04FC41EA0C012960056BA96888
:1042E00021EA0201A960056BA9681143A960056B69
:1042F000E96821EA0202EA60056BEA680121A1404F
:104300000A43EA60056B1A46002BA3DADA1DA1E71F
:1043100003684268DA62036882689A6200230FE0E9
:10432000027E012A20D0022A24D001688A6942F440
:1043300000628A6101680A6A42F001020A6201337E
:10434000032B71DCC218127D002AF8D0032BF6D89B
:1043500001A252F823F000BF214300088143000866
:10436000B9430008F143000801688A6942F060021D
:104370008A61DAE701688A6942F070028A61D4E7EB
:10438000027E012A0CD0022A10D001688A6942F408
:1043900000628A6101680A6A42F010020A62CEE78E
:1043A00001688A6942F4C0428A61EEE701688A695D
:1043B00042F4E0428A61E8E7027E012A0CD0022A38
:1043C00010D00168CA6942F40062CA6101680A6AD1
:1043D00042F480720A62B2E70168CA6942F0600280
:1043E000CA61EEE70168CA6942F07002CA61E8E793
:1043F000027E012A0CD0022A10D00168CA6942F458
:104400000062CA6101680A6A42F480520A6296E751
:104410000168CA6942F4C042CA61EEE70168CA692C
:1044200042F4E042CA61E8E70268136843F080039F
:1044300013600268136843F00103136070BC704797
:104440000044025870B500210F2978DC01F10C03FB
:1044500030F81330002B72D085682C685B00032283
:1044600002FA03F324EA03032B608668346801F13F
:104470000C0330F813C04FEA4C0C022505FA0CF57A
:104480002C4334608568AC6830F813C04FEA4C0C9C
:1044900002FA0CFC24EA0C04AC608568AC6830F8C5
:1044A00013C04FEA4C0C02FA0CFC44EA0C04AC605A
:1044B0008668F46830F813506D00AA4024EA0202BE
:1044C000F2608568EC6830F8132052004FF0010C60
:1044D0000CFA02F22243EA60866830F813204FEAB1
:1044E000D20E0EF1080E56F82E4002F0070292008E
:1044F0000F2505FA02F224EA020246F82E2085680A
:1045000030F813204FEAD20E0EF1080E55F82E4067
:1045100002F007029200066C06FA02F2224345F806
:104520002E208468626830F813300CFA03FC22EA0B
:104530000C02626083685A685A60013184E74268FD
:10454000154B03EB5203B3FBF2F30268D36002682E
:10455000136843F0010313600268136823F010230B
:1045600013600268136823F48063136002681368A1
:1045700043F0200313600268936843F48053936010
:104580000268536823F4405353600268136843F091
:104590000C03136070BD00BFC026111710B582B0A8
:1045A000064C6D23009300231A464FF49671204663
:1045B00000F008F8024B236002B010BD900B002001
:1045C000ED45000830B44FF4FA644462064D85624C
:1045D000C4617824C460BDF908404461C16242638B
:1045E000036330BC704700BF18FCFFFF38B50446BA
:1045F0000221164B1868FFF7B0FAA0616369C01A70
:104600006060E3680344E360E269934214DDE260C2
:10461000A268821A2261E16A236BE56805FB03F355
:1046200001FB0033616B01FB02332362626A934238
:1046300007DD2262A06038BD52429342E8DAE260B0
:10464000E6E7A26A9342F5DA2262F3E7440B002020
:1046500008B50649FBF754FE00B108BD04490B6BD1
:104660004A6BC96A034800F057FAF6E750BA0008E7
:10467000900B002054BA0008044B054A1A6000222F
:104680005A609A601A615A61704700BF780B002027
:104690005146000870B582B06E4800F03DFA6E4C8D
:1046A0002346012202210020FFF719FC6B4D2B4607
:1046B000012202211046FFF712FC694B0122022160
:1046C0000846FFF70CFC2B46012202210320FFF7CE
:1046D00006FC2346012202210420FFF700FC614C66
:1046E000234601220A210020FFF7F9FB234601227D
:1046F0000A211046FFF7F3FB5B4D2B4601220A21EE
:104700000220FFF7ECFB594E334601220A21032019
:10471000FFF7E5FB564B01220A210420FFF7DFFBE0
:104720003346012212210020FFF7D9FB2B4601223C
:1047300012211046FFF7D3FB23460122122102204B
:10474000FFF7CDFB4B4B012212210320FFF7C7FBE4
:104750002346012212210420FFF7C1FB464B03220E
:1047600001210720FFF7BBFB444D2B4601221146D8
:104770000820FFF7B4FB424C2346012211460920D2
:10478000FFF7ADFB2346012211460A20FFF7A7FBE6
:104790002346012211460B20FFF7A1FB23460122ED
:1047A00011460C20FFF79BFB2346012211460D20EA
:1047B000FFF795FB2346012211460E20FFF78FFBE2
:1047C0002B46012211460F20FFF789FB2D4B0222B9
:1047D00011460920FFF783FB2B4B022211460A20CA
:1047E000FFF77DFB012211460020FFF791FB24E03B
:1047F000264D274C236800932B46022211210920C5
:10480000FFF76DFB234E33689B6800932B46022213
:104810001B210920FFF763FB3368DB6800932B46FD
:10482000022223210920FFF75AFB01221146002012
:10483000FFF76EFB236801332360174B1B68DA7D9B
:10484000002AD5D00022DA75024800F065F902B0DE
:1048500070BD00BF7CB900086CBA000874BA0008CB
:104860007CBA000884BA00088CBA000894BA000820
:104870009CBA0008A4BA0008ACBA0008F4BA000850
:104880003CBB000884BB0008A8BB0008BCBB0008F8
:10489000C80B0020480B0020400B002008B5016821
:1048A000014800F039F908BDC0BB000810B5044646
:1048B00008E00A4A536983F080035361E3694FF4C7
:1048C0007A709847064B1B68DA7D002AF1D00022E7
:1048D000DA75044800F020F910BD00BF0018025836
:1048E000400B00207CB9000810B504461049FBF7C6
:1048F00007FD70B10F492046FBF702FD70B10E496C
:104900002046FBF7FDFC70B90C4B1868FFF7CEFF93
:1049100003E00A4B186800F035F810BD074B186823
:1049200000F040F8F9E7064800F060F9F5E700BF4D
:10493000DCBB0008E0BB0008E4BB0008480B00201B
:10494000ECBB000810B58AB004460C4AD2F8E0303F
:1049500043F04003C2F8E030094B01930723029370
:10496000012104910023079305930693036B01A88B
:104970009847A36A01A898470AB010BD004402589E
:104980000018025800B585B0054B01930723029328
:10499000036B002101A8984705B05DF804FB00BF38
:1049A0000018025800B585B0064B01930723029307
:1049B00000238DF80C30036B012101A8984705B046
:1049C0005DF804FB0018025810B598B00F4C019424
:1049D0000F4B0D930123ADF83A30ADF83C30022275
:1049E00017920B920C9241F26F72029286220392FE
:1049F0008DF81B308DF81A308DF81C30436F01A8EC
:104A0000984740F6AC53E36318B010BD0004004073
:104A1000000402580F4AD2F8E83043F00103C2F80C
:104A2000E8300C4BD3F8E83013F0020FF9D06423D0
:104A300000FB03F3013B4FF08042D36240F61D734D
:104A40009362D36843F00103D360136843F001031A
:104A5000136070470044025800B593B0144BD3F86C
:104A6000E02042F00102C3F8E020D3F8F02042F049
:104A70001002C3F8F02003F16843A3F59A330093C2
:104A80000C4B01930C4B02930223039300230493DA
:104A9000032305930923ADF818300A23ADF81A3023
:104AA00007231093C36E6846984713B05DF804FB64
:104AB0000044025890D003000000025800B593B0A3
:104AC000124BD3F8E02042F00102C3F8E020D3F803
:104AD000E82042F40032C3F8E8200D4B00934FF475
:104AE000E13301930B4B02930222039200230493C0
:104AF00003230593ADF81820ADF81A30072310935F
:104B0000C36E6846984713B05DF804FB0044025832
:104B100000440040000002580FB400B5074983B0BC
:104B200004AB086853F8042B8168019301F00CFE74
:104B300003B05DF804EB04B0704700BF0C00002028
:104B4000024B01461868826803F0BCBD0C000020CF
:104B500070B5054688B008460C46FBF7F1FD224EBD
:104B60006A6B059001214318CDE9066104A8022172
:104B700004940393AC68019002916AB3636EB4F934
:104B80000C20D90701D496051FD5900405D442F412
:104B9000005223F40053A2816366990420D401AA31
:104BA0002146284603F00EFC636EC8B90A25DA07D1
:104BB00002D4A3899B0502D5284608B070BDA06D1C
:104BC000FCF7D0F8284608B070BDA06DFCF7C8F817
:104BD000B4F90C20636ED8E72846FBF75BFFCDE7FE
:104BE0004FF0FF35E3E700BF68BA0008024B01460B
:104BF0001868FFF7ADBF00BF0C00002070B59AB079
:104C000013460A4E0A466FF0004102910591084989
:104C10000391044600253068199569460094049470
:104C200000F042F8009B1D701AB070BD0C0000200F
:104C30000802FFFF024A12680123503200F002B856
:104C40000C00002018B3F0B407468C4617F8015B3F
:104C500001E0A54214D01CF8014B002CF9D1DDB1C4
:104C60003E460C4616F8015B00E063B114F8013BC8
:104C70009D42FAD14DB100233B701660F0BC7047E5
:104C800073B13846E0E73746EAE72E46F5E71068A5
:104C90000028D8D10020704715600020F0BC704774
:104CA00017600370EAE700BF2DE9F04F2DED048B8C
:104CB000D3B00C46059192460A93834603F0B0FEAA
:104CC000036813931846FBF73BFD22AF11900822AF
:104CD00000213846FBF772FFA3891D0603D523691F
:104CE000002B00F04F8700239FED7F8BCDE927330A
:104CF000CDE91433CDE9163329AA0D9326929046B7
:104D0000129306935446A246794BD3F8E45003F02D
:104D100081FE0097034652461EA95846A847002820
:104D200000F0AE80C0F2A4801E9A252A034601D06E
:104D30009A44E9E7BAEB0406054640F0A580002353
:104D40004FF0FF328DF86F30994607930AF1010A50
:104D50009AF8003004920AF1010AA3F120025A2ABB
:104D600000F2C880DFE812F0E502C600C600E002EB
:104D7000C600C600C6006A00C600C6003702470269
:104D8000C6004202F502C600F0025B005B005B0059
:104D90005B005B005B005B005B005B00C600C60065
:104DA000C600C600C600C600C6004701C600B60160
:104DB000C802470147014701C600C600C600C60039
:104DC000C302C600C6007C02C600C600C600E001E1
:104DD000C6004D02C600C600CE06C600C600C6000C
:104DE000C600C600C600C600C6004701C600B60120
:104DF0001302470147014701900213027F00C600DA
:104E0000B602C6009D02F10611037F00C600E00154
:104E10007C00CA06C600C600F406C6007C00A3F1EA
:104E2000300200211AF8013B01EB810102EB410144
:104E3000A3F13002092AF5D907918EE7584603F00D
:104E4000EFFD436816931846FBF77AFC179005466A
:104E5000584603F0E5FD83681493002D40F040862A
:104E60009AF8003077E79AF8003049F0200972E7A5
:104E7000082200213846FBF7A1FE01239A4443E7AC
:104E8000BAEB0406054611D0289B33442893279B90
:104E90000133072BC8E90046279318DC08F10808FE
:104EA000069B33440693002D7FF449AF289B002BCB
:104EB00041F09081059B9B8903F04003002B41F05A
:104EC0005C83069853B0BDEC048BBDE8F08F059968
:104ED00026AA584603F04AFA0028EBD10DF1A4089F
:104EE000DEE700BFAFF3008000000000000000001C
:104EF000980600200B93002BD8D000218DF8E430C9
:104F00000123CDE908318DF86F10039304911091BE
:104F10000E910C9139AC19F0020302D0039A0232BF
:104F2000039219F08405289A05D10798039E861BE1
:104F3000002E00F3928081B10121C8F80410279956
:104F4000013101320DF16F00072928922791C8F82D
:104F5000000000F3F68308F1080883B1279B1CA921
:104F600001330232C8F80010072B4FF002012892DB
:104F70002793C8F8041000F3D88308F10808802D9F
:104F800000F0AC82049B08995E1A002E00F3E882C0
:104F900019F4807F40F00A82089BC8F804301A4454
:104FA000279BC8F800400133072B2892279300F372
:104FB000608308F1080819F0040F05D0079B0399D6
:104FC0005C1A002C00F3CC83DDE9063103988142A2
:104FD000ACBF5B181B180693002A40F0FC8200232C
:104FE0002793099B1BB109995846FBF729FF0DF13F
:104FF000A408544687E60B930A9B073323F0070364
:10500000B3EC028B9FEDAE7BB0EEC86BB4EE476B9A
:10501000F1EE10FA0A9340F31285B5EEC08BF1EE73
:1050200010FA01F120809DF86F10A74CA74B29F0D2
:1050300080090B9A472AD8BF1C46002303220993F4
:1050400003920892049310930E930C9300293FF45B
:1050500062AF039B013303935DE79D4827990F904F
:10506000102E26DDCDE918354046994DA046059C09
:1050700004E0103E102E00F1080016DD0131103260
:1050800010230729CDE9271205604360F1DD26AA28
:105090002146584603F06AF9002840F0A482103EE9
:1050A000102EDDE9271229A8E8DCDDE91835444691
:1050B000804601310F98C8F8000032440729CDE935
:1050C0002712C8F8046000F3B2869DF86F1008F14B
:1050D000080830E70A9A0B93432B02F1040603D029
:1050E00019F0100F00F038850822002124A8FBF7E2
:1050F00065FD0A9B39AC1A68214624AB584605F079
:105100006FF903460133089001F03282089B23EACD
:10511000E373039300210A968DF86F1009910491AF
:1051200010910E910C91F6E60B930A9B1A46002300
:105130008DF86F30134653F8044B0A93002C00F09F
:1051400030850B9B532B00F09B8619F010030C93BA
:1051500040F09686049B002BC1F236800C991A46CB
:105160002046FBF75DFB0990002801F03F82099B78
:105170001A1B0C9B0892049322EAE27210930E937E
:10518000099373239DF86F1003920B935EE719F058
:10519000200F0B9300F0B7800A9B073323F007031F
:1051A0001A46596852F8083B0A920A460029C0F28A
:1051B000F88304990029C0F2A98253EA020129F078
:1051C000800540F0A482049A002A40F0A582A946F6
:1051D000089252AC58E10A9B53F8042B0792002A1C
:1051E00080F20784079A0A93524207929AF8003095
:1051F00049F00409AFE52B238DF86F309AF80030A1
:10520000A9E50B9349F0100515F0200200F0A683E4
:105210000A9B073323F0070319465A6851F8083BE5
:105220000A9101210020049C8DF86F00002CC0F22F
:10523000148153EA020025F0800940F00D81002C12
:1052400040F00C86002940F0B38315F00103089369
:1052500000F0D48330238DF847310DF2471413E169
:105260000B9349F0100919F0200200F08D830A9B7E
:10527000073323F0070319465A6851F8083B0A918F
:1052800029F480650021CDE79AF80030682B03BF30
:105290009AF8013049F400790AF1010A49F040090D
:1052A00059E519F0200F00F0B9830A9B069A1B6894
:1052B0001A60D2175A600A9B04330A93544622E5B7
:1052C000FFFFFFFFFFFFEF7F14BC000810BC0008CA
:1052D000D8BD00089AF800306C2B03BF9AF8013053
:1052E00049F020090AF1010A49F0100933E59AF85A
:1052F000003049F008092EE549F0100919F0200F97
:105300000B937FF449AF0A9A19F0100F52F8043B3F
:105310000A9240F0798319F0400F00F0718343F353
:10532000C03211461BB241E79AF8003049F001093A
:1053300011E59DF86F209AF80030002A7FF40BAD3C
:1053400020228DF86F2006E59AF8003049F0800998
:1053500001E5504610F8013B2A2B01F0A881A3F18A
:105360003002092A98BF002101F2948010F8013B15
:1053700001EB810102EB4101A3F13002092AF5D9C9
:1053800041EAE17204928246E7E40A9A52F8043B49
:105390000A9247F63002ADF870207820984A1292AF
:1053A00049F00205002202210B903BE70B9B652B85
:1053B00040F36A81B5EE408BF1EE10FA40F00B82BB
:1053C000279B9049C8F80010013301320121072BB7
:1053D00028922793C8F8041000F3458508F10808BF
:1053E0001D9B0D998B4280F2FF82119B13991A44E9
:1053F000C8E90013279B28920133072B279300F35A
:10540000B58308F108080D9B5C1E002C7FF7D3AD17
:10541000102C279B41F342817B4E0F96414610256D
:10542000DDF8148004E00831103C102C40F3568560
:1054300001331032072BC1E90065CDE92732F2DDD7
:1054400026AA4146584602F091FF002840F0CB8042
:10545000DDE9273229A9E7E74D46012900F0578108
:10546000022952AC1FD1129803F00F011B09415CB5
:1054700004F8011D43EA0273120953EA0201F3D151
:1054800052AB1B1BA9460893049A08989DF86F100D
:1054900082424FF00003B8BF024609930392109373
:1054A0000E930C93D2E503F00701DB0843EA427345
:1054B000D208303153EA0206204604F8011DF2D129
:1054C000EB07DDD53029DBD03023023804F8013C6E
:1054D00052AB1B1AA94608930446D5E7079B0399CC
:1054E0005E1A002E7FF74EAD4749279B0F91102E75
:1054F00022DD40461025A0461946434C04E0103EEC
:10550000102E00F1080014DD013110320729C0E926
:105510000045CDE92712F2DD059926AA584602F08A
:1055200025FF00285FD1103E102EDDE9271229A8A3
:10553000EADC44460B46804601330F99C8F8001058
:105540003244072BCDE92732C8F8046000F3D58434
:10555000049B08995E1A002E08F108087FF718AD21
:105560002949279B0F91102E26DD41461025B04674
:105570002646059C06E0A8F11008B8F1100F01F1CD
:10558000080116DD013320481032072BC1E9000560
:10559000CDE92732EFDD26AA2146584602F0E6FE85
:1055A00008BBA8F11008B8F1100FDDE9273229A9CE
:1055B000E8DC34464646884601330F99C8F80010A7
:1055C0003244072BCDE92732C8F8046000F3B981D3
:1055D00008F10808DCE4059926AA584602F0C6FE40
:1055E00000283FF4FCAC099B002B3FF463AC099905
:1055F0005846FBF725FC059B9B8903F040035DE4BF
:1056000020BC000850BC0008C8BD0008279BBD484E
:10561000C8F80000013301320120072B289227939C
:10562000C8F8040000F3248508F10808002940F0B8
:1056300091840D9909F001030B433FF4BCAC119B1D
:1056400013991A44C8E90013279B28920133072BAA
:10565000279300F3E58508F108080D99C8F8004084
:1056600001330A44072BCDE92732C8F804107FF72D
:10567000A0AC059926AA584602F078FE0028B2D1BF
:10568000289A0DF1A40896E40D99279B012902F1AF
:10569000010203F1010308F1080040F30B8101212D
:1056A000072BCDE92732C8F80040C8F8041000F3F2
:1056B00083811199139D01330A44072BC0E90051DE
:1056C000CDE9273200F3848108300D99B5EE408B87
:1056D000F1EE10FA01F1FF3500F0068101330134DB
:1056E0002A44072BCDE927320460456000F3F0809F
:1056F00008301599416001330A44072B20A9CDE9F0
:1057000027320160B5DC00F1080854E44D460A2B4D
:1057100072F1000180F02D8330338DF84731012381
:10572000A94608930DF24714AEE6059926AA5846F5
:1057300002F01CFE00287FF456AF289A0DF1A40851
:105740001DE405990F9326AA584602F00FFE002883
:105750007FF449AF289A0F9B0DF1A408FFF7FDBB1A
:10576000102C279B40F3C386674EDDF814900F96EC
:10577000102504E0103C102C08F1080816DD013358
:105780001032072BC8E90065CDE92732F2DD26AAE1
:105790004946584602F0EAFD00287FF424AF103C49
:1057A000102CDDE927320DF1A408E8DC01330F9954
:1057B0002244072BC8E90014CDE927327FF704AC57
:1057C000059926AA584602F0D1FD00287FF40BAFB8
:1057D000289AFFF7F9BB1D9900297FF717AFDDE97C
:1057E0000C639E42A8BF1E46002E0BDD279B013393
:1057F0003244072BC8E900462892279300F3188605
:1058000008F108080C9D002EA8BFAD1B002D00F369
:10581000D8810C9B19F4806F23441E4640F0F6811A
:105820001D9B0D998B42C0F2778219F0010F40F059
:1058300073820D996518AD1BCC1AA542A8BF2546E9
:10584000002D0DDD279BC8F8006001332A44072B8B
:10585000C8F804502892279300F3058608F1080839
:10586000002DA8BF641B002C7FF7A5AB102C279B35
:1058700040F31487254E0F9641461025DDF814801D
:1058800004E00831103C102C40F32883013310321F
:10589000072BC1E90065CDE92732F2DD26AA414692
:1058A000584602F063FD00287FF49DAEDDE9273203
:1058B00029A9E7E719F0010F7FF4F1AE0121072BC9
:1058C000CDE92732C8F80040C8F804107FF711AFBF
:1058D000059926AA584602F049FD00287FF483AEB8
:1058E000DDE9273229A804E70D9901297FF701AFE7
:1058F000112940F32283054EDDF814800F96102401
:105900000BE000BF50BC0008D8BD0008C8BD0008AF
:105910000830103D102D40F3128301331032072B55
:10592000C0E90064CDE92732F2DD26AA4146584697
:1059300002F01CFD00287FF456AEDDE9273229A8CD
:10594000E7E7059926AA584602F010FD00287FF4E3
:105950004AAE289A0DF1A408FFF71ABB0A9915F070
:10596000100051F8043B0CD115F0400404D00A910A
:105970009BB20246012155E415F400721CBFDBB254
:1059800022460A9101214DE40A9919F0100051F8BC
:10599000043B41D119F040043AD09BB202460A912F
:1059A0006EE45B4262EB42024D462D2001213AE457
:1059B000049B089352AC67E5059926AA584602F065
:1059C000D5FC00287FF40FAEDDE9273229A870E668
:1059D000059926AA584602F0C9FC00287FF403AEB8
:1059E000DDE9273229A870E619F0010F3FF4E3AA98
:1059F000FBE40A939AF80030FFF7ADB952AC43E5E7
:105A000019F4007F40F04D83DA171146FFF7CEBB43
:105A100019F4007240F0CD830A9131E419F0100FAF
:105A200040F0858219F0400F40F0C88319F4007FE0
:105A300000F07D820A9B069A1B681A703BE4B4EE64
:105A4000488BF1EE10FA80F1DD850B9B612B00F0A5
:105A5000DE84412B00F01785049B013300F0EE83B8
:105A60000B9B23F02003472B00F05D850023099357
:105A700049F480730F9318EE903A002BC0F2B4846F
:105A8000B0EE489B00260B9B413B252B00F2138375
:105A9000DFE813F01804110311031103D903800484
:105AA0001103110311031103110311031103110356
:105AB0001103110311031103110311031103110346
:105AC0001103110311031103110311031103110336
:105AD000110311031804110311031103D9038004E6
:105AE000149A9AF80030002A3FF435A91278002A57
:105AF0003FF431A949F48069FFF72DB90B934D4666
:105B0000FFF782BB0B93A24B129319F0200200F017
