:020000040800F2
:1000000000000220F12300084524000845240008D0
:10001000452400084524000845240008000000008D
:10002000000000000000000000000000452400085F
:10003000452400080000000045240008452400086D
:1000400045240008452400084524000845240008EC
:1000500045240008452400084524000845240008DC
:1000600045240008452400084524000845240008CC
:1000700045240008452400084524000845240008BC
:1000800045240008452400084524000845240008AC
:10009000452400084524000845240008452400089C
:1000A000452400084524000845240008452400088C
:1000B000452400084524000845240008452400087C
:1000C000452400084524000845240008452400086C
:1000D000452400084524000845240008452400085C
:1000E00045240008E1230008000000004524000822
:1000F000452400084524000845240008452400083C
:10010000452400084524000845240008452400082B
:10011000452400084524000845240008452400081B
:10012000452400084524000845240008452400080B
:1001300045240008452400084524000845240008FB
:1001400000000000000000000000000000000000AF
:1001500045240008452400084524000845240008DB
:1001600045240008452400084524000845240008CB
:10017000452400084524000845240008000000002C
:1001800045240008452400084524000845240008AB
:10019000452400084524000845240008452400089B
:1001A00045240008452400084524000800000000FC
:1001B000452400084524000845240008452400087B
:1001C000452400084524000800000000000000004D
:1001D00000000000000000004524000800000000AE
:1001E000000000000000000000000000000000000F
:1001F000000000000000000045240008452400081D
:10020000452400084524000800000000452400089B
:10021000452400084524000845240008452400081A
:1002200045240008000000004524000800000000EC
:10023000452400084524000800000000452400086B
:1002400045240008452400084524000845240008EA
:1002500045240008452400084524000845240008DA
:1002600045240008452400084524000845240008CA
:10027000452400084524000845240008000000002B
:1002800045240008452400084524000845240008AA
:10029000000000004524000845240008000000007C
:1002A00000000000452400084524000845240008FB
:1002B000452400084524000845240008452400087A
:0C02C000452400084524000845240008DF
:1003000001F0FF01102A2BDB10F0070F08D010F8C6
:10031000013B013A8B422DD010F0070F42B3F6D1CA
:10032000F0B441EA012141EA014122F007047FF0E3
:1003300000070023F0E80256083C85EA010586EA3A
:10034000010685FA47F5A3FA87F586FA47F6A5FA76
:1003500087F68EB9EED1F0BC01F0FF0102F0070282
:1003600032B110F8013B013A83EA010313B1F8D12D
:100370000020704701387047002D06BF354603380E
:10038000073815F0010F07D1013015F4807F02BF47
:10039000013015F4C03F0130F0BC0138704700BF98
:1003A000844641EA000313F003036DD1403A41D380
:1003B00051F8043B40F8043B51F8043B40F8043B3F
:1003C00051F8043B40F8043B51F8043B40F8043B2F
:1003D00051F8043B40F8043B51F8043B40F8043B1F
:1003E00051F8043B40F8043B51F8043B40F8043B0F
:1003F00051F8043B40F8043B51F8043B40F8043BFF
:1004000051F8043B40F8043B51F8043B40F8043BEE
:1004100051F8043B40F8043B51F8043B40F8043BDE
:1004200051F8043B40F8043B51F8043B40F8043BCE
:10043000403ABDD2303211D351F8043B40F8043B6E
:1004400051F8043B40F8043B51F8043B40F8043BAE
:1004500051F8043B40F8043B103AEDD20C3205D37E
:1004600051F8043B40F8043B043AF9D2043208D076
:10047000D2071CBF11F8013B00F8013B01D30B88E8
:1004800003806046704700BF082A13D38B078DD0C6
:1004900010F003038AD0C3F10403D21ADB071CBF98
:1004A00011F8013B00F8013B80D331F8023B20F802
:1004B000023B7BE7043AD9D3013A11F8013B00F83B
:1004C000013BF9D20B7803704B7843708B788370C3
:1004D00060467047000000000000000000000000BF
:1004E000000000000000000000000000000000000C
:1004F00000000000000000000000000000000000FC
:1005000030B490F800F020F007016FF0000C10F00C
:10051000070491F820F040F048804FF000046FF09D
:100520000700D1E9002391F840F000F1080082FAB9
:100530004CF2A4FA8CF283FA4CF3A2FA8CF34BBB84
:10054000D1E9022382FA4CF200F10800A4FA8CF2FD
:1005500083FA4CF3A2FA8CF3E3B9D1E9042382FACB
:100560004CF200F10800A4FA8CF283FA4CF3A2FAE0
:100570008CF37BB9D1E9062301F1200182FA4CF218
:1005800000F10800A4FA8CF283FA4CF3A2FA8CF37F
:10059000002BC6D0002A04BF04301A4612BAB2FAA1
:1005A00082F200EBD20030BC7047D1E9002304F0A6
:1005B0000305C4F100004FEAC50514F0040F91F8DB
:1005C00040F00CFA05F562EA05021CBF63EA050378
:1005D00062464FF00004AAE70348044B834202D06E
:1005E000034B03B118477047C8070020C807002015
:1005F000000000000548064B1B1AD90F01EBA301B0
:10060000491002D0034B03B118477047C8070020B8
:10061000C80700200000000010B5064C237843B93D
:10062000FFF7DAFF044B13B10448AFF30080012356
:10063000237010BDC8070020000000005C8800087F
:1006400008B5054B1BB105490548AFF30080BDE86F
:100650000840FFF7CFBF00BF00000000CC0700201C
:100660005C880008024A0349034800F0C9B800BF8B
:1006700000000020CD120008100000200C4B416843
:10068000994210B5044601D000F020FEA168094B44
:10069000994202D0204600F019FEE168064B9942CB
:1006A00004D02046BDE8104000F010BE10BD00BFD1
:1006B000E40700204C080020B40800202DE9F8438E
:1006C000314A324C3249DFF8DC90DFF8DC80314FC0
:1006D0001160002504232946082204F15C00C4E9C6
:1006E00003352D4EA560C4E90055C4E9055565667E
:1006F00000F0F0F804F15800C4E90749C4E909879B
:10070000E66200F0B5F92946244B6367082204F13C
:10071000C400C4E91A55C4E91E552567C4F8CC5075
:10072000C4F8805000F0D6F804F1680304F1C0006A
:10073000C4F88430C4E92298C4E9247600F098F91A
:10074000174BC4F8DC30294604F596700822C4E93A
:100750003455C4E93855C4F8D850C4F83451C4F8F5
:10076000E85000F0B7F804F1D003C4E93D87C4F8BD
:10077000F09004F59470C4F8FC60C4F8EC30BDE867
:10078000F84300F075B900BF1C090020E407002001
:1007900065060008A9080008CD0800080900010046
:1007A00012000200450800086908000810B5044658
:1007B0000A4800F061F9636B23B9094B094A1B68C9
:1007C000626323B1BDE81040044800F057B9FFF759
:1007D00075FFBDE81040014800F050B92C09002019
:1007E0001C0900207D060008014800F045B900BF43
:1007F0002C090020014800F041B900BF2C0900205D
:100800002DE9F8430746884616464FF00009D6E919
:100810000154013D10D4A389012B08D9B4F90E303D
:1008200001332146384602D0C04749EA0009013D5C
:100830006B1C04F16804EED13668002EE7D14846FF
:10084000BDE8F88310B50C46B1F90E1000F0BCF805
:10085000002803DB236D0344236510BDA38923F423
:100860008053A38110BD00BF2DE9F0410C46B1F9C2
:100870000C101F46CB05054616460BD421F48051BB
:10088000A1813B46B4F90E1032462846BDE8F0413E
:1008900000F0B0B8B4F90E100223002200F07EF888
:1008A000B4F90C10EAE700BF10B50C46B1F90E1010
:1008B00000F074F8B4F90C30421C0EBF23F48053DE
:1008C00043F480532065A38110BD00BFB1F90E1021
:1008D00000F052B8830730B547D0541E002A3ED0EE
:1008E000CAB2034601E0013C39D303F8012B9D074E
:1008F000F9D1032C2CD9CDB205EB05250F2C05EB36
:10090000054535D9A4F1100222F00F0C03F1100EA9
:10091000E6444FEA121C1A46C2E90055C2E90255E4
:1009200010327245F8D10CF1010214F00C0F03EBF8
:10093000021204F00F0C13D0ACF1040323F00303F4
:100940000433134442F8045B9342FBD10CF00304DC
:100950002CB1C9B21C4403F8011BA342FBD130BD2A
:1009600064461346002CF4D1F9E703461446C0E769
:100970001A46A446E0E700BF38B5074D00220446FA
:1009800008462A6001F074FE431C00D038BD2B6875
:10099000002BFBD0236038BD2009002038B50C4661
:1009A000084D8446114620461A4600232B606446B3
:1009B00001F068FE431C00D038BD2B68002BFBD033
:1009C000236038BD2009002038B50C46084D844608
:1009D000114620461A4600232B60644601F023FE90
:1009E000431C00D038BD2B68002BFBD0236038BDE2
:1009F0002009002038B50C46084D84461146204693
:100A00001A4600232B60644601F01EFE431C00D0F2
:100A100038BD2B68002BFBD0236038BD2009002097
:100A200070B50F4B0F4DAB42A3EB050607D0B610C8
:100A3000002455F8043B01349847A642F9D807F042
:100A40000DFF094D094B5E1BAB424FEAA60606D0CF
:100A5000002455F8043B01349847A642F9D870BDEC
:100A6000EC8C0008EC8C0008EC8C0008F48C00087E
:100A7000704700BF704700BF704700BF704700BF9E
:100A8000024B13B1024800F005B8704700000000A7
:100A90003D150008002301461A46184600F070BDB7
:100AA0002DE9F84306460820894600F05BFDDFF893
:100AB000A4800546304600F0FDFBD8F808305F689A
:100AC00027F00307A7F11104A4EB09042C44B4FB9D
:100AD000F5F4013C05FB04F4A54208DC0021304696
:100AE00000F01AFDD8F808303B44984205D0304653
:100AF00000F0E6FB0020BDE8F8836142304600F0DC
:100B00000BFD01300FD0114AD8F808303F1B47F0D9
:100B100001075F60136830461B1B136000F0D0FBB9
:100B20000120BDE8F8830021304600F0F5FCD8F83C
:100B30000820831A0F2BDADD43F001035360044BC6
:100B400002491B68C01A0860D1E700BF34090020C1
:100B5000540100206001002000297CD02DE9F041E3
:100B60000C46804600F0A6FB54F8043C754FA4F1F7
:100B7000080523F001016818BE684268864222F029
:100B8000030200F08380DE07426000EB020C33D4E6
:100B900054F8084CDCF804302D1B2144AC6807F1F4
:100BA000080C644503F0010364D0D5F80CE0C4F8E8
:100BB0000CE0CEF80840002B00F0818041F00103EA
:100BC0006B600160B1F5007F22D27868CB0801220A
:100BD000490901338A40024357F833107A6007EB22
:100BE000C302083AC5E9021247F83350CD604046C7
:100BF000BDE8F04100F064BBDCF80430DB072BD526
:100C000041F00103B1F5007F44F8043C0160DCD3FE
:100C1000B1F5206F4FEA512353D28B0903F139000C
:100C200003F13802C300F818FB580838984203D182
:100C300061E09B68984204D05A6822F003028A421D
:100C4000F7D8D868C5E902308560DD604046BDE868
:100C5000F04100F035BB7047114407F1080C836880
:100C600063453FD0C268DA60936041F001036B6076
:100C70006950A7E7002B5FD10A44D0E90213CB608B
:100C8000996042F001036B60AA50B0E7DB070A44A9
:100C900007D454F8083CED1A1A44D5E90213CB6086
:100CA000996042F001036B60274BBD601B68934263
:100CB0009DD8264B40461968FFF7F2FE97E711448E
:100CC000CDE7142B08D9542B1DD80B0B03F16F0063
:100CD00003F16E02C300A6E703F15C0003F15B02BF
:100CE000C300A0E741F00103C7E90455C5E902CC00
:100CF0006B6069507BE779689210012404FA02F274
:100D00000A437A609EE7B3F5AA7F06D8CB0B03F1BE
:100D1000780003F17702C30085E740F25452934212
:100D200006D88B0C03F17D0003F17C02C3007AE747
:100D30004FF47E737E2276E741F001036B60016021
:100D400055E700BF60010020580100206409002021
:100D50002DE9F04F01F10B05162D83B0064623D87F
:100D6000102900F2AF8000F0A5FA10251823022008
:100D7000B74F3B44A3F108025C68944200F01E8127
:100D80006368E268A16823F00303CA602344304625
:100D900091605A6842F001025A6000F091FA0834FA
:100DA000204603B0BDE8F08F35F0070500F18A80DA
:100DB000A94200F2878000F07DFAB5F5FC7FC0F013
:100DC0006E816B0A00F08280042B00F21D81AB095A
:100DD00003F1390003F1380EC3009D4F3B44A3F1EA
:100DE000080C5C68A44507D10DE0002AE16880F298
:100DF000DF808C4507D00C46636823F003035A1B41
:100E00000F2AF2DD7046DFF860823C69444500F04D
:100E1000BC80636823F0030CACEB05030F2B00F3DD
:100E20004281002BC7E9048880F22D81BCF5007F48
:100E3000D7F804E080F0C8804FEADC0101314FEAC6
:100E40005C1C012303FA0CF357F83120A2604EEA30
:100E5000030E07EBC103083BE360C7F804E047F863
:100E60003140D46083104FF0010C0CFA03FCF445C0
:100E700032D81CEA0E0F08D120F003004FEA4C0CC8
:100E80001CEA0E0F00F10400F8D007EBC00AD646AA
:100E90008146DEF80C300BE0596821F003014A1B53
:100EA0000F2A1C46DB6800F3BB80002A80F2DE803C
:100EB0009E45F1D109F1010919F0030F0EF1080E59
:100EC000E7D119E10C233360002469E74FF4007384
:100ED00040204FF03F0E80E7BC68636823F00309B1
:100EE000A94503D3A9EB05030F2B51DC594B1B6814
:100EF000082003F1100804EB0903009300F032FB13
:100F0000554A13680133A844834605D008F1FF38D9
:100F10008044434203EA08084146304600F0FCFAA8
:100F2000B0F1FF3F4C4A824600F0D880009B8342DC
:100F300000F2D280494B186840440BF1FF31186031
:100F4000844640F0FC801AEA010F40F0F880D7F8A0
:100F500008A0C84448F00102CAF80420404B1968B0
:100F6000814238BF18603F4B1968814238BF186012
:100F7000544622F00308A845A8EB050301D30F2B24
:100F800006DC304600F09CF99EE7D7F804E069E7FC
:100F9000621943F0010345F0010565603046BA600F
:100FA000536000F08DF90834204603B0BDE8F08F9F
:100FB000A2682344D16030468A60EAE6DC68A34236
:100FC0007FF4DEAE02301EE7BCF5206F4FEA5C22F4
:100FD0007BD3142A00F2128102F15C03DB005B3246
:100FE000F918FB580839994203D1ECE09B68994203
:100FF00004D05A6822F003026245F7D8D968C4E9E0
:1010000002318C60DC602DE7142B6AD9542B00F27E
:10101000FE802B0B03F16F0003F16E0EC300DCE6C4
:10102000D4F808C03046661945F001056560CCF873
:101030000C30C3F808C042F00103C7E90466C6E9F2
:1010400002887360625000F03BF90834A8E600BFE4
:1010500060010020640900205401002034090020B0
:10106000600900205C09002068010020214430460E
:101070004A6842F001024A6054F8082FD3609A602F
:1010800000F01EF98CE6A4443046DCF8043043F04E
:101090000103CCF8043000F013F9083480E6E808C6
:1010A00005F1080364E6621943F0010145F001050A
:1010B00065603046C7E90422C2E90288516044F8FD
:1010C0000C3000F0FDF808346AE64FEA9C1202F199
:1010D0003903DB00383283E7BC4228D0BC68626841
:1010E00047E703F15C0003F15B0EC30075E65AF8B5
:1010F0000839534540F0D98010F0030F00F1FF305C
:10110000F5D17B6823EA0C037B604FEA4C0C9C45CD
:101110003FF6E2AEBCF1000F04D1DDE64FEA4C0C25
:1011200009F104091CEA030FF8D04846ADE6604B0C
:10113000186808EB000C0BF1FF31C3F800C0106811
:1011400001306ED0009AAAEB020262441A601AF0D3
:101150000702CDE9002340D0C2F108029244D044F6
:1011600008EA01005A44121A02EA010B59463046B5
:1011700000F0D2F9421C019B6FD0A0EB0A0000EBFB
:101180000B081868C7F808A048F001025844BC4290
:10119000CAF8042018603FF4E1AEB9F10F0F43D94B
:1011A0006168A9F10C0222F0070201F0010111436C
:1011B00061604FF0050CA1180F2AC1E901CC54D889
:1011C000DAF80420CAE692104FF0010C0CFA02F291
:1011D0004EEA020EC7F804E011E70AEB08020A40E3
:1011E000ABEB020202EA010B5946304600F094F9DB
:1011F000431C019BC1D1DDF800B0C2E7542A17D8C7
:101200004FEA1C3202F16F03DB006E32E8E6B3F501
:10121000AA7F17D8EB0B03F1780003F1770EC30018
:10122000DBE5C2F800A092E70123CAF80430A8E683
:10123000B2F5AA7F24D84FEADC3202F17803DB0052
:101240007732CDE640F25452934224D8AB0C03F1EE
:101250007D0003F17C0EC300BFE5009A083A90447C
:10126000A8EB0A084FF0000B8BE7304604F10801A9
:101270000093FFF771FC009BD7F808A018689FE760
:1012800040F254539A420CD84FEA9C4202F17D033B
:10129000DB007C32A4E64FF47E737F204FF07E0E9D
:1012A0009BE54FF47E737E229AE67B682DE700BFB4
:1012B000340900200148FFF7DFBB00BF24090020EC
:1012C0000148FFF7DBBB00BF2409002070B50029EF
:1012D0003FD006460C4610B1436B002B3CD0636EEA
:1012E000B4F90C20DD0732D4900538D521463046BC
:1012F00000F04CF8E36A054633B1E169304698479F
:101300000028B8BF4FF0FF35A3891A0639D4216BE6
:1013100041B104F14003994202D03046FFF71CFC72
:1013200000232363616C21B13046FFF715FC0023D5
:101330006364FFF759FA636E0022DB07A2811CD5B4
:10134000A06DFFF797FBFFF755FA284670BD002AFE
:10135000CCD10025284670BDFFF728FABFE7A06D65
:10136000FFF78AFBB4F90C30002BBFD1636ED907AD
:10137000EFD4A06DFFF782FBEBE7A06DFFF77EFBDC
:10138000DEE721693046FFF7E7FBC0E7B1F90C2043
:101390002DE9F04116070C4680464ED4496842F4C8
:1013A00000630029A38163DDA56A002D42D00021DE
:1013B00012F48052D8F80060C8F80010E16964D1D6
:1013C00001234046A847451C02466ED0B4F90C30B4
:1013D000A56AE169580705D56368D21A236B0BB17A
:1013E000E36BD21A00234046A847431C4FD1D8F8DC
:1013F0000010B4F90C301D2940D8314ACA40D70733
:101400003CD52269226023F40062A281DD044FF002
:101410000002626001D5002945D0216BC8F8006048
:1014200041B104F14003994202D04046FFF794FBDA
:10143000002323630020BDE8F0810E69002EF9D05F
:101440000D680E6092070CBF4B690023AD1B8B60CB
:101450000BE02B463246E169676A4046B847B0F177
:10146000000CA5EB0C05664406DD002DF1DCE1E780
:10147000E16B002998DCDDE7B4F90C3043F0400360
:10148000A3814FF0FF30BDE8F081226DA2E7B4F9EF
:101490000C302269226023F40062A281DB044FF049
:1014A00000026260B9D52065B7E7D8F80030002B9C
:1014B0008CD01D2B01D0162BDED1C8F80060B9E707
:1014C0000100402038B50C46054608B1436B03B314
:1014D000B4F90C0088B1636EDB0701D481050FD528
:1014E00028462146FFF752FF636EDA07054602D40D
:1014F000A3899B0508D5284638BD0546284638BD32
:10150000A06DFFF7B9FAEBE7A06DFFF7B7FA284631
:1015100038BDFFF74BF9DBE738B5074D002204462D
:1015200008462A6001F0B0F8431C00D038BD2B6893
:10153000002BFBD0236038BD2009002038B5074DB3
:10154000074C2C1BA41005D0013C55F8043D9847CE
:10155000002CF9D1BDE8384007F086B9F88C0008B6
:10156000F48C0008082802D14FF48050704708B569
:1015700000F046F8162303604FF0FF3008BD00BFAF
:101580002DE9F8431B4D0646286898460F469146BC
:10159000FFF772FA184B1C681CB3286865681F2D8A
:1015A00022DC4EB96B1C0235636044F82570FFF7EE
:1015B00065FA0020BDE8F88304EB85010123C1F83A
:1015C0008890D4F88821AB401A43022EC4F88821B1
:1015D000C1F80881E6D1D4F88C211A43C4F88C21D3
:1015E000E0E7064C1C60D8E7FFF748FA4FF0FF3001
:1015F000E0E700BF5001002030090020680900200A
:10160000014B1868704700BF0C000020F0B589B08E
:1016100002F04AF8384C2060D0F8E0309847374B59
:10162000D3F8E02042F00202C3F8E020D3F8E8202B
:1016300042F00202C3F8E820A3F58043019301229F
:1016400002920223039307930492059323685B6934
:1016500001A8984723681B6901A89847284B42F2C4
:101660002732DA621D229A62DA6942F4C042DA61F4
:10167000DA6942F48062DA611A6A42F480521A62CC
:101680001A6842F081021A6041F294121A642068CA
:1016900002F04AF9206802F089F900F02DFB0746B4
:1016A00000F070FD064600F08FFD054600F09EFD3F
:1016B00004463946134802F0ABF93146124802F0AD
:1016C000A7F92946114802F0A3F92146104802F073
:1016D0009FF9094C206802F047F923685B684FF4D2
:1016E0007A709847206802F04FF923685B684FF4DE
:1016F0007A709847D1E700BFF80A002000440258EA
:10170000000400407888000898880008B088000825
:10171000CC880008002800F0D58238B5044603685C
:1017200013F0010F25D0A04A136903F03803926A21
:10173000102B15D0182B0FD06368B3F5803F3FD026
:10174000002B53D1984B1A6822F480321A601A6821
:1017500022F480221A6038E002F00302022AEBD160
:10176000914B1B6813F4003F03D06368002B00F01B
:10177000AB82236813F0020F00F088808A4A136955
:10178000926A13F038035AD0182B55D0E368002B17
:1017900000F0A98084490A6822F0190213430B6003
:1017A00000F0FAFF0546804B1B6813F0040F40F071
:1017B000918000F0F1FF401B0228F4D903208AE257
:1017C000794A136843F48033136063682BB300F0E5
:1017D000E3FF0546744B1B6813F4003FC9D100F0CA
:1017E000DBFF401B6428F5D9032074E2B3F5A02F7A
:1017F00009D06D4B1A6822F480321A601A6822F4FC
:1018000080221A60E1E7684B1A6842F480221A606D
:101810001A6842F480321A60D7E700F0BDFF05462F
:10182000614B1B6813F4003FA3D000F0B5FF401BD1
:101830006428F5D903204EE212F0030FA6D15A4BCB
:101840001B6813F0040F03D0E368002B00F03E8206
:10185000554A136823F01903E1680B43136000F045
:101860009BFF0546504B1B6813F0040F06D100F098
:1018700093FF401B0228F5D903202CE24A4A536803
:1018800023F0FE43216943EA01635360236813F0A8
:10189000100F51D0444A136903F03803926A082BA1
:1018A00039D0182B33D0E369002B69D03E4A136836
:1018B00043F08003136000F06FFF05463A4B1B684E
:1018C00013F4807F53D100F067FF401B0228F5D945
:1018D000032000E2344A536823F0FE43216943EABF
:1018E00001635360D2E7304A136823F001031360A9
:1018F00000F052FF05462C4B1B6813F0040FC5D0B7
:1019000000F04AFF401B0228F5D90320E3E102F072
:101910000302012AC7D1244B1B6813F4807F03D034
:10192000E369802B40F0D4811F4AD36823F07C53B5
:10193000216A43EA0163D360236813F0080F49D09A
:101940006369002B32D0184A536F43F00103536789
:1019500000F022FF0546144B5B6F13F0020F39D1E4
:1019600000F01AFF401B0228F5D90320B3E10E4A0C
:10197000D36823F07C53216A43EA0163D360DBE739
:10198000094A136823F08003136000F005FF054641
:10199000054B1B6813F4807FCED000F0FDFE401B8A
:1019A0000228F5D9032096E1004402589D4A536F5E
:1019B00023F00103536700F0EFFE0546994B5B6F80
:1019C00013F0020F06D000F0E7FE401B0228F5D905
:1019D000032080E1236813F0200F29D0A3699BB175
:1019E000904A136843F48053136000F0D5FE054617
:1019F0008C4B1B6813F4005F1AD100F0CDFE401B26
:101A00000228F5D9032066E1864A136823F480533F
:101A1000136000F0C1FE0546824B1B6813F4005FA3
:101A200006D000F0B9FE401B0228F5D9032052E190
:101A3000236813F0040F21D1636A002B00F04A8160
:101A4000784A126902F03802182A00F0F180022B5D
:101A500075D0744A136823F08073136000F09CFE05
:101A60000446704B1B6813F0007F00F0D88000F034
:101A700093FE001B0228F4D903202CE16A4A136864
:101A800043F48073136000F087FE0546664B1B68C5
:101A900013F4807F06D100F07FFE401B6428F5D947
:101AA000032018E1A368012B0AD00BBB5D4B1A6F12
:101AB00022F001021A671A6F22F004021A6704E08A
:101AC000584A136F43F001031367A36833B300F060
:101AD00063FE0546534B1B6F13F0020FACD100F0B1
:101AE0005BFE401B41F288339842F3D90320F2E0B9
:101AF000052B09D04B4B1A6F22F001021A671A6F9F
:101B000022F004021A67E0E7464B1A6F42F0040223
:101B10001A671A6F42F001021A67D6E700F03CFE1E
:101B20000546404B1B6F13F0020F85D000F034FECA
:101B3000401B41F288339842F3D90320CBE0394A65
:101B4000136823F08073136000F026FE0546354BC2
:101B50001B6813F0007F06D000F01EFE401B022819
:101B6000F5D90320B7E02F4B996A304A0A40A16AA1
:101B7000E06A41EA00110A439A62226B013AC2F319
:101B80000802616B0139490289B20A43A16B01392C
:101B9000090401F4FE010A43E16B0139090601F071
:101BA000FE410A431A63DA6A22F00102DA625A6BD2
:101BB0006FF3CF02A16C42EAC1025A63DA6A22F0E3
:101BC0000C02216C0A43DA62DA6A22F00202616CCA
:101BD0000A43DA62DA6A42F48032DA62DA6A42F49A
:101BE0000032DA62DA6A42F48022DA62DA6A42F0B9
:101BF0000102DA621A6842F080721A6000F0CCFDCD
:101C00000446084B1B6813F0007F06D100F0C4FDAA
:101C1000001B0228F5D903205DE000205BE00020D6
:101C200059E000BF00440258004802580CFCFFFF76
:101C300030498A6A086B012B4ED002F00303A16A77
:101C40008B424BD1C2F30512E36A9A4248D1C0F3EA
:101C50000802236B013B9A4244D1C0F34622636BD6
:101C6000013B9A4240D1C0F30642A36B013B9A422A
:101C70003CD1C0F30660E36B013B984238D11D4B69
:101C80005B6BC3F3CC03A26C9A4201D1002022E02B
:101C9000184AD36A23F00103D36200F07DFD0546A4
:101CA00000F07AFDA842FBD0124A536B6FF3CF03CA
:101CB000A16C43EAC1035363D36A43F00103D362C7
:101CC000002008E001207047012004E0012002E02C
:101CD000012000E0002038BD0120FCE70120FAE7E8
:101CE0000120F8E70120F6E70120F4E70120F2E700
:101CF0000120F0E700440258754B1B6903F03803DC
:101D0000102B00F0DE80182B0FD0002B40F0DB8072
:101D10006F4B1B6813F0200F00F0D7806C4B1B68D3
:101D2000C3F3C1036B48D840704710B4684B9A6A3C
:101D300002F003029C6AC4F30510D96A01F00101A4
:101D40005B6BC3F3CC0301FB03F307EE903AF8EEB1
:101D5000677A14F47C7F77D0012A4AD0022A76D0A1
:101D6000002A40F091805A4B1B6813F0200F23D0BB
:101D700057490A68C2F3C102564BD34007EE103AE6
:101D8000F8EE476A07EE100AB8EE476A86EE867AE2
:101D90000B6BC3F3080306EE903AF8EE666A9FED0C
:101DA0004E6A67EE867A76EEA77AF7EE006A77EEED
:101DB000A67A27EE277A38E007EE100AF8EE476A8F
:101DC0009FED466A86EE267A414B1B6BC3F30803F0
:101DD00006EE903AF8EE666A9FED3F6A67EE867A05
:101DE00076EEA77AF7EE006A77EEA67A27EE277AE4
:101DF0001BE007EE100AF8EE476A9FED396A86EE9F
:101E0000267A334B1B6BC3F3080306EE903AF8EEC9
:101E1000666A9FED316A67EE867A76EEA77AF7EE0C
:101E2000006A77EEA67A27EE277A294B1B6BC3F35D
:101E30004623013307EE903AF8EE677AC7EE276A39
:101E4000FCEEE67A17EE900A5DF8044B704707EE59
:101E5000100AF8EE476A9FED236A86EE267A1C4B3D
:101E60001B6BC3F3080306EE903AF8EE666A9FED2B
:101E70001A6A67EE867A76EEA77AF7EE006A77EE50
:101E8000A67A27EE277AD0E707EE100AF8EE476A1F
:101E90009FED136A86EE267A0D4B1B6BC3F3080386
:101EA00006EE903AF8EE666A9FED0B6A67EE867A68
:101EB00076EEA77AF7EE006A77EEA67A27EE277A13
:101EC000B3E709487047094870470248704700BFA8
:101ED000004402580090D003000000390024744CE4
:101EE0000024744A20BCBE4B40787D0100093D00AF
:101EF000002800F0328170B50D4604469B4B1B68EC
:101F000003F00F038B420BD2984A136823F00F03A0
:101F10000B431360136803F00F038B4240F01F81E3
:101F2000236813F0040F0CD02269914B9B6903F0D6
:101F300070039A4205D98E498B6923F070031A43C6
:101F40008A61236813F0080F0CD06269884BDB6943
:101F500003F070039A4205D98549CB6923F07003D9
:101F60001A43CA61236813F0100F0CD0A269804B8A
:101F7000DB6903F4E0639A4205D97D49CB6923F418
:101F8000E0631A43CA61236813F0200F0CD0E269A2
:101F9000774B1B6A03F070039A4205D974490B6AA8
:101FA00023F070031A430A62236813F0020F0CD067
:101FB000E2686F4B9B6903F00F039A4205D96C49A5
:101FC0008B6923F00F031A438A61236813F0010F12
:101FD00041D0674A936923F47063A1680B4393610E
:101FE0006368022B0AD0032B27D0012B2CD0604A28
:101FF000126812F0040F06D10120ADE0126812F44D
:10200000003F00F0AE805A490A6922F007021343EC
:102010000B6100F0C1FB0646554B1B6903F038030A
:102020006268B3EBC20F16D000F0B6FB801B41F222
:1020300088339842F0D903208EE04D4A126812F09E
:10204000007FE0D1012087E0494A126812F4807FC6
:10205000D9D1012080E0236813F0020F0CD0E26890
:10206000434B9B6903F00F039A4205D240498B69A9
:1020700023F00F031A438A613C4B1B6803F00F03E4
:10208000AB420AD9394A136823F00F032B4313607C
:10209000136803F00F03AB4265D1236813F0040FFC
:1020A0000CD02269324B9B6903F070039A4205D22F
:1020B0002F498B6923F070031A438A61236813F058
:1020C000080F0CD062692A4BDB6903F070039A4257
:1020D00005D22749CB6923F070031A43CA612368EC
:1020E00013F0100F0CD0A269214BDB6903F4E063FD
:1020F0009A4205D21E49CB6923F4E0631A43CA61B0
:10210000236813F0200F0CD0E269194B1B6A03F00F
:1021100070039A4205D216490B6A23F070031A43E2
:102120000A62FFF7E9FD12498B69C3F30323114AE1
:10213000D35C03F01F03D8408B6903F00F03D35C1B
:1021400003F01F0320FA03F30B4A13600B4B1860D4
:102150000B4B186800F05CF870BD0120704701203F
:10216000FAE70120F8E70120F6E700BF002000525F
:1021700000440258908A0008680500206C05002081
:102180007405002008B5FFF7B7FD0B4A9369C3F348
:1021900003230A49CB5C03F01F0320FA03F392697F
:1021A00002F00F02885C00F01F0023FA00F0044ADE
:1021B0001060044A136008BD00440258908A000869
:1021C000680500206C05002008B5FFF7DBFF054B14
:1021D000DB69C3F30213044AD35C03F01F03D84046
:1021E00008BD00BF00440258908A000808B5FFF7F8
:1021F000C9FF054BDB69C3F30223044AD35C03F038
:102200001F03D84008BD00BF00440258908A000850
:1022100070B5C2B006460023419301222E92379337
:102220004FF480332F9303F513432C932EA8FFF71D
:1022300071FA054610B35DBB494B1C68CA23636243
:1022400053236362A36823F48073A360E368DBB263
:1022500063F4C073E36000234193E36813F0010F5C
:102260002ED1419A531C41933E4B1B683E49A1FB22
:102270000313B2EB531FF0D10125EEE74FF48002B8
:102280000023CDE90023684600F012FC054610B19A
:10229000284642B070BD354A136F43F400431367BC
:1022A0002F48334B0360002343606322826009227E
:1022B000C26003618361C36101F0A2F90546BAE718
:1022C000002DE5D10123E361A36843F48073A3608B
:1022D000A36843F48053A3604FF0B043D3F8802049
:1022E00042F40032C3F880201A6842F400321A60C7
:1022F0001B4B1868C36813F0400F15D14FF0FF3324
:10230000C36000234193C36813F0400F0CD1419A7E
:10231000531C4193134B1B681349A1FB0313B2EBEE
:10232000531FF0D10125EEE7002DB1D1002343600A
:1023300003600B4B1B68DA6822F08002DA60FF2230
:102340005A62292000F07EFA0F2E01D901259FE75D
:1023500000223146292000F065FA064B1E6097E7FF
:10236000FC0A00206C050020ABAAAAAA004402586F
:10237000004000587405002030B583B005460023A6
:10238000019300F0FDF92B68CA225A622B68532290
:102390005A622B684FF0FF32DA602C68E36813F062
:1023A000400F0AD1019A531C01930B4B1B680B4938
:1023B000A1FB0313B2EB531FEFD1002363602A6824
:1023C00013602A68D36823F08003D3602B68FF2250
:1023D0005A6203B030BD00BF6C050020ABAAAAAAA8
:1023E00008B5024801F07BF808BD00BFFC0A0020D8
:1023F000DFF838D000F0C2F900F06AF90C480D4956
:102400000D4A002302E0D458C4500433C4188C424F
:10241000F9D30A4A0A4C002301E013600432A242B5
:10242000FBD3FEF7FDFAFFF7F1F87047000002203A
:1024300000000020C8070020F88C0008C807002012
:10244000280B0020FEE7000030B59DB0514B012164
:10245000196000221A619A61DA611A629A62DA627C
:102460001A664D4BC3F808114C4B5B6913F4003FDF
:1024700012D1BFF34F8FBFF36F8F484BC3F8502279
:10248000BFF34F8FBFF36F8F5A6942F400325A6126
:10249000BFF34F8FBFF36F8F404B5B6913F4803FE7
:1024A00027D13E4B0022C3F88420BFF34F8FD3F8CF
:1024B0008040C4F34E3000E01846C4F3C90243F62E
:1024C000E07303EA401343EA82733449C1F860328F
:1024D0001346013A002BF2D1431E0028ECD1BFF382
:1024E0004F8F4B6943F480334B61BFF34F8FBFF382
:1024F0006F8F2A4AD2F89C3243F00403C2F89C3210
:102500004C22002109A8FEF7E5F92022002101A8AC
:10251000FEF7E0F9022000F099F900230093204B28
:102520009A6922F440429A619B6903F44043009304
:10253000009B1B4B9B6913F4005FFAD001220992A8
:102540004FF480330A9302231293139305211491BD
:10255000D8211591169317931892042519950024E4
:102560001A941B9409A8FFF7D5F83F23019303237E
:1025700002930394082304934023059306934FF496
:1025800080620792089329460DEB0500FFF7B0FC27
:102590001DB030BD004402580080005100ED00E045
:1025A00000480258104B1B68104AA2FB03239B0CE7
:1025B00000FB03F3013B4FF0E022536100239361E2
:1025C000136943F0010313614FF0E0231B6913F417
:1025D000803FF9D04FF0E0231A6922F001021A611E
:1025E00000229A61704700BF6C05002083DE1B4308
:1025F00038B50546002403E06420FFF7D3FF01341B
:10260000AC42F9D338BD0120704708B5FEF7F8FF9A
:10261000162303604FF0FF3008BD08B54FF0FF31BF
:10262000FFF7F3FFFEE770B50C461646002506E0FF
:10263000AFF30080214601F8010B01350C46B5428D
:10264000F6DB304670BD000010464FF0000C0AE08B
:10265000064BDB6913F0800FFAD011F80C20034B06
:102660009A620CF1010C8445F2DB704700100140C6
:102670004FF0FF3070474FF400534B60002070471D
:10268000012070470020704710B503460C4A0D49E1
:102690000D48006840B10C4800680344521A934248
:1026A00006D8094A136010BD0748084C0460F2E7D9
:1026B000FEF7A6FF0C2303604FF0FF30F3E700BFE7
:1026C0000000022000040000200B0020280B002046
:1026D000224AD2F8883043F47003C2F88830204B85
:1026E0001B6803F00F03062B06D81D4A136823F05E
:1026F0000F0343F0070313601A4B1A6842F00102FC
:102700001A6000221A611968174A0A401A60144BAD
:102710001B6813F0080F06D0114A136823F00F034B
:1027200043F0070313600F4B00229A61DA611A62CB
:102730000E4999620E49D9620E4919635A63996329
:10274000DA6319645A64196821F4802119601A66E1
:10275000094B43F2D2021A60704700BF00ED00E05F
:1027600000200052004402587FEDF6EA0002020207
:102770000000FF018002010100400052704700008C
:10278000034B1B78034A11680B441360704700BF6A
:1027900070050020240B0020014B1868704700BF13
:1027A000240B0020002807DB00F01F024009012352
:1027B0009340024A42F82030704700BF00E100E039
:1027C000002804DB0901C9B2044B1954704700F01A
:1027D0000F000901C9B2024B1954704700E400E030
:1027E00014ED00E000B500F00700C0F1070CBCF1EB
:1027F000040F28BF4FF0040C031D062B0FD9C31E76
:102800004FF0FF3E0EFA0CF021EA000199400EFA5B
:1028100003FE22EA0E0241EA02005DF804FB0023F7
:10282000EEE7000010B50446054BD868C0F302205F
:10283000FFF7D8FF01462046FFF7C2FF10BD00BFDB
:1028400000ED00E008B5FFF7ADFF08BD134BDB68F6
:1028500013F0040F07D1114BDB6803F00703834229
:102860001AD00120704710B50C4AD36823F0070333
:102870000343D360FFF790FF0446084B5B6813F4F3
:10288000005F07D1FFF788FF001BB0F57A7FF4D90E
:10289000012000E0002010BD0020704700480258D1
:1028A000404B9B6A03F00303032B79D070B50546B8
:1028B0000E463C4A136823F080631360FFF76CFFF9
:1028C0000446384B1B6813F0006F06D0FFF764FF17
:1028D000031B022BF5D9032070BD324B9A6A22F4F8
:1028E0007C32296842EA01329A626A68013AC2F38C
:1028F0000802A9680139490289B20A43E968013925
:10290000090401F4FE010A4329690139090601F0AD
:10291000FE410A439A63DA6A22F0C00269690A43F7
:10292000DA62DA6A22F02002A9690A43DA62DA6A14
:1029300022F01002DA62DA6B6FF3CF02E96942EA41
:10294000C102DA63DA6A42F01002DA62C6B91A46E4
:10295000DB6A43F40023D362124A136843F08063B6
:102960001360FFF719FF04460E4B1B6813F0006F4E
:1029700014D1FFF711FF001B0228F5D90320ABE7A4
:10298000012E05D0074AD36A43F40013D362E3E76C
:10299000044AD36A43F48013D362DDE700209BE747
:1029A0000120704700440258404B9B6A03F0030328
:1029B000032B79D070B505460E463C4A136823F0C8
:1029C00080531360FFF7E8FE0446384B1B6813F092
:1029D000005F06D0FFF7E0FE031B022BF5D90320B2
:1029E00070BD324B9A6A22F07C72296842EA015229
:1029F0009A626A68013AC2F30802A9680139490279
:102A000089B20A43E9680139090401F4FE010A4365
:102A100029690139090601F0FE410A431A64DA6A9C
:102A200022F4406269690A43DA62DA6A22F40072C7
:102A3000A9690A43DA62DA6A22F48072DA625A6CAD
:102A40006FF3CF02E96942EAC1025A64DA6A42F4DA
:102A50008072DA62C6B91A46DB6A43F48003D36235
:102A6000124A136843F080531360FFF795FE044643
:102A70000E4B1B6813F0005F14D1FFF78DFE001B97
:102A80000228F5D90320ABE7012E05D0074AD36A07
:102A900043F08073D362E3E7044AD36A43F400034C
:102AA000D362DDE700209BE7012070470044025815
:102AB000F8B50446036813F0006F2FD0436EB3F5EA
:102AC000001F25D015D8E3B1B3F5801F0ED1022128
:102AD0000830FFF7E5FE054675BB934A136D23F4F6
:102AE0004013616E0B431365002619E0012635463D
:102AF00016E0B3F5401F01D10025EEE7012635466B
:102B00000EE0894AD36A43F40033D3620025E4E738
:102B100002212830FFF748FF0546DDE7002635464D
:102B2000236813F4807F29D0A36D042B22D8DFE81B
:102B300003F005131A0A0A002E46F1E77A4AD36A0F
:102B400043F40033D362C5B9774A136D23F007030A
:102B5000A16D0B43136511E0002104F10800FFF79C
:102B60009FFE0546EFE7002104F12800FFF71CFF58
:102B70000546E8E70126354600E02E46236813F4B3
:102B8000806F2DD0D4F8A430B3F5800F3DD00DD890
:102B9000C3B1B3F5001F06D1002104F10800FFF70F
:102BA0007FFE054613E00126354619E0B3F5000F18
:102BB0000DD0B3F5200F0AD0B3F5C00F07D0012612
:102BC00035460DE0584AD36A43F40033D3621DBB47
:102BD000554A936D23F46003D4F8A4100B43936516
:102BE000236813F4006F37D0D4F8A830B3F1007F16
:102BF0005ED016D80BB3B3F1807F0FD1002104F162
:102C00000800FFF74DFE05461CE0002104F12800F6
:102C1000FFF7CAFE0546DAE72E46E1E7012635460C
:102C20001AE0B3F1806F0DD0B3F1A06F0AD0B3F109
:102C3000407F07D0012635460EE03B4AD36A43F475
:102C40000033D362002D3AD1374A936D23F0E0630D
:102C5000D4F8A8100B439365236813F0007F13D0BA
:102C6000E36C202B35D02FD833B1102B29D12E4A2D
:102C7000D36A43F40033D36295BB2B4AD36C23F061
:102C80003003E16C0B43D364236813F4805F4ED0B0
:102C9000E36DB3F5005F3FD027D87BB3B3F5805F1A
:102CA00020D1002104F10800FFF7FAFD05462AE0D3
:102CB000002104F12800FFF777FE0546C2E72E4603
:102CC000CAE701263546DFE7302BD5D00126354649
:102CD000DAE7022104F10800FFF7E2FD0546CBE741
:102CE0002E46D1E70126354621E0B3F5405F0AD0F4
:102CF000B3F5804F07D00126354618E00A4AD36A5B
:102D000043F40033D3628DB9074A136D23F4E043D3
:102D1000E16D0B4313650AE0002104F12800FFF781
:102D200043FE0546EFE700BF004402582E462368E5
:102D300013F4005F17D0236EB3F5003F4FD042D895
:102D400043B1B3F5803F3BD1012104F10800FFF707
:102D5000A7FD0546002D49D1924A136D23F4E023C7
:102D6000216E0B431365236813F4804F19D0D4F8F8
:102D7000AC30B3F1005F4AD03DD843B1B3F1805FCE
:102D800036D1012104F10800FFF78AFD0546002D28
:102D900044D1844A936D23F0E043D4F8AC100B4344
:102DA0009365236813F4004F47D0E36EB3F1805F5F
:102DB00036D0B3F1005F4BD0BBB3012635463CE0C3
:102DC00001263546CFE7B3F5802FC3D0B3F5A02F4A
:102DD000C0D0B3F5403FBDD001263546C3E7012141
:102DE00004F12800FFF7E0FD0546B3E72E46BAE7F9
:102DF00001263546D5E7B3F1804FC8D0B3F1A04FD7
:102E0000C5D0B3F1405FC2D001263546C9E70121E4
:102E100004F12800FFF7C8FD0546B8E72E46C0E7D5
:102E2000604AD36A43F40033D362C5B95D4A136D77
:102E300023F04053E16E0B431365236813F0807F4A
:102E40001CD0A36C032B44D8DFE803F0100B3C101C
:102E5000012104F10800FFF723FD0546E5E72E46B2
:102E6000EBE7504AD36A43F40033D362A5BB4D4A23
:102E7000D36C23F00303A16C0B43D364236813F4D6
:102E8000800F2BD1236813F0010F00F0A980A36FEE
:102E9000282B00F2A380DFE803F091A1A1A1A1A15A
:102EA000A1A18BA1A1A1A1A1A1A19AA1A1A1A1A12F
:102EB000A1A191A1A1A1A1A1A1A191A1A1A1A1A122
:102EC000A1A19100022104F10800FFF7E9FC0546E9
:102ED000CCE701263546D1E72E46CFE7324A1368C4
:102EE00043F480731360FFF757FC07462E4B1B68B3
:102EF00013F4807F05D1FFF74FFCC01B6428F5D980
:102F00000325002D4AD1274B1B6FD4F8B020534026
:102F100013F4407F0CD0234B1A6F22F44072196FC8
:102F200041F480311967196F21F4803119671A67EC
:102F3000D4F8B030B3F5807F15D08DBBD4F8B03065
:102F400003F44072B2F5407F1ED0164A136923F491
:102F50007C53136113490B6FD4F8B020C2F30B02FA
:102F600013430B678EE7FFF717FC07460D4B1B6FEC
:102F700013F0020FE1D1FFF70FFCC01B41F28833C1
:102F80009842F3D90325D8E70648026922F47C5217
:102F9000064901EA131313430361DBE72E4671E789
:102FA0002E466FE70044025800480258CFFFFF004A
:102FB000012104F10800FFF773FC0546E5B9B14AA9
:102FC000536D23F03803A16F0B43536508E00121D3
:102FD00004F12800FFF7E8FC0546EFE70126354637
:102FE000236813F0020F17D0636F052B29D8DFE891
:102FF00003F00B05210B0B0B2E46F1E7012104F129
:103000000800FFF74DFC0546F5B99E4A536D23F0C5
:103010000703616F0B435365236813F0040F26D039
:10302000D4F89030052B00F2D680DFE803F0150FBE
:10303000CD151515012104F12800FFF7B5FC054653
:10304000E2E701263546E7E72E46E5E7012104F1F0
:103050000800FFF725FC0546002D40F0BF80894A97
:10306000936D23F00703D4F890100B439365236806
:1030700013F0200F1DD0D4F88C30B3F1005F00F0B6
:10308000C18000F2B0804BB1B3F1805F40F0A88006
:10309000002104F10800FFF703FC0546002D40F075
:1030A000B880784A536D23F0E043D4F88C100B437A
:1030B0005365236813F0400F1DD0D4F89830B3F552
:1030C000006F00F0BA8000F2A9804BB1B3F5806FB9
:1030D00040F0A180002104F10800FFF7E1FB054664
:1030E000002D40F0B180674A936D23F4E053D4F88B
:1030F00098100B439365236813F0800F1DD0D4F80C
:103100009C30B3F5804F00F0B38000F2A2804BB149
:10311000B3F5005F40F09A80002104F10800FFF74A
:10312000BFFB0546002D40F0AA80564A936D23F45C
:103130006043D4F89C100B439365236813F0080F89
:103140000DD0D4F88030B3F5805F00F09D804D4AFB
:10315000536D23F44053D4F880100B435365236818
:1031600013F0100F0DD0D4F89430B3F5807F00F039
:103170009580444A936D23F44073D4F894100B4324
:103180009365236813F4002F00F09D80D4F8A030DD
:10319000B3F5803F00F08C80B3F5003F08D0002BE2
:1031A00040F08D80002104F10800FFF779FB05460F
:1031B000002D40F08780334A936D23F44033D4F8D8
:1031C000A0100B4393657EE0012104F12800FFF776
:1031D000EBFB054640E70126354648E72E4646E725
:1031E0000126354665E7B3F1804F3FF457AFB3F1A1
:1031F000A04F3FF453AFB3F1405F3FF44FAF012610
:10320000354656E7022104F12800FFF7CDFB0546BD
:1032100044E72E464DE7012635466CE7B3F5805F5F
:103220003FF45EAFB3F5A05F3FF45AAFB3F5406F24
:103230003FF456AF012635465DE7022104F1280030
:10324000FFF7B2FB05464BE72E4654E7012635460D
:1032500073E7B3F5004F3FF465AFB3F5204F3FF48C
:1032600061AFB3F5C04F3FF45DAF0126354664E76B
:10327000022104F12800FFF797FB054652E72E468E
:103280005BE700BF00440258022104F12800FFF769
:103290008BFB00283FF45BAF012658E7022104F1C5
:1032A0002800FFF781FB00283FF463AF012660E7A9
:1032B000022104F12800FFF777FB054678E7012695
:1032C000354600E02E46236813F4802F24D0D4F82E
:1032D0008430B3F5001F14D0B3F5401F07D0B3F509
:1032E000801F15D17C4AD36A43F40033D36295B969
:1032F000794A536D23F44013D4F884100B4353657B
:103300000AE0012104F12800FFF74EFB0546EEE735
:103310000126354600E02E46236813F4803F06D090
:10332000236DCBB1B3F5803F24D001263546236809
:1033300013F0005F27D1236813F4003F3DD0E36F03
:10334000B3F5807F2BD027D9B3F5007F2CD0B3F510
:10335000407F29D0012630E05F4AD36A43F400332E
:10336000D36275B95C4AD36C23F48033216D0B436F
:10337000D364DCE7022104F10800FFF791FA054667
:10338000EFE72E46D3E7022104F12800FFF70CFBFC
:103390000028D0D00126CEE733B101260DE04E4AF9
:1033A000D36A43F40033D362002D5CD14A4A536D93
:1033B00023F44073E16F0B435365236813F4801FBC
:1033C00006D0454A136D23F00043216F0B4313656C
:1033D000236813F4001F06D03F4A136D23F0807357
:1033E000A16E0B431365236813F0804F09D03A4B4D
:1033F0001A6922F400421A611A69D4F8B4100A4317
:103400001A612368002B06DA334AD36C23F0405349
:10341000616D0B43D364236813F4000F07D02E4A69
:10342000536D23F44003D4F888100B43536563684D
:1034300013F0010F19D1636813F0020F1ED16368F6
:1034400013F0040F23D1636813F0080F28D16368C9
:1034500013F0100F2DD1636813F0200F32D106B195
:1034600001263046F8BD2E46A7E7002104F10800EA
:10347000FFF716FA0028DED00646DCE7012104F14A
:103480000800FFF70DFA0028D9D00646D7E7022139
:1034900004F10800FFF704FA0028D4D00646D2E76A
:1034A000002104F12800FFF77FFA0028CFD006465C
:1034B000CDE7012104F12800FFF776FA0028CAD0F1
:1034C0000646C8E7022104F12800FFF76DFA00283C
:1034D000C5D00126C5E700BF00440258704710B5AB
:1034E00004464FF0B0434FF40032C3F8882003681D
:1034F0009A6812F4805F03D0DA6812F4807F0CD1EE
:1035000023689A6812F4005F03D0DA6812F4007F2F
:103510000BD1012384F8213010BDDA68D2B262F4F5
:10352000C072DA60FEF728FFEAE7DA68D2B262F426
:103530002072DA60204600F0B5F8EAE738B50446B4
:1035400003680A4ADA60FFF727F905462368DB6853
:1035500013F0200F07D1FFF71FF9401BB0F57A7F5A
:10356000F4D9032000E0002038BD00BF5FFF030056
:1035700070B50368DA6812F0400F02D000252846C3
:1035800070BD04464FF0FF32DA60FFF705F90646DA
:1035900000252368DB6813F0400FF0D1032DEED037
:1035A000FFF7FAF8831BB3F57A7FF2D9032584F885
:1035B0002150EEE710B50446104BDA6822F0800285
:1035C000DA609B6813F0200F06D1FFF7B7FF98B1C0
:1035D000032084F821000FE0084A936823F02003B9
:1035E0009360FFF7ABFF10B1032084F82100034A7A
:1035F000936843F02003936010BD00BF0040005863
:1036000000284BD038B5044690F8213063B102232E
:1036100084F821302368DA6812F0100F09D00020F6
:10362000012384F8213038BD80F82030FFF756FFA1
:10363000EDE7CA225A62236853225A622046FFF7F6
:1036400097FF28B12368FF225A620028EBD1E7E7F1
:1036500022689168124B0B40936021688A68636806
:1036600020690343A069034313438B60A168E368A7
:10367000226843EA014313612046FFF79BFF0028BD
:10368000E0D12268D36C23F00303D3642168CB6CB0
:10369000E26965692A431343CB64D3E7012070478D
:1036A000BFFF8FFF7047000000487047780500207B
:1036B00030B40468216843685A00032303FA02F215
:1036C00021EA0202226004682268816845684FEAA4
:1036D000450C01FA0CF10A4322600468A1684268B3
:1036E000520003FA02F221EA0202A2600468A26810
:1036F000016945684FEA450C01FA0CF10A43A260E2
:103700000468E268416849008B4022EA0303E360F1
:103710000468E368C268416849008A401343E36073
:1037200001684B6844680122A24023EA02034B600F
:1037300001684B6842694068824013434B6030BC6B
:10374000704710B44368072B13D80468226A9B00A3
:103750000F2101FA03F322EA030323620468236AB8
:103760008269416889008A40134323625DF8044BF3
:1037700070470468626A083B9B000F2101FA03F35B
:1037800022EA030363620468626A81694368083B52
:103790009B0001FA03F313436362E7E739B1016861
:1037A0004B6940680122824013434B6170470168B6
:1037B0004B6940680122824023EA02034B61704753
:1037C00070B500210F2978DC01F10C0330F81330BB
:1037D000002B72D085682C685B00032202FA03F389
:1037E00024EA03032B608668346801F10C0330F887
:1037F00013C04FEA4C0C022505FA0CF52C4334603B
:103800008568AC6830F813C04FEA4C0C02FA0CFC27
:1038100024EA0C04AC608568AC6830F813C04FEA49
:103820004C0C02FA0CFC44EA0C04AC608668F468A8
:1038300030F813506D00AA4024EA0202F260856855
:10384000EC6830F8132052004FF0010C0CFA02F231
:103850002243EA60866830F813204FEAD20E0EF158
:10386000080E56F82E4002F0070292000F2505FAC6
:1038700002F224EA020246F82E20856830F813206E
:103880004FEAD20E0EF1080E55F82E4002F0070254
:103890009200066C06FA02F2224345F82E20846854
:1038A000626830F813300CFA03FC22EA0C02626002
:1038B00083685A685A60013184E743685B0807EE01
:1038C000903AF8EE677A9FED177A77EE877A90ED67
:1038D000017AB8EE477AC7EE876AFCEEE66A0368BB
:1038E000C3ED036A0268136843F0010313600268C2
:1038F000136823F0102313600268136823F48063B5
:1039000013600268136843F0200313600268536871
:1039100023F4405353600268136843F00C031360B0
:1039200070BD00BFFCBE004D10B588B004460C4A07
:10393000D2F8E03043F04003C2F8E030094B019385
:103940000723029301210391002306930493059317
:10395000836901A89847236901A8984708B010BD5A
:10396000004402580018025800B585B0054B019379
:10397000072302938369002101A8984705B05DF8E9
:1039800004FB00BF0018025800B585B0064B019338
:103990000723029300238DF80C308369012101A8CD
:1039A000984705B05DF804FB0018025800B593B0C5
:1039B000154BD3F8E02042F00102C3F8E020D3F821
:1039C000F02042F01002C3F8F02003F16843A3F5A1
:1039D0009A3300934FF4E13301930C4B029302238B
:1039E000039300230493032305930923ADF81830B0
:1039F0000A23ADF81A3007231093436D68469847A1
:103A000013B05DF804FB00BF0044025800000258E8
:103A10000FB400B5074983B004AB086853F8042B12
:103A20008168019300F008F803B05DF804EB04B07E
:103A3000704700BF0C0000202DE9F04F2DED048BE6
:103A4000D3B0924603911C4683460A9302F0A2F833
:103A5000036812931846FCF753FD22AF1190082219
:103A600000213846FCF736FFBBF1000F04D0DBF82D
:103A70003430002B01F05D80039A536EB2F90C20B4
:103A8000D80702D4910540F17C86960406D40399A8
:103A900042F4005223F400538A814B669D0401F1E5
:103AA000DE83039AB2F90C30190740F1C98012691C
:103AB000002A00F0C58003F01A020A2A00F0CF8025
:103AC00000239FED9B8BCDE92733CDE91433CDE95E
:103AD000163329AA0D9326929046139306935446C3
:103AE000A246954BD3F8E45002F04EF800970346F7
:103AF00052461EA95846A847002800F0D180C0F2BF
:103B0000C7801E9A252A034601D09A44E9E7BAEBFA
:103B10000406054640F0C88000234FF0FF328DF8C0
:103B20006F30994607930AF1010A9AF8003005921E
:103B30000AF1010AA3F120025A2A00F2FF80DFE80D
:103B400012F03303FD00FD002E03FD00FD00FD001B
:103B50006A00FD00FD006F027F02FD007A023E0355
:103B6000FD00DD025B005B005B005B005B005B0057
:103B70005B005B005B00FD00FD00FD00FD00FD0043
:103B8000FD00FD007E01FD00FC0197027E017E012B
:103B90007E01FD00FD00FD00FD009202FD00FD0024
:103BA000ED02FD00FD00FD001902FD00AE02FD006A
:103BB000FD00EB06FD00FD00FD00FD00FD00FD0029
:103BC000FD00FD007E01FD00FC014C027E017E0136
:103BD0007E0101034C02F701FD008502FD001F0379
:103BE0000D070E03F701FD0019027C001007FD0010
:103BF000FD001407FD007C00A3F1300200211AF83B
:103C0000013B01EB810102EB4101A3F13002092AE2
:103C1000F5D907918EE7584601F0BCFF436816932B
:103C20001846FCF76DFC17900546584601F0B2FFA8
:103C300083681493002D40F061869AF8003077E78E
:103C4000039D5846294601F089FE002841F056841C
:103C5000B5F90C3003F01A020A2A7FF431AF039948
:103C6000B1F90E20002AFFF62BAF4A6ED60702D418
:103C70009D0541F1F580039923465246584601F0CF
:103C80009DFC0690069853B0BDEC048BBDE8F08F08
:103C9000082200213846FCF71DFE01239A4420E744
:103CA000BAEB0406054611D0289B33442893279B82
:103CB0000133072BC8E90046279311DC08F10808F7
:103CC000069B33440693002D7FF426AF289B002BE0
:103CD00041F0A780039B0022B3F90C30279219E032
:103CE000039926AA584601F0A9FC80B90DF1A40851
:103CF000E6E7039926AA584601F0A0FC002800F048
:103D00009280099B1BB109995846FCF725FF039B3C
:103D1000B3F90C30039A526ED10740F1FF805B0675
:103D200001F1A782069853B0BDEC048BBDE8F08F7B
:103D300000000000000000005C0600200B93002B38
:103D4000C4D000218DF8E4300123CDE908318DF88D
:103D50006F100493059110910E910C9139AC19F0EC
:103D6000020302D0049A0232049219F08405289AC0
:103D700005D10798049E861B002E00F3928081B126
:103D80000121C8F804102799013101320DF16F00AB
:103D9000072928922791C8F8000000F3D18308F181
:103DA000080883B1279B1CA901330232C8F8001010
:103DB000072B4FF0020128922793C8F8041000F354
:103DC000B38308F10808802D00F0AD82059B0899A7
:103DD0005E1A002E00F3EA8219F4807F40F00B8215
:103DE000089BC8F804301A44279BC8F800400133E8
:103DF000072B2892279300F33A8308F1080819F05B
:103E0000040F05D0079B04995C1A002C00F3A683CD
:103E1000DDE9063104988142ACBF5B181B1806939C
:103E2000002A7FF466AF00232793099B1BB10999F1
:103E30005846FCF791FE0DF1A408544650E60B934A
:103E40000A9B073323F00703B3EC028B9FEDAE7B95
:103E5000B0EEC86BB4EE476BF1EE10FA0A9340F384
:103E6000EB84B5EEC08BF1EE10FA01F186819DF87E
:103E70006F10A74CA74B29F080090B9A472AD8BF8F
:103E80001C46002303220993049208920593109381
:103E90000E930C9300293FF462AF049B013304930B
:103EA0005DE79D4827990F90102E26DDCDE9183546
:103EB0004046994DA046039C04E0103E102E00F1B0
:103EC000080016DD0131103210230729CDE9271231
:103ED00005604360F1DD26AA2146584601F0AEFB9D
:103EE00000287FF40EAF103E102EDDE9271229A81E
:103EF000E8DCDDE918354446804601310F98C8F802
:103F0000000032440729CDE92712C8F8046000F305
:103F1000FF859DF86F1008F1080830E79A053FF516
:103F2000FEAE039CA06DFCF7A9FDB4F90C30F6E6DB
:103F30009AF8003049F02009FAE50A9A0B93432BCE
:103F400002F1040600F03E8519F0100F40F03A85AA
:103F50000A9B1B688DF8E43001230493089339AC65
:103F600000210A968DF86F100991059110910E911C
:103F70000C91F4E60B930A9B1A4600238DF86F30E0
:103F8000134653F8044B0A93002C00F00B850B9B4F
:103F9000532B00F0E58519F010030C9340F0E085F9
:103FA000059B002BC0F247870C991A462046FCF768
:103FB000A7F90990002801F04482099B1A1B0C9B69
:103FC0000892059322EAE27210930E9309937323E9
:103FD0009DF86F1004920B935CE719F0200F0B9380
:103FE0004CD00A9B073323F007031A46596852F84E
:103FF000083B0A920A460029C0F21084059900295C
:10400000C0F2838253EA020129F0800540F07E82EB
:10401000059A002A40F07F82A946089252AC58E1E6
:104020000A9B53F8042B0792002A80F2B883079A60
:104030000A93524207929AF8003049F0040977E552
:104040002B238DF86F309AF8003071E59AF8003024
:104050006C2B03BF9AF8013049F020090AF1010ADC
:1040600049F0100964E59AF8003049F008095FE565
:1040700049F0100919F0200F0B93B2D10A9A19F0E8
:10408000100F52F8043B0A9240F0C38319F0400F1E
:1040900000F0BB8343F3C03211461BB2ABE70B9376
:1040A00049F0100515F0200200F05D830A9B0733EC
:1040B00023F0070319465A6851F8083B0A91012179
:1040C0000020059C8DF86F00002CC0F2EB8053EAB5
:1040D000020025F0800940F0E480002C40F02E859D
:1040E000002940F0A48415F00103089300F05C83DC
:1040F00030238DF847310DF24714EAE09AF800308A
:1041000049F0800914E500BFFFFFFFFFFFFFEF7FCD
:10411000EC880008E8880008B08A00080B9349F092
:10412000100919F0200200F00F830A9B073323F0D7
:10413000070319465A6851F8083B0A9129F480652B
:104140000021BDE79AF80030682B03BF9AF80130D0
:1041500049F400790AF1010A49F04009E8E40A9AB1
:1041600052F8043B0A9247F63002ADF870207820EE
:10417000AD4A139249F00205002202210B909FE7FD
:1041800019F0200F00F0A9830A9B069A1B681A6099
:10419000D2175A600A9B04330A935446A0E49AF853
:1041A000003049F00109C3E49DF86F209AF800300F
:1041B000002A7FF4BDAC20228DF86F20B8E4504671
:1041C00010F8013B2A2B01F0B081A3F13002092A3B
:1041D00098BF002101F2528010F8013B01EB8101F0
:1041E00002EB4101A3F13002092AF5D941EAE1725B
:1041F000059282469EE40B9B652B40F34481B5EE0D
:10420000408BF1EE10FA40F0E381279B8749C8F814
:104210000010013301320121072B28922793C8F89F
:10422000041000F3908408F108081D9B0D998B423F
:1042300080F2B082119B12991A44C8E90013279B9F
:1042400028920133072B279300F3A08308F1080875
:104250000D9B5C1E002C7FF7D2AD102C279B41F3E9
:104260004981734E0F9641461025DDF80C8004E01D
:104270000831103C102C40F3D78401331032072B47
:10428000C1E90065CDE92732F2DD26AA414658464C
:1042900001F0D4F900287FF434ADDDE9273229A9F3
:1042A000E7E74D46012900F03181022952AC1FD1C8
:1042B000139803F00F011B09415C04F8011D43EA48
:1042C0000273120953EA0201F3D152AB1B1BA94638
:1042D0000893059A08989DF86F1082424FF00003EA
:1042E000B8BF02460993049210930E930C93D1E544
:1042F00003F00701DB0843EA4273D208303153EA86
:104300000206204604F8011DF2D1EE07DDD5302962
:10431000DBD03023023804F8013C52AB1B1AA9460B
:1043200008930446D5E7079B04995E1A002E7FF791
:104330004DAD3F49279B0F91102E23DD40461025A0
:10434000A04619463A4C04E0103E102E00F1080039
:1043500015DD013110320729C0E90045CDE92712EA
:10436000F2DD039926AA584601F068F900287FF487
:10437000C8AC103E102EDDE9271229A8E9DC44461E
:104380000B46804601330F99C8F800103244072BC2
:10439000CDE92732C8F8046000F3EB82059B089949
:1043A0005E1A002E08F108087FF716AD2049279BFA
:1043B0000F91102E28DD41461025B0462646039C5D
:1043C00006E0A8F11008B8F1100F01F1080118DD9E
:1043D000013317481032072BC1E90005CDE9273218
:1043E000EFDD26AA2146584601F028F900287FF47F
:1043F00088ACA8F11008B8F1100FDDE9273229A91F
:10440000E6DC34464646884601330F99C8F800106A
:104410003244072BCDE92732C8F8046000F38781C6
:1044200008F10808D8E400BFF888000828890008C7
:10443000A08A0008119B12981A44C8E90003279B20
:1044400028920133072B279300F3FB8408F1080817
:104450000029C0F268870D99C8F8004001330A446A
:10446000072BCDE92732C8F804107FF7C6AC0399B3
:1044700026AA584601F0E2F800287FF442AC289AB8
:104480000DF1A408BBE40D99279B012902F101025B
:1044900003F1010308F1080040F309810121072B12
:1044A000CDE92732C8F80040C8F8041000F3CF82E5
:1044B0001199129D01330A44072BC0E90051CDE93F
:1044C000273200F3B88208300D99B5EE408BF1EE3B
:1044D00010FA01F1FF3500F00481013301342A4460
:1044E000072BCDE927320460456000F3EE800830E9
:1044F0001599416001330A44072B20A9CDE92732E1
:104500000160B4DC00F1080879E44D460A2B72F131
:10451000000180F0A88230338DF847310123A9468D
:1045200008930DF24714D4E6039926AA584601F0E1
:1045300085F800287FF4E5AB289A0DF1A40842E441
:1045400003990F9326AA584601F078F800287FF4C3
:10455000D8AB289A0F9B0DF1A40822E4102C279BBE
:1045600040F3CE86B14EDDF80C900F96102504E096
:10457000103C102C08F1080816DD01331032072B0F
:10458000C8E90065CDE92732F2DD26AA494658463A
:1045900001F054F800287FF4B4AB103C102CDDE996
:1045A00027320DF1A408E8DC01330F992244072BD0
:1045B000C8E90014CDE927327FF72AAC039926AA6F
:1045C000584601F03BF800287FF49BAB289A1FE483
:1045D0001D99002940F3EA80DDE90C639E42A8BFE3
:1045E0001E46002E0BDD279B01333244072BC8E902
:1045F00000462892279300F3178608F108080C9DBF
:10460000002EA8BFAD1B002D00F32F830C9B19F4C7
:10461000806F23441E4640F0EB841D9B0D998B4216
:10462000C0F2E88119F0010F40F0E4810D9965189E
:10463000AD1BCC1AA542A8BF2546002D0DDD279B3A
:10464000C8F8006001332A44072BC8F804502892A8
:10465000279300F3418608F10808002DA8BF641BCA
:10466000002C7FF7CCAB102C279B40F34387704E78
:104670000F9641461025DDF80C8004E00831103C0F
:10468000102C40F3D18201331032072BC1E90065B1
:10469000CDE92732F2DD26AA4146584600F0CEFF8A
:1046A00000287FF42EABDDE9273229A9E7E719F0CE
:1046B000010F7FF4F3AE0121072BCDE92732C8F8B3
:1046C0000040C8F804107FF713AF039926AA584694
:1046D00000F0B4FF00287FF414ABDDE9273229A8ED
:1046E00006E70D9901297FF703AF112940F3B08246
:1046F0004F4EDDF80C800F96102404E00830103D7A
:10470000102D40F3A78201331032072BC0E900645B
:10471000CDE92732F2DD26AA4146584600F08EFF49
:1047200000287FF4EEAADDE9273229A8E7E70399FC
:1047300026AA584600F082FF00287FF4E2AA289AB1
:104740000DF1A408FFF748BB0A9951F8043B0A9100
:1047500019F010017FF4F2AC19F0400000F0AE82C5
:104760009BB20A46EAE40A9951F8043B0A9115F013
:10477000100148D115F0400040D00A469BB20121FB
:104780009EE4039DA86DFCF777F9B5F90C206B6EDC
:10479000FFF77BB919F0010F3FF431AB4AE50A93FB
:1047A0009AF80030FFF7C4B952AC92E5279B214834
:1047B000C8F80000013301320120072B289227930B
:1047C000C8F8040000F3FB8408F1080800297FF40E
:1047D00031AE0D9909F001030B433FF410AB119B6F
:1047E00012991A44C8E90013279B28920133072B1A
:1047F000279300F3268308F108082CE615F40072CD
:104800001CBFDBB2024601215AE419F4007F40F0DC
:10481000EC82DA1711460029BFF6F0AB5B4262EB7F
:1048200042024D462D2001214BE400BFB08A000812
:10483000A08A000828890008B4EE488BF1EE10FA2F
:1048400080F10B860B9B612B00F0EC84412B00F078
:10485000D882059B013300F0D6850B9B23F0200303
:10486000472B00F0AB850023099349F480730F9325
:1048700018EE903A002BC0F2B084B0EE489B0026B0
:104880000B9B413B252B00F23282DFE813F03F0304
:10489000300230023002FB02A70330023002300245
:1048A0003002300230023002300230023002300278
:1048B0003002300230023002300230023002300268
:1048C00030023002300230023002300230023F0348
:1048D000300230023002FB02A70319F0100F40F043
:1048E000B18119F0400F40F0868219F4007F00F08A
:1048F000A9810A9B069A1B681A704BE4149A9AF8CD
:104900000030002A3FF414A91278002A3FF410A9BD
:1049100049F48069FFF70CB90B939B4B139319F083
:10492000200276D00A9B073323F0070319465A6802
:1049300051F8083B0A9119F0010F0AD053EA02011D
:1049400007D00B998DF87110302149F002098DF8CC
:10495000701029F480650221FFF7B2BB0B93FFF7BB
:10496000E0BB0B934D46FFF79DBB0B93874B139317
:10497000D5E7039926AA584600F060FE00287FF488
:10498000C0A9289A0DF1A408FFF720BA039926AA16
:10499000584600F053FE00287FF4B3A9289A0DF181
:1049A000A40855E4059B0994062B224628BF06233C
:1049B000059421460493764C089310920E920C9223
:1049C000FFF768BA0822002124A8FBF783FF0A9B9F
:1049D00039AC1A68214624AB584602F0BDFD0346A7
:1049E0000133089000F09985089B23EAE373049350
:1049F000FFF7B6BA119912980A44C8E9000127993D
:104A0000289201310729279100F31B8408F1080837
:104A10000CE60A9951F8043B0A9119F010018AD169
:104A200019F0400000F044819BB20A4683E7059BE1
:104A3000089352AC4DE4039926AA584600F0FEFDB7
:104A400000287FF45EA9DDE9273229A83CE5039917
:104A500026AA584600F0F2FD00287FF452A9DDE9AD
:104A6000273229A824E505F480610020CDF82080B4
:104A70000995DFF82091DDF85080CDF810A052ACF8
:104A800084460D4605E00A2B72F1000236D35346E8
:104A90003246991841F10001A9FB010626F00300F6
:104AA00000EB9600091A581A4FF0CC3662F1000E4E
:104AB00006FB00F609FB0E66A0FB09A006440AF0FF
:104AC000010E0520AEFB000E40184FEA5A0A3030A6
:104AD00004F8010C4AEAC67A0CF1010C013C760894
:104AE000002DD0D098F800108C45CCD1BCF1FF0F30
:104AF000C9D00A2B72F1000280F05283CDF85080A9
:104B0000DDF810A0CDF834C0DDE90885FFF7DDBB86
:104B100003990F9326AA584600F090FD00287FF4D1
:104B2000F0A89DF86F10289A0F9B0DF1A408FFF7CD
:104B300026B95846FBF73AFEFEF79EBF01294D46BF
:104B40007FF4B3ABE7E4039926AA584600F076FD5C
:104B500000287FF4D6A8289A0DF1A408FFF765BBBA
:104B600024AD0822002128461F94FBF7B3FE059BC5
:104B7000002BC0F207830026CDF810A0CDF82480CA
:104B80009A46B04617E000BF0C890008F888000874
:104B900020890008CDCCCCCC39A9584602F0DCFCE9
:104BA000431C404400F02484504509DC06F104060F
:104BB00000F02F8480461F9A92592B46002AEBD191
:104BC000CDF82080DDF810A0DDF82480089B002BB4
:104BD00000F00883632B40F39783591C5846FCF779
:104BE000B7F80446002800F0DA8409900822002172
:104BF0002846FBF76FFE0095089D1FAA2B4621460D
:104C0000584602F0CFFC854240F0C384089A002346
:104C1000A35422EAE2729DF86F1005930492109358
:104C20000E930C93FFF736B9884601330F99C8F8F5
:104C300000102244072BC8F80440CDE927327FF743
:104C4000DCA814E40A9B069A1B681A60FFF7A2BA54
:104C5000AC490F9101330F9901602A44072BCDE92C
:104C6000273245607FF743AC2FE5A649279B0F917C
:104C7000102D2DDD40461026A0461946A14C03E01C
:104C80000830103D102D20DD013110320729C0E918
:104C90000046CDE92712F3DD039926AA584600F015
:104CA000CDFC00287FF42DA8DDE9271229A8E8E72C
:104CB00019F400721CBFDBB202463CE619F4007224
:104CC0001CBFDBB20246FFF739BA44460B468046AA
:104CD00001330F99C8F800102A44072BCDE9273279
:104CE000C8F8045000F3C18008F108088EE424AB32
:104CF00001931FAB0093059AB0EE490B1DAB022147
:104D0000584601F021F819F0010F044640F0DF8207
:104D1000249B1B1A0D931D9B0C930C9BDA1C03DB2D
:104D2000059A9A4280F209820B9B023B0B930C9BE3
:104D3000013B9DF82C201D930021002BB8BF0C9B3C
:104D40008DF88020BABFC3F101032D222B22092B3D
:104D50008DF8812040F324830DF19705DFF8A8C179
:104D60002A461046ACFB0312D20802EB8201A3EBE9
:104D70004101303100F8011C19466329134600F146
:104D8000FF32EEDC303302F8013C831EAB4280F090
:104D9000EA830DF1810213F8011B02F8011FAB42F7
:104DA000F9D152AB181AA0F1AD0315930D9B159ACA
:104DB000012B1A44089240F31683089B119A13445E
:104DC0000893089A29F4806343F4807922EAE27216
:104DD0000023109304920E930C93002E40F0018157
:104DE0009DF86F100596FFF755B843F3C0121146B2
:104DF0005BB2FFF700B90A9B069A1B681A80FFF79F
:104E0000C9B958238DF8713030238DF87030059B67
:104E1000632B49F0020900F3DB820023099339ACCC
:104E200023E5039926AA584600F008FC00283EF422
:104E300051AFFEF76CBF2046FBF762FB0246FFF75F
:104E4000BEB8039926AA584600F0F8FB00287EF465
:104E500058AFDDE927321D990DF1A408FFF7F8BA24
:104E6000886DFBF70BFEFEF706BF039926AA58468E
:104E700000F0E4FB00287EF444AF289A0DF1A4086A
:104E8000FFF7C4BB059B02215D1C24AB01931FAB44
:104E900000932A461DAB5846B0EE490B00F054FF74
:104EA0000B9B23F0200CBCF1460F044600EB0501E0
:104EB00018BF4FF0450C05D12378302B00F0E3816B
:104EC0001D9B1944B5EE409BF1EE10FA00F01482E0
:104ED000249B8B4206D230205A1C24921870249BAB
:104EE0009942F9D81D9A0C921B1BBCF1470F0D93E8
:104EF0003FF413AFBCF1460F00F0D0810C9B013B97
:104F000017E700BFA08A0008CDCCCCCC1DA8B0EE1E
:104F1000490B00F045FEB4EE007BB3EE004B20EEF3
:104F2000077BB5EE407BF1EE10FA08BF0123B34AD0
:104F300008BF1D93B248059B0B99013B612908BF2F
:104F40001046224606E0B5EE407BF1EE10FA00F086
:104F500068820B4627EE047BFDEEC76B154616EE06
:104F6000901A415C02F8011B591CB8EEE65B03F194
:104F7000FF3137EE457BE6D1B6EE005BB4EEC57B84
:104F8000F1EE10FA40F3F282249512F8011CC57B71
:104F9000A94213460AD14FF0300C03F801CC249BF0
:104FA000591E249113F8011CA942F6D0392916BFC5
:104FB0000131817AC9B203F8011C13461B1B0B9AFD
:104FC0000D931D9B0C93612A03F1FF331D9300F099
:104FD000A282412150220B910121AEE6059D0321C1
:104FE00053E72D2100238DF86F100593FEF755BF71
:104FF0000D9BCDF82CA0E31805930E9BCDF83090B7
:10500000002B4146DDF850A0DDF85C80DDF84090D3
:105010000F942EDDB9F1000F7CDD09F1FF392798DF
:10502000169B013042440728C1E900382892279096
:1050300065DC0831059B9AF800009D1B8542A8BFDE
:105040000546002D0BDD279801302A440728C1E9C9
:1050500000652892279063DC9AF800000831002D43
:10506000ACBF441B0446002C17DC06440E9B002BEF
:10507000D0DCB9F1000FD0DC0F9C0D9BCDF850A017
:10508000E3189E428846314628BF1946DDF82CA019
:10509000DDF830900E46FFF7C0BA102C2798594B18
:1050A0001FDD1025089304E0103C102C01F10801CD
:1050B00016DD0130534B10320728C1E90035CDE928
:1050C0002702F1DD039926AA584600F0B7FA002816
:1050D0007EF417AE103C102CDDE9270229A9E8DC8C
:1050E000089B0B60013022440728CDE927024C6061
:1050F00000F38A809AF8000008310644B6E7039965
:1051000026AA584600F09AFA00287EF4FAAD289AAA
:1051100029A98FE70E9B013B0AF1FF3A0E937EE728
:10512000039926AA584600F089FA00287EF4E9ADD2
:105130009AF80000289A29A991E7DDE90C23934207
:1051400000F3E68019F0010F0C9B00F07881119AB2
:105150001344089319F4806F03D00C9B002B00F3C9
:105160009381089B23EAE373049367230B93002343
:10517000DDF83C9010930E932FE62D218DF86F10E3
:10518000FEF777BE0023194600951FAA584602F085
:1051900009FA03460133089000F02A811F9415E5AF
:1051A000179B1699E41A1A46204600F0B9FC98F8A5
:1051B00001300BB108F101084FF0000C67E40399CE
:1051C00026AA584600F03AFA00287EF49AAD1D99B6
:1051D000289A0DF1A408FFF7F9BA2D26B1EE489BE5
:1051E000FFF74EBB089B9DF86F101093CDE9043379
:1051F0000E930C930993FEF74DBE00BFF88800088C
:105200000C890008A08A0008039926AA584600F0D5
:1052100015FA00287EF475AD9AF80000289A29A99D
:10522000064423E77823EDE5039926AA584600F0C3
:1052300005FA00287EF465AD289A0DF1A408FFF761
:10524000DEB9039926AA584600F0F8F900287EF442
:1052500058AD1D9B289A0DF1A408FFF7E7B9DC07AC
:1052600007D4039B9B89980503D4039B986DFBF798
:1052700005FC4FF0FF330693FEF754BD0022824633
:105280000592FEF757BCB5EE409BF1EE10FA40F0E8
:105290002D811D9B0C9319440B1B0D930C99059AA2
:1052A00009F00103002943EA020340F34A81002B7D
:1052B00040F0E3800C9B089366230B9319F4806FF6
:1052C00040F0E480089B23EAE37304934FE7059BD7
:1052D0004FF0470CC118F5E5039926AA584600F08F
:1052E000ADF900287EF40DAD1D9C0D9B289A1C1B6A
:1052F0000DF1A408FFF7B1B91D9A0C920B46F3E526
:10530000AA490F91FFF750B90023099339AC6DE416
:105310000D9B119A9A180C9B0892002B40F3DC808D
:1053200067230B93CAE74D42103180F22F81A048CA
:105330000F9041461026804603E00831103D102DA5
:1053400013DD01331032072BC1E90086CDE9273286
:10535000F3DD039926AA584600F070F900287EF480
:10536000D0ACDDE9273229A9E8E7884601330F9957
:10537000C8F800102A44072BCDE92732C8F804509A
:105380007FF739AA039926AA584600F057F9002852
:105390007EF4B7ACDDE927320DF1A408FFF75BB866
:1053A000002949D130228DF882200DF1830230335B
:1053B00002F8013B20ABD31A1593F7E4059B002BB1
:1053C0007FF451AA059B099301230593FFF74DBA7A
:1053D000591C5846FBF7BCFC0446002800F09D8091
:1053E0000990FFF742BA19F0010F3FF4EAACE4E488
:1053F000039BB3F90C300022099243F04003039A57
:105400009381FEF77EBC0023099306230593FFF7E3
:105410002CBA059BDDF810A0DDF824800893FFF777
:10542000D5BB002BFFF6C9AD01331344302102F880
:10543000011B9342FBD1C1E50DF18202B7E708934E
:1054400088E6059B0493089373239DF86F100590DD
:1054500010900E900B93FEF71DBD18EE903A002BA6
:10546000B4BF2D219DF86F10524C534BB8BF8DF82F
:105470006F1029F08009FEF700BD119B1A445318E4
:10548000089366230B9319E767230B9314990B7802
:10549000FF2B77D000250C9A284603E0013001311C
:1054A000FF2B08D0934206DAD21A4B78002BF5D1A5
:1054B0000B780135F4E714910E9010950C92DDE90C
:1054C0000F930E9A17991344089A01FB032308932C
:1054D00023EAE373049380E4C3F101031A4422EA4C
:1054E000E2730493672308920B9340E6C5F101032E
:1054F0001D93E6E42E490F91FFF797BB039A536E75
:10550000DB073FF5B6AE93899F053FF5B2AE906DD0
:10551000FBF7B4FAADE670225EE5039AB2F90C30FF
:1055200043F040039381FEF7F5BB0A9A9AF80130E5
:1055300052F8041B0A9241EAE17182460591FEF796
:10554000F7BA2BB90123662204930B9208930EE657
:10555000119B5D1C059B2B44089323EAE373049382
:1055600066230B9303E6022315931FE4B4EE457BF9
:10557000F1EE10FA7FF421AD16EE903AD9077FF5DF
:105580001CAD01E5002310930E9398E708490F9195
:10559000ECE6039BB3F90C3043F040032FE7039B89
:1055A0000990B3F90C3043F0400328E7B08A0008B3
:1055B000A08A0008F4880008F0880008F0B51F46AB
:1055C0008B89ADF26C4D23F00203ADF80C301AABB1
:1055D000009304934FF48063029305934B6E1993E9
:1055E000CB89ADF80E30CB6907934B6A099315460A
:1055F0000023064616A80C460693FBF739FA2A46FE
:105600003B4669463046FEF717FA051E07DB69463A
:105610003046FBF757FF002818BF4FF0FF35BDF8A5
:105620000C305B0603D5A38943F04003A381169891
:10563000FBF720FA28460DF26C4DF0BD936810B5CB
:1056400014461BB918460023636010BD00F006F82D
:105650000023A3600023636010BD00BF9368002B8C
:1056600000F0F8802DE9F04FB1F90CC01CF0080FE4
:1056700083B0904681460C4631D00B697BB31CF059
:105680000207D8F8006038D00027D4F824B0E169C8
:10569000DFF8C4A23D4655452B463A4628BF53463F
:1056A0004846C5B1D847002840F3CA80D8F808302A
:1056B0001B1A07442D1AC8F80830002B00F0B680DA
:1056C00055452B46D4F824B0E16928BF53463A46E5
:1056D0004846002DE6D1D6E900750836DBE72146BD
:1056E000484600F03BF9002840F0AF80B4F90CC008
:1056F000D8F800601CF00207C6D11CF0010A63D183
:105700002368A168574618468B46002F58D01CF4D2
:10571000007F00F0B580B9420A4600F2E1801CF437
:10572000906F2FD0216962695D1A02EB420202EB91
:10573000D2726B1C52103B44934292BF93469B46DD
:105740001A461CF4806F00F0EA8011464846FBF7C9
:10575000FFFA002800F0F9802A4621690090FAF744
:105760001FFEA289009B22F4906242F08002A28177
:105770005819ABEB0505C4F814B02361A56020608F
:10578000BB463A465146009200F04AF9A1682368A8
:10579000009AA1EB0B011A443D46A160226000274C
:1057A000D8F808305B1BAA44C8F80830002B3DD05D
:1057B0002368A168B4F90CC018468B46002FA6D107
:1057C000D6E900A708369EE73846BB463D46009717
:1057D000002D41D0002846D0009A2068A168D4E965
:1057E0000473AA4228BF2A46B84204D901EB030A2F
:1057F000524500F38580934275DCE169676A5A4639
:105800004846B847B0F1000A1ADD009BB3EB0A0323
:1058100000930FD00120D8F80830A3EB0A03D3443B
:10582000A5EB0A05C8F80830002BD1D1002003B041
:10583000BDE8F08F21464846FBF744FE0028EAD039
:10584000B4F90C3043F04003A3814FF0FF3003B0B4
:10585000BDE8F08F00207047756833460836002D8C
:10586000FAD0D3F800B02A460A215846FAF748FD84
:10587000002867D00130A0EB0B0300931A46ACE779
:1058800022699A4214D36269BA4211D86FF0004378
:10589000BB4228BF3B46656A93FBF2F3E16902FB1A
:1058A00003F348465246A847051EC9DD7F1B77E72C
:1058B000B94228BF39460D4618460A46514600F0FF
:1058C000AFF8A1682368491B2B44A160236000291D
:1058D000ECD121464846FBF7F5FD0028E6D0AFE7BE
:1058E000BB463A464EE75946019200F099F8019AB4
:1058F000A3689B1AA360236813442360924684E73D
:105900005946524600F08CF82368534423602146E0
:105910004846FBF7D7FD00283FF477AF90E74846AD
:1059200001F06AFC034600287FF422AF2169484653
:10593000FBF712F9B4F90C300C22C9F8002023F05F
:1059400080037FE76A1C009247E70C22B4F90C3011
:10595000C9F8002076E700BF00FCFF7F38B52F4B69
:105960001B6805460C4613B15A6B002A4BD0B4F99C
:105970000C3018071CD5226922B313F0010107D09F
:10598000616900204942A060A1613AB1002038BDA0
:10599000980758BF6169A160002AF7D1190658BF5E
:1059A0001046F4D543F04003A3814FF0FF3038BDDB
:1059B000D9062CD55A0712D4226943F00803A381D3
:1059C000002ADAD103F42071B1F5007FD5D0214649
:1059D000284601F0F3FDB4F90C302269CDE7216BC4
:1059E00051B104F14002914204D02846FBF7B4F8CB
:1059F000B4F90C300022226322690021C4E900219D
:105A000023F02403D9E71846FAF7D0FEAFE70922BE
:105A100043F040032A60A381C7E700BF0C000020C9
:105A200088420ED98B1883420BD900EB020C002A56
:105A30006ED0624613F801CD02F801CD9942F9D13A
:105A400070470F2A0FD8034602F1FF3C002A5FD0AF
:105A50000CF1010C013B8C4411F8012B03F8012FD0
:105A60006145F9D1704740EA01039B0751D1A2F18A
:105A7000100370B501F1200C23F00F0501F1100E99
:105A800000F11004AC441B095EF8105C44F8105C93
:105A90005EF80C5C44F80C5C5EF8085C44F8085C4A
:105AA0005EF8045C44F8045C0EF1100EE64504F167
:105AB0001004E9D1013312F00C0F01EB031102F0D5
:105AC0000F0400EB031328D0043C24F003064FEA34
:105AD000940C1E441C1F8E465EF8045B44F8045F61
:105AE000B442F9D10CF1010402F0030203EB840388
:105AF00001EB840102F1FF3C4AB10CF1010C013BC6
:105B00008C4411F8012B03F8012F6145F9D170BDC8
